{
  "_format": "hh-sol-artifact-1",
  "contractName": "OmniChainNFT",
  "sourceName": "contracts/OmniChainNFT.sol",
  "abi": [
    {
      "inputs": [
        {
          "internalType": "address",
          "name": "_endpoint",
          "type": "address"
        },
        {
          "internalType": "uint256",
          "name": "_chainId",
          "type": "uint256"
        },
        {
          "internalType": "uint256",
          "name": "startId",
          "type": "uint256"
        },
        {
          "internalType": "uint256",
          "name": "_max",
          "type": "uint256"
        },
        {
          "internalType": "uint64",
          "name": "subscriptionId",
          "type": "uint64"
        }
      ],
      "stateMutability": "nonpayable",
      "type": "constructor"
    },
    {
      "inputs": [
        {
          "internalType": "address",
          "name": "have",
          "type": "address"
        },
        {
          "internalType": "address",
          "name": "want",
          "type": "address"
        }
      ],
      "name": "OnlyCoordinatorCanFulfill",
      "type": "error"
    },
    {
      "anonymous": false,
      "inputs": [
        {
          "indexed": true,
          "internalType": "address",
          "name": "owner",
          "type": "address"
        },
        {
          "indexed": true,
          "internalType": "address",
          "name": "approved",
          "type": "address"
        },
        {
          "indexed": true,
          "internalType": "uint256",
          "name": "tokenId",
          "type": "uint256"
        }
      ],
      "name": "Approval",
      "type": "event"
    },
    {
      "anonymous": false,
      "inputs": [
        {
          "indexed": true,
          "internalType": "address",
          "name": "owner",
          "type": "address"
        },
        {
          "indexed": true,
          "internalType": "address",
          "name": "operator",
          "type": "address"
        },
        {
          "indexed": false,
          "internalType": "bool",
          "name": "approved",
          "type": "bool"
        }
      ],
      "name": "ApprovalForAll",
      "type": "event"
    },
    {
      "anonymous": false,
      "inputs": [
        {
          "indexed": false,
          "internalType": "uint256",
          "name": "winner",
          "type": "uint256"
        },
        {
          "indexed": false,
          "internalType": "uint256",
          "name": "loser",
          "type": "uint256"
        }
      ],
      "name": "BattleComplete",
      "type": "event"
    },
    {
      "anonymous": false,
      "inputs": [
        {
          "indexed": false,
          "internalType": "uint256",
          "name": "target",
          "type": "uint256"
        },
        {
          "indexed": false,
          "internalType": "bool",
          "name": "survived",
          "type": "bool"
        }
      ],
      "name": "Missle",
      "type": "event"
    },
    {
      "anonymous": false,
      "inputs": [
        {
          "indexed": true,
          "internalType": "address",
          "name": "previousOwner",
          "type": "address"
        },
        {
          "indexed": true,
          "internalType": "address",
          "name": "newOwner",
          "type": "address"
        }
      ],
      "name": "OwnershipTransferred",
      "type": "event"
    },
    {
      "anonymous": false,
      "inputs": [
        {
          "indexed": false,
          "internalType": "uint16",
          "name": "_srcChainId",
          "type": "uint16"
        },
        {
          "indexed": false,
          "internalType": "address",
          "name": "_from",
          "type": "address"
        },
        {
          "indexed": false,
          "internalType": "uint256",
          "name": "_tokenId",
          "type": "uint256"
        },
        {
          "indexed": false,
          "internalType": "uint256",
          "name": "counter",
          "type": "uint256"
        }
      ],
      "name": "ReceiveNFT",
      "type": "event"
    },
    {
      "anonymous": false,
      "inputs": [
        {
          "indexed": true,
          "internalType": "address",
          "name": "from",
          "type": "address"
        },
        {
          "indexed": true,
          "internalType": "address",
          "name": "to",
          "type": "address"
        },
        {
          "indexed": true,
          "internalType": "uint256",
          "name": "tokenId",
          "type": "uint256"
        }
      ],
      "name": "Transfer",
      "type": "event"
    },
    {
      "inputs": [
        {
          "internalType": "address",
          "name": "to",
          "type": "address"
        },
        {
          "internalType": "uint256",
          "name": "tokenId",
          "type": "uint256"
        }
      ],
      "name": "approve",
      "outputs": [],
      "stateMutability": "nonpayable",
      "type": "function"
    },
    {
      "inputs": [
        {
          "internalType": "address",
          "name": "owner",
          "type": "address"
        }
      ],
      "name": "balanceOf",
      "outputs": [
        {
          "internalType": "uint256",
          "name": "",
          "type": "uint256"
        }
      ],
      "stateMutability": "view",
      "type": "function"
    },
    {
      "inputs": [
        {
          "internalType": "uint256",
          "name": "attackerTokenId",
          "type": "uint256"
        },
        {
          "internalType": "uint256",
          "name": "defenderTokenId",
          "type": "uint256"
        }
      ],
      "name": "battle",
      "outputs": [
        {
          "internalType": "uint256",
          "name": "requestId",
          "type": "uint256"
        }
      ],
      "stateMutability": "nonpayable",
      "type": "function"
    },
    {
      "inputs": [
        {
          "internalType": "uint256",
          "name": "",
          "type": "uint256"
        }
      ],
      "name": "battles",
      "outputs": [
        {
          "internalType": "uint256",
          "name": "attackerTokenId",
          "type": "uint256"
        },
        {
          "internalType": "uint256",
          "name": "defenderTokenId",
          "type": "uint256"
        },
        {
          "internalType": "bool",
          "name": "battleFinished",
          "type": "bool"
        }
      ],
      "stateMutability": "view",
      "type": "function"
    },
    {
      "inputs": [
        {
          "internalType": "uint256",
          "name": "amount",
          "type": "uint256"
        },
        {
          "internalType": "uint256",
          "name": "item",
          "type": "uint256"
        },
        {
          "internalType": "uint256",
          "name": "tokenId",
          "type": "uint256"
        }
      ],
      "name": "buyStuff",
      "outputs": [],
      "stateMutability": "nonpayable",
      "type": "function"
    },
    {
      "inputs": [
        {
          "internalType": "uint256",
          "name": "tokenId",
          "type": "uint256"
        }
      ],
      "name": "claim",
      "outputs": [],
      "stateMutability": "nonpayable",
      "type": "function"
    },
    {
      "inputs": [
        {
          "internalType": "uint16",
          "name": "_dstChainId",
          "type": "uint16"
        },
        {
          "internalType": "bytes",
          "name": "_destination",
          "type": "bytes"
        },
        {
          "internalType": "uint256",
          "name": "tokenId",
          "type": "uint256"
        },
        {
          "internalType": "uint256",
          "name": "missleTarget",
          "type": "uint256"
        }
      ],
      "name": "crossChain",
      "outputs": [],
      "stateMutability": "payable",
      "type": "function"
    },
    {
      "inputs": [],
      "name": "endpoint",
      "outputs": [
        {
          "internalType": "contract ILayerZeroEndpoint",
          "name": "",
          "type": "address"
        }
      ],
      "stateMutability": "view",
      "type": "function"
    },
    {
      "inputs": [
        {
          "internalType": "uint16",
          "name": "_dstChainId",
          "type": "uint16"
        },
        {
          "internalType": "bytes",
          "name": "_destination",
          "type": "bytes"
        },
        {
          "internalType": "uint256",
          "name": "tokenId",
          "type": "uint256"
        },
        {
          "internalType": "uint256",
          "name": "missleTarget",
          "type": "uint256"
        }
      ],
      "name": "estimateBridgeFees",
      "outputs": [
        {
          "internalType": "uint256",
          "name": "",
          "type": "uint256"
        }
      ],
      "stateMutability": "view",
      "type": "function"
    },
    {
      "inputs": [
        {
          "internalType": "uint16",
          "name": "_dstChainId",
          "type": "uint16"
        },
        {
          "internalType": "address",
          "name": "_userApplication",
          "type": "address"
        },
        {
          "internalType": "bytes",
          "name": "_payload",
          "type": "bytes"
        },
        {
          "internalType": "bool",
          "name": "_payInZRO",
          "type": "bool"
        },
        {
          "internalType": "bytes",
          "name": "_adapterParams",
          "type": "bytes"
        }
      ],
      "name": "estimateFees",
      "outputs": [
        {
          "internalType": "uint256",
          "name": "nativeFee",
          "type": "uint256"
        },
        {
          "internalType": "uint256",
          "name": "zroFee",
          "type": "uint256"
        }
      ],
      "stateMutability": "view",
      "type": "function"
    },
    {
      "inputs": [
        {
          "internalType": "uint256",
          "name": "tokenId",
          "type": "uint256"
        }
      ],
      "name": "getApproved",
      "outputs": [
        {
          "internalType": "address",
          "name": "",
          "type": "address"
        }
      ],
      "stateMutability": "view",
      "type": "function"
    },
    {
      "inputs": [
        {
          "internalType": "uint256",
          "name": "_id",
          "type": "uint256"
        }
      ],
      "name": "getSpaceshipByTokenId",
      "outputs": [
        {
          "components": [
            {
              "internalType": "uint256",
              "name": "power",
              "type": "uint256"
            },
            {
              "internalType": "uint256",
              "name": "points",
              "type": "uint256"
            },
            {
              "internalType": "bool",
              "name": "staked",
              "type": "bool"
            },
            {
              "internalType": "bool",
              "name": "inBattle",
              "type": "bool"
            },
            {
              "internalType": "uint256",
              "name": "stakeStartTime",
              "type": "uint256"
            },
            {
              "internalType": "uint256",
              "name": "tokenMissiles",
              "type": "uint256"
            },
            {
              "internalType": "uint256",
              "name": "tokenShields",
              "type": "uint256"
            }
          ],
          "internalType": "struct OmniChainNFT.Spaceship",
          "name": "spaceship",
          "type": "tuple"
        }
      ],
      "stateMutability": "view",
      "type": "function"
    },
    {
      "inputs": [],
      "name": "getStakingRate",
      "outputs": [
        {
          "internalType": "uint256",
          "name": "",
          "type": "uint256"
        }
      ],
      "stateMutability": "view",
      "type": "function"
    },
    {
      "inputs": [
        {
          "internalType": "address",
          "name": "owner",
          "type": "address"
        },
        {
          "internalType": "address",
          "name": "operator",
          "type": "address"
        }
      ],
      "name": "isApprovedForAll",
      "outputs": [
        {
          "internalType": "bool",
          "name": "",
          "type": "bool"
        }
      ],
      "stateMutability": "view",
      "type": "function"
    },
    {
      "inputs": [
        {
          "internalType": "uint16",
          "name": "_srcChainId",
          "type": "uint16"
        },
        {
          "internalType": "bytes",
          "name": "_from",
          "type": "bytes"
        },
        {
          "internalType": "uint64",
          "name": "",
          "type": "uint64"
        },
        {
          "internalType": "bytes",
          "name": "_payload",
          "type": "bytes"
        }
      ],
      "name": "lzReceive",
      "outputs": [],
      "stateMutability": "nonpayable",
      "type": "function"
    },
    {
      "inputs": [
        {
          "internalType": "uint256",
          "name": "tokenId1",
          "type": "uint256"
        },
        {
          "internalType": "uint256",
          "name": "tokenId2",
          "type": "uint256"
        }
      ],
      "name": "merge",
      "outputs": [],
      "stateMutability": "nonpayable",
      "type": "function"
    },
    {
      "inputs": [],
      "name": "mint",
      "outputs": [],
      "stateMutability": "payable",
      "type": "function"
    },
    {
      "inputs": [],
      "name": "name",
      "outputs": [
        {
          "internalType": "string",
          "name": "",
          "type": "string"
        }
      ],
      "stateMutability": "view",
      "type": "function"
    },
    {
      "inputs": [],
      "name": "owner",
      "outputs": [
        {
          "internalType": "address",
          "name": "",
          "type": "address"
        }
      ],
      "stateMutability": "view",
      "type": "function"
    },
    {
      "inputs": [
        {
          "internalType": "uint256",
          "name": "tokenId",
          "type": "uint256"
        }
      ],
      "name": "ownerOf",
      "outputs": [
        {
          "internalType": "address",
          "name": "",
          "type": "address"
        }
      ],
      "stateMutability": "view",
      "type": "function"
    },
    {
      "inputs": [
        {
          "internalType": "uint256",
          "name": "requestId",
          "type": "uint256"
        },
        {
          "internalType": "uint256[]",
          "name": "randomWords",
          "type": "uint256[]"
        }
      ],
      "name": "rawFulfillRandomWords",
      "outputs": [],
      "stateMutability": "nonpayable",
      "type": "function"
    },
    {
      "inputs": [],
      "name": "renounceOwnership",
      "outputs": [],
      "stateMutability": "nonpayable",
      "type": "function"
    },
    {
      "inputs": [
        {
          "internalType": "address",
          "name": "from",
          "type": "address"
        },
        {
          "internalType": "address",
          "name": "to",
          "type": "address"
        },
        {
          "internalType": "uint256",
          "name": "tokenId",
          "type": "uint256"
        }
      ],
      "name": "safeTransferFrom",
      "outputs": [],
      "stateMutability": "nonpayable",
      "type": "function"
    },
    {
      "inputs": [
        {
          "internalType": "address",
          "name": "from",
          "type": "address"
        },
        {
          "internalType": "address",
          "name": "to",
          "type": "address"
        },
        {
          "internalType": "uint256",
          "name": "tokenId",
          "type": "uint256"
        },
        {
          "internalType": "bytes",
          "name": "data",
          "type": "bytes"
        }
      ],
      "name": "safeTransferFrom",
      "outputs": [],
      "stateMutability": "nonpayable",
      "type": "function"
    },
    {
      "inputs": [
        {
          "internalType": "address",
          "name": "operator",
          "type": "address"
        },
        {
          "internalType": "bool",
          "name": "approved",
          "type": "bool"
        }
      ],
      "name": "setApprovalForAll",
      "outputs": [],
      "stateMutability": "nonpayable",
      "type": "function"
    },
    {
      "inputs": [
        {
          "internalType": "uint256",
          "name": "",
          "type": "uint256"
        }
      ],
      "name": "spaceships",
      "outputs": [
        {
          "internalType": "uint256",
          "name": "power",
          "type": "uint256"
        },
        {
          "internalType": "uint256",
          "name": "points",
          "type": "uint256"
        },
        {
          "internalType": "bool",
          "name": "staked",
          "type": "bool"
        },
        {
          "internalType": "bool",
          "name": "inBattle",
          "type": "bool"
        },
        {
          "internalType": "uint256",
          "name": "stakeStartTime",
          "type": "uint256"
        },
        {
          "internalType": "uint256",
          "name": "tokenMissiles",
          "type": "uint256"
        },
        {
          "internalType": "uint256",
          "name": "tokenShields",
          "type": "uint256"
        }
      ],
      "stateMutability": "view",
      "type": "function"
    },
    {
      "inputs": [
        {
          "internalType": "uint256",
          "name": "tokenId",
          "type": "uint256"
        }
      ],
      "name": "stake",
      "outputs": [],
      "stateMutability": "nonpayable",
      "type": "function"
    },
    {
      "inputs": [
        {
          "internalType": "bytes4",
          "name": "interfaceId",
          "type": "bytes4"
        }
      ],
      "name": "supportsInterface",
      "outputs": [
        {
          "internalType": "bool",
          "name": "",
          "type": "bool"
        }
      ],
      "stateMutability": "view",
      "type": "function"
    },
    {
      "inputs": [],
      "name": "symbol",
      "outputs": [
        {
          "internalType": "string",
          "name": "",
          "type": "string"
        }
      ],
      "stateMutability": "view",
      "type": "function"
    },
    {
      "inputs": [
        {
          "internalType": "uint256",
          "name": "index",
          "type": "uint256"
        }
      ],
      "name": "tokenByIndex",
      "outputs": [
        {
          "internalType": "uint256",
          "name": "",
          "type": "uint256"
        }
      ],
      "stateMutability": "view",
      "type": "function"
    },
    {
      "inputs": [
        {
          "internalType": "uint256",
          "name": "",
          "type": "uint256"
        }
      ],
      "name": "tokenHasTravelled",
      "outputs": [
        {
          "internalType": "bool",
          "name": "",
          "type": "bool"
        }
      ],
      "stateMutability": "view",
      "type": "function"
    },
    {
      "inputs": [
        {
          "internalType": "address",
          "name": "owner",
          "type": "address"
        },
        {
          "internalType": "uint256",
          "name": "index",
          "type": "uint256"
        }
      ],
      "name": "tokenOfOwnerByIndex",
      "outputs": [
        {
          "internalType": "uint256",
          "name": "",
          "type": "uint256"
        }
      ],
      "stateMutability": "view",
      "type": "function"
    },
    {
      "inputs": [
        {
          "internalType": "uint256",
          "name": "_tokenId",
          "type": "uint256"
        }
      ],
      "name": "tokenURI",
      "outputs": [
        {
          "internalType": "string",
          "name": "",
          "type": "string"
        }
      ],
      "stateMutability": "view",
      "type": "function"
    },
    {
      "inputs": [],
      "name": "totalSupply",
      "outputs": [
        {
          "internalType": "uint256",
          "name": "",
          "type": "uint256"
        }
      ],
      "stateMutability": "view",
      "type": "function"
    },
    {
      "inputs": [
        {
          "internalType": "address",
          "name": "from",
          "type": "address"
        },
        {
          "internalType": "address",
          "name": "to",
          "type": "address"
        },
        {
          "internalType": "uint256",
          "name": "tokenId",
          "type": "uint256"
        }
      ],
      "name": "transferFrom",
      "outputs": [],
      "stateMutability": "nonpayable",
      "type": "function"
    },
    {
      "inputs": [
        {
          "internalType": "address",
          "name": "newOwner",
          "type": "address"
        }
      ],
      "name": "transferOwnership",
      "outputs": [],
      "stateMutability": "nonpayable",
      "type": "function"
    },
    {
      "inputs": [
        {
          "internalType": "uint256",
          "name": "tokenId",
          "type": "uint256"
        }
      ],
      "name": "unstake",
      "outputs": [],
      "stateMutability": "nonpayable",
      "type": "function"
    }
  ],
  "bytecode": "0x60a06040526000600b556000600c556064600d556000600e5562055730600f55736168499c0cffcacd319c818142124b7a15e857ab601560006101000a81548173ffffffffffffffffffffffffffffffffffffffff021916908373ffffffffffffffffffffffffffffffffffffffff1602179055507fd89b2bf150e3b9e13446986e571fb9cab24b13cea0a43ea20a6049a85cc807cc60001b60165562030d40601760006101000a81548163ffffffff021916908363ffffffff1602179055506003601760046101000a81548161ffff021916908361ffff1602179055506001601760066101000a81548163ffffffff021916908363ffffffff1602179055503480156200010c57600080fd5b5060405162006495380380620064958339818101604052810190620001329190620004fa565b601560009054906101000a900473ffffffffffffffffffffffffffffffffffffffff166040518060400160405280600c81526020017f4f6d6e69436861696e4e465400000000000000000000000000000000000000008152506040518060400160405280600981526020017f5370616365736869700000000000000000000000000000000000000000000000815250620001e1620001d56200033960201b60201c565b6200034160201b60201c565b8160019080519060200190620001f992919062000405565b5080600290805190602001906200021292919062000405565b5050508073ffffffffffffffffffffffffffffffffffffffff1660808173ffffffffffffffffffffffffffffffffffffffff1660601b8152505050846017600a6101000a81548173ffffffffffffffffffffffffffffffffffffffff021916908373ffffffffffffffffffffffffffffffffffffffff16021790555082600c819055508360108190555081600d81905550601560009054906101000a900473ffffffffffffffffffffffffffffffffffffffff16601460006101000a81548173ffffffffffffffffffffffffffffffffffffffff021916908373ffffffffffffffffffffffffffffffffffffffff160217905550806014806101000a81548167ffffffffffffffff021916908367ffffffffffffffff160217905550505050505062000681565b600033905090565b60008060009054906101000a900473ffffffffffffffffffffffffffffffffffffffff169050816000806101000a81548173ffffffffffffffffffffffffffffffffffffffff021916908373ffffffffffffffffffffffffffffffffffffffff1602179055508173ffffffffffffffffffffffffffffffffffffffff168173ffffffffffffffffffffffffffffffffffffffff167f8be0079c531659141344cd1fd0a4f28419497f9722a3daafe3b4186f6b6457e060405160405180910390a35050565b8280546200041390620005ce565b90600052602060002090601f01602090048101928262000437576000855562000483565b82601f106200045257805160ff191683800117855562000483565b8280016001018555821562000483579182015b828111156200048257825182559160200191906001019062000465565b5b50905062000492919062000496565b5090565b5b80821115620004b157600081600090555060010162000497565b5090565b600081519050620004c68162000633565b92915050565b600081519050620004dd816200064d565b92915050565b600081519050620004f48162000667565b92915050565b600080600080600060a086880312156200051357600080fd5b60006200052388828901620004b5565b95505060206200053688828901620004cc565b94505060406200054988828901620004cc565b93505060606200055c88828901620004cc565b92505060806200056f88828901620004e3565b9150509295509295909350565b6000620005898262000590565b9050919050565b600073ffffffffffffffffffffffffffffffffffffffff82169050919050565b6000819050919050565b600067ffffffffffffffff82169050919050565b60006002820490506001821680620005e757607f821691505b60208210811415620005fe57620005fd62000604565b5b50919050565b7f4e487b7100000000000000000000000000000000000000000000000000000000600052602260045260246000fd5b6200063e816200057c565b81146200064a57600080fd5b50565b6200065881620005b0565b81146200066457600080fd5b50565b6200067281620005ba565b81146200067e57600080fd5b50565b60805160601c615dee620006a76000396000818161102b015261107f0152615dee6000f3fe6080604052600436106102195760003560e01c806361ca46861161012357806395ca8acb116100ab578063b88d4fde1161006f578063b88d4fde14610819578063c87b56dd14610842578063d1c2babb1461087f578063e985e9c5146108a8578063f2fde38b146108e557610219565b806395ca8acb1461071c57806395d89b411461075f578063a22cb4651461078a578063a694fc3a146107b3578063b21243bc146107dc57610219565b8063715018a6116100f2578063715018a6146106495780638954677c146106605780638b6716c91461069d5780638cbf4d2f146106c85780638da5cb5b146106f157610219565b806361ca4686146105765780636352211e1461059257806367a66970146105cf57806370a082311461060c57610219565b80632a0c5221116101a657806340a7bb101161017557806340a7bb101461046857806342842e0e146104a65780634f6ccce7146104cf5780635e280f111461050c578063606d2e961461053757610219565b80632a0c52211461039c5780632e17de78146103d95780632f745c5914610402578063379607f51461043f57610219565b8063095ea7b3116101ed578063095ea7b3146102ec5780631249c58b1461031557806318160ddd1461031f5780631fe543e31461034a57806323b872dd1461037357610219565b80621d35671461021e57806301ffc9a71461024757806306fdde0314610284578063081812fc146102af575b600080fd5b34801561022a57600080fd5b5061024560048036038101906102409190614689565b61090e565b005b34801561025357600080fd5b5061026e60048036038101906102699190614507565b610cf3565b60405161027b9190614f05565b60405180910390f35b34801561029057600080fd5b50610299610d05565b6040516102a69190614f8e565b60405180910390f35b3480156102bb57600080fd5b506102d660048036038101906102d1919061471c565b610d97565b6040516102e39190614d97565b60405180910390f35b3480156102f857600080fd5b50610313600480360381019061030e91906144cb565b610ddd565b005b61031d610ef5565b005b34801561032b57600080fd5b5061033461101c565b604051610341919061532e565b60405180910390f35b34801561035657600080fd5b50610371600480360381019061036c919061476e565b611029565b005b34801561037f57600080fd5b5061039a600480360381019061039591906143c5565b6110e9565b005b3480156103a857600080fd5b506103c360048036038101906103be91906147c2565b611149565b6040516103d0919061532e565b60405180910390f35b3480156103e557600080fd5b5061040060048036038101906103fb919061471c565b6113c7565b005b34801561040e57600080fd5b50610429600480360381019061042491906144cb565b6114eb565b604051610436919061532e565b60405180910390f35b34801561044b57600080fd5b506104666004803603810190610461919061471c565b611590565b005b34801561047457600080fd5b5061048f600480360381019061048a9190614559565b611681565b60405161049d929190615372565b60405180910390f35b3480156104b257600080fd5b506104cd60048036038101906104c891906143c5565b61174a565b005b3480156104db57600080fd5b506104f660048036038101906104f1919061471c565b61176a565b604051610503919061532e565b60405180910390f35b34801561051857600080fd5b50610521611801565b60405161052e9190614f73565b60405180910390f35b34801561054357600080fd5b5061055e6004803603810190610559919061471c565b611827565b60405161056d9392919061539b565b60405180910390f35b610590600480360381019061058b9190614609565b61185e565b005b34801561059e57600080fd5b506105b960048036038101906105b4919061471c565b611bd1565b6040516105c69190614d97565b60405180910390f35b3480156105db57600080fd5b506105f660048036038101906105f1919061471c565b611c83565b6040516106039190615190565b60405180910390f35b34801561061857600080fd5b50610633600480360381019061062e91906142c2565b611d18565b604051610640919061532e565b60405180910390f35b34801561065557600080fd5b5061065e611dd0565b005b34801561066c57600080fd5b506106876004803603810190610682919061471c565b611de4565b6040516106949190614f05565b60405180910390f35b3480156106a957600080fd5b506106b2611e04565b6040516106bf919061532e565b60405180910390f35b3480156106d457600080fd5b506106ef60048036038101906106ea919061483a565b611e32565b005b3480156106fd57600080fd5b50610706611f9f565b6040516107139190614d97565b60405180910390f35b34801561072857600080fd5b50610743600480360381019061073e919061471c565b611fc8565b60405161075697969594939291906153d2565b60405180910390f35b34801561076b57600080fd5b50610774612024565b6040516107819190614f8e565b60405180910390f35b34801561079657600080fd5b506107b160048036038101906107ac919061448f565b6120b6565b005b3480156107bf57600080fd5b506107da60048036038101906107d5919061471c565b6120cc565b005b3480156107e857600080fd5b5061080360048036038101906107fe9190614609565b6121e8565b604051610810919061532e565b60405180910390f35b34801561082557600080fd5b50610840600480360381019061083b9190614414565b6123a8565b005b34801561084e57600080fd5b506108696004803603810190610864919061471c565b61240a565b6040516108769190614f8e565b60405180910390f35b34801561088b57600080fd5b506108a660048036038101906108a191906147c2565b612456565b005b3480156108b457600080fd5b506108cf60048036038101906108ca9190614389565b61252c565b6040516108dc9190614f05565b60405180910390f35b3480156108f157600080fd5b5061090c600480360381019061090791906142c2565b6125c0565b005b6017600a9054906101000a900473ffffffffffffffffffffffffffffffffffffffff1673ffffffffffffffffffffffffffffffffffffffff163373ffffffffffffffffffffffffffffffffffffffff161461096857600080fd5b60006014840151905060008060008060008060008880602001905181019061099091906142eb565b9650965096509650965096509650600073ffffffffffffffffffffffffffffffffffffffff168773ffffffffffffffffffffffffffffffffffffffff161415610b5b57600060116000838152602001908152602001600020600501541115610a5f576001601160008381526020019081526020016000206005016000828254610a1991906155e7565b925050819055507f14850bc661324928006b110193b269380a26be342d2e11c6145c911546127080816001604051610a52929190615349565b60405180910390a1610b56565b6008601160008381526020019081526020016000206000016000828254610a8691906155e7565b925050819055507f14850bc661324928006b110193b269380a26be342d2e11c6145c911546127080816000604051610abf929190615349565b60405180910390a16001601160008381526020019081526020016000206000015411610b5557610aee81612644565b6011600082815260200190815260200160002060008082016000905560018201600090556002820160006101000a81549060ff02191690556002820160016101000a81549060ff021916905560038201600090556004820160009055600582016000905550505b5b610ce5565b60006013600088815260200190815260200160002060009054906101000a900460ff16610bb357600a905060016013600089815260200190815260200160002060006101000a81548160ff0219169083151502179055505b610bbd8888612761565b6001600b6000828254610bd09190615506565b925050819055506040518060e001604052808781526020018287610bf49190615506565b8152602001600015158152602001600015158152602001600081526020018581526020018481525060116000898152602001908152602001600020600082015181600001556020820151816001015560408201518160020160006101000a81548160ff02191690831515021790555060608201518160020160016101000a81548160ff0219169083151502179055506080820151816003015560a0820151816004015560c082015181600501559050507fec16668a9529c4fc256054f3e18620ef50c89aec357376cce821207ff1e656f08d8989600b54604051610cdb9493929190615271565b60405180910390a1505b505050505050505050505050565b6000610cfe8261277f565b9050919050565b606060018054610d1490615762565b80601f0160208091040260200160405190810160405280929190818152602001828054610d4090615762565b8015610d8d5780601f10610d6257610100808354040283529160200191610d8d565b820191906000526020600020905b815481529060010190602001808311610d7057829003601f168201915b5050505050905090565b6000610da2826127f9565b6005600083815260200190815260200160002060009054906101000a900473ffffffffffffffffffffffffffffffffffffffff169050919050565b6000610de882611bd1565b90508073ffffffffffffffffffffffffffffffffffffffff168373ffffffffffffffffffffffffffffffffffffffff161415610e59576040517f08c379a0000000000000000000000000000000000000000000000000000000008152600401610e5090615130565b60405180910390fd5b8073ffffffffffffffffffffffffffffffffffffffff16610e78612844565b73ffffffffffffffffffffffffffffffffffffffff161480610ea75750610ea681610ea1612844565b61252c565b5b610ee6576040517f08c379a0000000000000000000000000000000000000000000000000000000008152600401610edd906150b0565b60405180910390fd5b610ef0838361284c565b505050565b600d546001600c54610f079190615506565b1115610f1257600080fd5b6001600c6000828254610f259190615506565b92505081905550610f3833600c54612761565b6040518060e0016040528060028152602001600281526020016000151581526020016000151581526020016000815260200160008152602001600081525060116000600c548152602001908152602001600020600082015181600001556020820151816001015560408201518160020160006101000a81548160ff02191690831515021790555060608201518160020160016101000a81548160ff0219169083151502179055506080820151816003015560a0820151816004015560c082015181600501559050506001600b60008282546110139190615506565b92505081905550565b6000600980549050905090565b7f000000000000000000000000000000000000000000000000000000000000000073ffffffffffffffffffffffffffffffffffffffff163373ffffffffffffffffffffffffffffffffffffffff16146110db57337f00000000000000000000000000000000000000000000000000000000000000006040517f1cf993f40000000000000000000000000000000000000000000000000000000081526004016110d2929190614db2565b60405180910390fd5b6110e58282612905565b5050565b6110fa6110f4612844565b82612b75565b611139576040517f08c379a000000000000000000000000000000000000000000000000000000000815260040161113090615170565b60405180910390fd5b611144838383612c0a565b505050565b60008261115581611bd1565b73ffffffffffffffffffffffffffffffffffffffff163373ffffffffffffffffffffffffffffffffffffffff161461118c57600080fd5b61119583612e9c565b61119e57600080fd5b6011600085815260200190815260200160002060020160019054906101000a900460ff161580156111f057506011600084815260200190815260200160002060020160019054906101000a900460ff16155b6111f957600080fd5b601460009054906101000a900473ffffffffffffffffffffffffffffffffffffffff1673ffffffffffffffffffffffffffffffffffffffff16635d3b1d3060165460148054906101000a900467ffffffffffffffff16601760049054906101000a900461ffff16601760009054906101000a900463ffffffff16601760069054906101000a900463ffffffff166040518663ffffffff1660e01b81526004016112a6959493929190614f20565b602060405180830381600087803b1580156112c057600080fd5b505af11580156112d4573d6000803e3d6000fd5b505050506040513d601f19601f820116820180604052508101906112f89190614745565b915060405180606001604052808581526020018481526020016000151581525060126000848152602001908152602001600020600082015181600001556020820151816001015560408201518160020160006101000a81548160ff02191690831515021790555090505060016011600086815260200190815260200160002060020160016101000a81548160ff02191690831515021790555060016011600085815260200190815260200160002060020160016101000a81548160ff0219169083151502179055505092915050565b806113d181611bd1565b73ffffffffffffffffffffffffffffffffffffffff163373ffffffffffffffffffffffffffffffffffffffff161461140857600080fd5b6011600083815260200190815260200160002060020160009054906101000a900460ff1661143557600080fd5b61143e82611590565b61146961146260116000858152602001908152602001600020600001546004612f08565b6005612f1e565b601160008481526020019081526020016000206000018190555060006011600084815260200190815260200160002060020160006101000a81548160ff0219169083151502179055504260116000848152602001908152602001600020600301819055506001600e60008282546114e091906155e7565b925050819055505050565b60006114f683611d18565b8210611537576040517f08c379a000000000000000000000000000000000000000000000000000000000815260040161152e90614fb0565b60405180910390fd5b600760008473ffffffffffffffffffffffffffffffffffffffff1673ffffffffffffffffffffffffffffffffffffffff168152602001908152602001600020600083815260200190815260200160002054905092915050565b8061159a81611bd1565b73ffffffffffffffffffffffffffffffffffffffff163373ffffffffffffffffffffffffffffffffffffffff16146115d157600080fd5b6011600083815260200190815260200160002060020160009054906101000a900460ff166115fe57600080fd5b600060116000848152602001908152602001600020600301544261162291906155e7565b90506116626011600085815260200190815260200160002060010154611646611e04565b6116538462015180612f08565b61165d919061558d565b612f34565b6011600085815260200190815260200160002060010181905550505050565b6000806017600a9054906101000a900473ffffffffffffffffffffffffffffffffffffffff1673ffffffffffffffffffffffffffffffffffffffff166340a7bb108a8a8a8a8a8a8a6040518863ffffffff1660e01b81526004016116eb97969594939291906151ab565b604080518083038186803b15801561170257600080fd5b505afa158015611716573d6000803e3d6000fd5b505050506040513d601f19601f8201168201806040525081019061173a91906147fe565b9150915097509795505050505050565b611765838383604051806020016040528060008152506123a8565b505050565b600061177461101c565b82106117b5576040517f08c379a00000000000000000000000000000000000000000000000000000000081526004016117ac90615150565b60405180910390fd5b600982815481106117ef577f4e487b7100000000000000000000000000000000000000000000000000000000600052603260045260246000fd5b90600052602060002001549050919050565b6017600a9054906101000a900473ffffffffffffffffffffffffffffffffffffffff1681565b60126020528060005260406000206000915090508060000154908060010154908060020160009054906101000a900460ff16905083565b8161186881611bd1565b73ffffffffffffffffffffffffffffffffffffffff163373ffffffffffffffffffffffffffffffffffffffff161461189f57600080fd5b6011600084815260200190815260200160002060020160009054906101000a900460ff16156118cd57600080fd5b6011600084815260200190815260200160002060020160019054906101000a900460ff16156118fb57600080fd5b60606000831461198c57600060116000868152602001908152602001600020600401541161192857600080fd5b600080600080600080886040516020016119489796959493929190614e27565b6040516020818303038152906040529050600160116000868152602001908152602001600020600401600082825461198091906155e7565b92505081905550611a37565b61199584612644565b6001600b60008282546119a891906155e7565b925050819055503384601160008781526020019081526020016000206000015460116000888152602001908152602001600020600101546011600089815260200190815260200160002060040154601160008a8152602001908152602001600020600501546000604051602001611a259796959493929190614e96565b60405160208183030381529060405290505b600060019050600081600f54604051602001611a54929190614d6b565b604051602081830303815290604052905060006017600a9054906101000a900473ffffffffffffffffffffffffffffffffffffffff1673ffffffffffffffffffffffffffffffffffffffff166340a7bb108b30876000876040518663ffffffff1660e01b8152600401611acb959493929190615210565b604080518083038186803b158015611ae257600080fd5b505afa158015611af6573d6000803e3d6000fd5b505050506040513d601f19601f82011682018060405250810190611b1a91906147fe565b50905080341015611b2a57600080fd5b6017600a9054906101000a900473ffffffffffffffffffffffffffffffffffffffff1673ffffffffffffffffffffffffffffffffffffffff1663c5803100348c8c8c893360008a6040518963ffffffff1660e01b8152600401611b9397969594939291906152b6565b6000604051808303818588803b158015611bac57600080fd5b505af1158015611bc0573d6000803e3d6000fd5b505050505050505050505050505050565b6000806003600084815260200190815260200160002060009054906101000a900473ffffffffffffffffffffffffffffffffffffffff169050600073ffffffffffffffffffffffffffffffffffffffff168173ffffffffffffffffffffffffffffffffffffffff161415611c7a576040517f08c379a0000000000000000000000000000000000000000000000000000000008152600401611c7190615110565b60405180910390fd5b80915050919050565b611c8b61407c565b601160008381526020019081526020016000206040518060e001604052908160008201548152602001600182015481526020016002820160009054906101000a900460ff161515151581526020016002820160019054906101000a900460ff1615151515815260200160038201548152602001600482015481526020016005820154815250509050919050565b60008073ffffffffffffffffffffffffffffffffffffffff168273ffffffffffffffffffffffffffffffffffffffff161415611d89576040517f08c379a0000000000000000000000000000000000000000000000000000000008152600401611d8090615090565b60405180910390fd5b600460008373ffffffffffffffffffffffffffffffffffffffff1673ffffffffffffffffffffffffffffffffffffffff168152602001908152602001600020549050919050565b611dd8612f4a565b611de26000612fc8565b565b60136020528060005260406000206000915054906101000a900460ff1681565b600080600e541415611e195760029050611e2f565b611e2c611e2461101c565b600e54612f08565b90505b90565b80611e3c81611bd1565b73ffffffffffffffffffffffffffffffffffffffff163373ffffffffffffffffffffffffffffffffffffffff1614611e7357600080fd5b600284611e80919061558d565b60116000848152602001908152602001600020600101541015611ea257600080fd5b60038310611eaf57600080fd5b6000831415611ef257600284611ec5919061558d565b601160008481526020019081526020016000206000016000828254611eea9190615506565b925050819055505b6001831415611f295783601160008481526020019081526020016000206004016000828254611f219190615506565b925050819055505b6002831415611f605783601160008481526020019081526020016000206005016000828254611f589190615506565b925050819055505b600284611f6d919061558d565b601160008481526020019081526020016000206001016000828254611f9291906155e7565b9250508190555050505050565b60008060009054906101000a900473ffffffffffffffffffffffffffffffffffffffff16905090565b60116020528060005260406000206000915090508060000154908060010154908060020160009054906101000a900460ff16908060020160019054906101000a900460ff16908060030154908060040154908060050154905087565b60606002805461203390615762565b80601f016020809104026020016040519081016040528092919081815260200182805461205f90615762565b80156120ac5780601f10612081576101008083540402835291602001916120ac565b820191906000526020600020905b81548152906001019060200180831161208f57829003601f168201915b5050505050905090565b6120c86120c1612844565b838361308c565b5050565b806120d681611bd1565b73ffffffffffffffffffffffffffffffffffffffff163373ffffffffffffffffffffffffffffffffffffffff161461210d57600080fd5b6011600083815260200190815260200160002060020160009054906101000a900460ff161561213b57600080fd5b61216661215f60116000858152602001908152602001600020600001546005612f08565b6004612f1e565b601160008481526020019081526020016000206000018190555060016011600084815260200190815260200160002060020160006101000a81548160ff0219169083151502179055504260116000848152602001908152602001600020600301819055506001600e60008282546121dd9190615506565b925050819055505050565b600060606000831461222a57600080600080600080886040516020016122149796959493929190614e27565b60405160208183030381529060405290506122b2565b3384601160008781526020019081526020016000206000015460116000888152602001908152602001600020600101546011600089815260200190815260200160002060040154601160008a81526020019081526020016000206005015460006040516020016122a09796959493929190614e96565b60405160208183030381529060405290505b600060019050600081600f546040516020016122cf929190614d6b565b604051602081830303815290604052905060006017600a9054906101000a900473ffffffffffffffffffffffffffffffffffffffff1673ffffffffffffffffffffffffffffffffffffffff166340a7bb108b30876000876040518663ffffffff1660e01b8152600401612346959493929190615210565b604080518083038186803b15801561235d57600080fd5b505afa158015612371573d6000803e3d6000fd5b505050506040513d601f19601f8201168201806040525081019061239591906147fe565b5090508094505050505095945050505050565b6123b96123b3612844565b83612b75565b6123f8576040517f08c379a00000000000000000000000000000000000000000000000000000000081526004016123ef90615170565b60405180910390fd5b612404848484846131f9565b50505050565b6060612414613255565b601054601160008581526020019081526020016000206000015460405160200161244093929190614d1c565b6040516020818303038152906040529050919050565b8161246081611bd1565b73ffffffffffffffffffffffffffffffffffffffff163373ffffffffffffffffffffffffffffffffffffffff161461249757600080fd5b816124a181611bd1565b73ffffffffffffffffffffffffffffffffffffffff163373ffffffffffffffffffffffffffffffffffffffff16146124d857600080fd5b60116000848152602001908152602001600020600001546011600086815260200190815260200160002060000154111561251b576125168385613275565b612526565b6125258484613275565b5b50505050565b6000600660008473ffffffffffffffffffffffffffffffffffffffff1673ffffffffffffffffffffffffffffffffffffffff16815260200190815260200160002060008373ffffffffffffffffffffffffffffffffffffffff1673ffffffffffffffffffffffffffffffffffffffff16815260200190815260200160002060009054906101000a900460ff16905092915050565b6125c8612f4a565b600073ffffffffffffffffffffffffffffffffffffffff168173ffffffffffffffffffffffffffffffffffffffff161415612638576040517f08c379a000000000000000000000000000000000000000000000000000000000815260040161262f90614ff0565b60405180910390fd5b61264181612fc8565b50565b600061264f82611bd1565b905061265d8160008461343c565b61266860008361284c565b6001600460008373ffffffffffffffffffffffffffffffffffffffff1673ffffffffffffffffffffffffffffffffffffffff16815260200190815260200160002060008282546126b891906155e7565b925050819055506003600083815260200190815260200160002060006101000a81549073ffffffffffffffffffffffffffffffffffffffff021916905581600073ffffffffffffffffffffffffffffffffffffffff168273ffffffffffffffffffffffffffffffffffffffff167fddf252ad1be2c89b69c2b068fc378daa952ba7f163c4a11628f55a4df523b3ef60405160405180910390a461275d8160008461344c565b5050565b61277b828260405180602001604052806000815250613451565b5050565b60007f780e9d63000000000000000000000000000000000000000000000000000000007bffffffffffffffffffffffffffffffffffffffffffffffffffffffff1916827bffffffffffffffffffffffffffffffffffffffffffffffffffffffff191614806127f257506127f1826134ac565b5b9050919050565b61280281612e9c565b612841576040517f08c379a000000000000000000000000000000000000000000000000000000000815260040161283890615110565b60405180910390fd5b50565b600033905090565b816005600083815260200190815260200160002060006101000a81548173ffffffffffffffffffffffffffffffffffffffff021916908373ffffffffffffffffffffffffffffffffffffffff160217905550808273ffffffffffffffffffffffffffffffffffffffff166128bf83611bd1565b73ffffffffffffffffffffffffffffffffffffffff167f8c5be1e5ebec7d5bd14f71427d1e84f3dd0314c0f7b2291e5b200ac8c7c3b92560405160405180910390a45050565b604051806060016040528060126000858152602001908152602001600020600001548152602001601260008581526020019081526020016000206001015481526020016001151581525060126000848152602001908152602001600020600082015181600001556020820151816001015560408201518160020160006101000a81548160ff02191690831515021790555090505060006129dc6129d5601160006012600088815260200190815260200160002060000154815260200190815260200160002060000154600a612f08565b600b612f1e565b905060006011600060126000878152602001908152602001600020600101548152602001908152602001600020600001549050600060018284612a1f9190615506565b612a299190615506565b84600081518110612a63577f4e487b7100000000000000000000000000000000000000000000000000000000600052603260045260246000fd5b602002602001015116905081831015612af457828111612ab857612ab36012600087815260200190815260200160002060000154601260008881526020019081526020016000206001015461358e565b612aef565b612aee6012600087815260200190815260200160002060010154601260008881526020019081526020016000206000015461358e565b5b612b6e565b818111612b3657612b316012600087815260200190815260200160002060010154601260008881526020019081526020016000206000015461358e565b612b6d565b612b6c6012600087815260200190815260200160002060000154601260008881526020019081526020016000206001015461358e565b5b5b5050505050565b600080612b8183611bd1565b90508073ffffffffffffffffffffffffffffffffffffffff168473ffffffffffffffffffffffffffffffffffffffff161480612bc35750612bc2818561252c565b5b80612c0157508373ffffffffffffffffffffffffffffffffffffffff16612be984610d97565b73ffffffffffffffffffffffffffffffffffffffff16145b91505092915050565b8273ffffffffffffffffffffffffffffffffffffffff16612c2a82611bd1565b73ffffffffffffffffffffffffffffffffffffffff1614612c80576040517f08c379a0000000000000000000000000000000000000000000000000000000008152600401612c7790615010565b60405180910390fd5b600073ffffffffffffffffffffffffffffffffffffffff168273ffffffffffffffffffffffffffffffffffffffff161415612cf0576040517f08c379a0000000000000000000000000000000000000000000000000000000008152600401612ce790615050565b60405180910390fd5b612cfb83838361343c565b6005600082815260200190815260200160002060006101000a81549073ffffffffffffffffffffffffffffffffffffffff02191690556001600460008573ffffffffffffffffffffffffffffffffffffffff1673ffffffffffffffffffffffffffffffffffffffff1681526020019081526020016000206000828254612d8191906155e7565b925050819055506001600460008473ffffffffffffffffffffffffffffffffffffffff1673ffffffffffffffffffffffffffffffffffffffff1681526020019081526020016000206000828254612dd89190615506565b92505081905550816003600083815260200190815260200160002060006101000a81548173ffffffffffffffffffffffffffffffffffffffff021916908373ffffffffffffffffffffffffffffffffffffffff160217905550808273ffffffffffffffffffffffffffffffffffffffff168473ffffffffffffffffffffffffffffffffffffffff167fddf252ad1be2c89b69c2b068fc378daa952ba7f163c4a11628f55a4df523b3ef60405160405180910390a4612e9783838361344c565b505050565b60008073ffffffffffffffffffffffffffffffffffffffff166003600084815260200190815260200160002060009054906101000a900473ffffffffffffffffffffffffffffffffffffffff1673ffffffffffffffffffffffffffffffffffffffff1614159050919050565b60008183612f16919061555c565b905092915050565b60008183612f2c919061558d565b905092915050565b60008183612f429190615506565b905092915050565b612f52612844565b73ffffffffffffffffffffffffffffffffffffffff16612f70611f9f565b73ffffffffffffffffffffffffffffffffffffffff1614612fc6576040517f08c379a0000000000000000000000000000000000000000000000000000000008152600401612fbd906150f0565b60405180910390fd5b565b60008060009054906101000a900473ffffffffffffffffffffffffffffffffffffffff169050816000806101000a81548173ffffffffffffffffffffffffffffffffffffffff021916908373ffffffffffffffffffffffffffffffffffffffff1602179055508173ffffffffffffffffffffffffffffffffffffffff168173ffffffffffffffffffffffffffffffffffffffff167f8be0079c531659141344cd1fd0a4f28419497f9722a3daafe3b4186f6b6457e060405160405180910390a35050565b8173ffffffffffffffffffffffffffffffffffffffff168373ffffffffffffffffffffffffffffffffffffffff1614156130fb576040517f08c379a00000000000000000000000000000000000000000000000000000000081526004016130f290615070565b60405180910390fd5b80600660008573ffffffffffffffffffffffffffffffffffffffff1673ffffffffffffffffffffffffffffffffffffffff16815260200190815260200160002060008473ffffffffffffffffffffffffffffffffffffffff1673ffffffffffffffffffffffffffffffffffffffff16815260200190815260200160002060006101000a81548160ff0219169083151502179055508173ffffffffffffffffffffffffffffffffffffffff168373ffffffffffffffffffffffffffffffffffffffff167f17307eab39ab6107e8899845ad3d59bd9653f200f220920489ca2b5937696c31836040516131ec9190614f05565b60405180910390a3505050565b613204848484612c0a565b613210848484846137d7565b61324f576040517f08c379a000000000000000000000000000000000000000000000000000000000815260040161324690614fd0565b60405180910390fd5b50505050565b6060604051806060016040528060278152602001615d9260279139905090565b6132bf60116000838152602001908152602001600020600001546132ba6132b360116000878152602001908152602001600020600001546005612f08565b6002612f1e565b612f34565b601160008381526020019081526020016000206000018190555061330f60116000838152602001908152602001600020600101546011600085815260200190815260200160002060010154612f34565b601160008381526020019081526020016000206001018190555061335f60116000838152602001908152602001600020600401546011600085815260200190815260200160002060040154612f34565b60116000838152602001908152602001600020600401819055506133af60116000838152602001908152602001600020600501546011600085815260200190815260200160002060040154612f34565b60116000838152602001908152602001600020600501819055506011600083815260200190815260200160002060008082016000905560018201600090556002820160006101000a81549060ff02191690556002820160016101000a81549060ff0219169055600382016000905560048201600090556005820160009055505061343882612644565b5050565b61344783838361396e565b505050565b505050565b61345b8383613a82565b61346860008484846137d7565b6134a7576040517f08c379a000000000000000000000000000000000000000000000000000000000815260040161349e90614fd0565b60405180910390fd5b505050565b60007f80ac58cd000000000000000000000000000000000000000000000000000000007bffffffffffffffffffffffffffffffffffffffffffffffffffffffff1916827bffffffffffffffffffffffffffffffffffffffffffffffffffffffff1916148061357757507f5b5e139f000000000000000000000000000000000000000000000000000000007bffffffffffffffffffffffffffffffffffffffffffffffffffffffff1916827bffffffffffffffffffffffffffffffffffffffffffffffffffffffff1916145b80613587575061358682613c5c565b5b9050919050565b6135ce60116000848152602001908152602001600020600001546135c960116000858152602001908152602001600020600001546002612f08565b612f34565b601160008481526020019081526020016000206000018190555061361e60116000848152602001908152602001600020600101546011600084815260200190815260200160002060010154612f34565b601160008481526020019081526020016000206001018190555060006011600084815260200190815260200160002060020160016101000a81548160ff0219169083151502179055506136a760116000838152602001908152602001600020600001546136a260116000858152602001908152602001600020600001546002612f08565b613cc6565b60116000838152602001908152602001600020600001819055506000601160008381526020019081526020016000206001018190555060006011600083815260200190815260200160002060020160016101000a81548160ff021916908315150217905550600160116000838152602001908152602001600020600001541161379a5761373381612644565b6011600082815260200190815260200160002060008082016000905560018201600090556002820160006101000a81549060ff02191690556002820160016101000a81549060ff021916905560038201600090556004820160009055600582016000905550505b7fe3e5de625f06c35ac95bd3ba40466651dba519a568973305d33004b4415a58f882826040516137cb929190615372565b60405180910390a15050565b60006137f88473ffffffffffffffffffffffffffffffffffffffff16613cdc565b15613961578373ffffffffffffffffffffffffffffffffffffffff1663150b7a02613821612844565b8786866040518563ffffffff1660e01b81526004016138439493929190614ddb565b602060405180830381600087803b15801561385d57600080fd5b505af192505050801561388e57506040513d601f19601f8201168201806040525081019061388b9190614530565b60015b613911573d80600081146138be576040519150601f19603f3d011682016040523d82523d6000602084013e6138c3565b606091505b50600081511415613909576040517f08c379a000000000000000000000000000000000000000000000000000000000815260040161390090614fd0565b60405180910390fd5b805181602001fd5b63150b7a0260e01b7bffffffffffffffffffffffffffffffffffffffffffffffffffffffff1916817bffffffffffffffffffffffffffffffffffffffffffffffffffffffff191614915050613966565b600190505b949350505050565b613979838383613cff565b600073ffffffffffffffffffffffffffffffffffffffff168373ffffffffffffffffffffffffffffffffffffffff1614156139bc576139b781613d04565b6139fb565b8173ffffffffffffffffffffffffffffffffffffffff168373ffffffffffffffffffffffffffffffffffffffff16146139fa576139f98382613d4d565b5b5b600073ffffffffffffffffffffffffffffffffffffffff168273ffffffffffffffffffffffffffffffffffffffff161415613a3e57613a3981613eba565b613a7d565b8273ffffffffffffffffffffffffffffffffffffffff168273ffffffffffffffffffffffffffffffffffffffff1614613a7c57613a7b8282613ffd565b5b5b505050565b600073ffffffffffffffffffffffffffffffffffffffff168273ffffffffffffffffffffffffffffffffffffffff161415613af2576040517f08c379a0000000000000000000000000000000000000000000000000000000008152600401613ae9906150d0565b60405180910390fd5b613afb81612e9c565b15613b3b576040517f08c379a0000000000000000000000000000000000000000000000000000000008152600401613b3290615030565b60405180910390fd5b613b476000838361343c565b6001600460008473ffffffffffffffffffffffffffffffffffffffff1673ffffffffffffffffffffffffffffffffffffffff1681526020019081526020016000206000828254613b979190615506565b92505081905550816003600083815260200190815260200160002060006101000a81548173ffffffffffffffffffffffffffffffffffffffff021916908373ffffffffffffffffffffffffffffffffffffffff160217905550808273ffffffffffffffffffffffffffffffffffffffff16600073ffffffffffffffffffffffffffffffffffffffff167fddf252ad1be2c89b69c2b068fc378daa952ba7f163c4a11628f55a4df523b3ef60405160405180910390a4613c586000838361344c565b5050565b60007f01ffc9a7000000000000000000000000000000000000000000000000000000007bffffffffffffffffffffffffffffffffffffffffffffffffffffffff1916827bffffffffffffffffffffffffffffffffffffffffffffffffffffffff1916149050919050565b60008183613cd491906155e7565b905092915050565b6000808273ffffffffffffffffffffffffffffffffffffffff163b119050919050565b505050565b600980549050600a600083815260200190815260200160002081905550600981908060018154018082558091505060019003906000526020600020016000909190919091505550565b60006001613d5a84611d18565b613d6491906155e7565b9050600060086000848152602001908152602001600020549050818114613e49576000600760008673ffffffffffffffffffffffffffffffffffffffff1673ffffffffffffffffffffffffffffffffffffffff168152602001908152602001600020600084815260200190815260200160002054905080600760008773ffffffffffffffffffffffffffffffffffffffff1673ffffffffffffffffffffffffffffffffffffffff168152602001908152602001600020600084815260200190815260200160002081905550816008600083815260200190815260200160002081905550505b6008600084815260200190815260200160002060009055600760008573ffffffffffffffffffffffffffffffffffffffff1673ffffffffffffffffffffffffffffffffffffffff16815260200190815260200160002060008381526020019081526020016000206000905550505050565b60006001600980549050613ece91906155e7565b90506000600a6000848152602001908152602001600020549050600060098381548110613f24577f4e487b7100000000000000000000000000000000000000000000000000000000600052603260045260246000fd5b906000526020600020015490508060098381548110613f6c577f4e487b7100000000000000000000000000000000000000000000000000000000600052603260045260246000fd5b906000526020600020018190555081600a600083815260200190815260200160002081905550600a6000858152602001908152602001600020600090556009805480613fe1577f4e487b7100000000000000000000000000000000000000000000000000000000600052603160045260246000fd5b6001900381819060005260206000200160009055905550505050565b600061400883611d18565b905081600760008573ffffffffffffffffffffffffffffffffffffffff1673ffffffffffffffffffffffffffffffffffffffff168152602001908152602001600020600083815260200190815260200160002081905550806008600084815260200190815260200160002081905550505050565b6040518060e0016040528060008152602001600081526020016000151581526020016000151581526020016000815260200160008152602001600081525090565b60006140d06140cb84615466565b615441565b905080838252602082019050828560208602820111156140ef57600080fd5b60005b8581101561411f57816141058882614283565b8452602084019350602083019250506001810190506140f2565b5050509392505050565b600061413c61413784615492565b615441565b90508281526020810184848401111561415457600080fd5b61415f848285615720565b509392505050565b60008135905061417681615cf0565b92915050565b60008151905061418b81615d07565b92915050565b600082601f8301126141a257600080fd5b81356141b28482602086016140bd565b91505092915050565b6000813590506141ca81615d1e565b92915050565b6000813590506141df81615d35565b92915050565b6000815190506141f481615d35565b92915050565b60008083601f84011261420c57600080fd5b8235905067ffffffffffffffff81111561422557600080fd5b60208301915083600182028301111561423d57600080fd5b9250929050565b600082601f83011261425557600080fd5b8135614265848260208601614129565b91505092915050565b60008135905061427d81615d4c565b92915050565b60008135905061429281615d63565b92915050565b6000815190506142a781615d63565b92915050565b6000813590506142bc81615d7a565b92915050565b6000602082840312156142d457600080fd5b60006142e284828501614167565b91505092915050565b600080600080600080600060e0888a03121561430657600080fd5b60006143148a828b0161417c565b97505060206143258a828b01614298565b96505060406143368a828b01614298565b95505060606143478a828b01614298565b94505060806143588a828b01614298565b93505060a06143698a828b01614298565b92505060c061437a8a828b01614298565b91505092959891949750929550565b6000806040838503121561439c57600080fd5b60006143aa85828601614167565b92505060206143bb85828601614167565b9150509250929050565b6000806000606084860312156143da57600080fd5b60006143e886828701614167565b93505060206143f986828701614167565b925050604061440a86828701614283565b9150509250925092565b6000806000806080858703121561442a57600080fd5b600061443887828801614167565b945050602061444987828801614167565b935050604061445a87828801614283565b925050606085013567ffffffffffffffff81111561447757600080fd5b61448387828801614244565b91505092959194509250565b600080604083850312156144a257600080fd5b60006144b085828601614167565b92505060206144c1858286016141bb565b9150509250929050565b600080604083850312156144de57600080fd5b60006144ec85828601614167565b92505060206144fd85828601614283565b9150509250929050565b60006020828403121561451957600080fd5b6000614527848285016141d0565b91505092915050565b60006020828403121561454257600080fd5b6000614550848285016141e5565b91505092915050565b600080600080600080600060a0888a03121561457457600080fd5b60006145828a828b0161426e565b97505060206145938a828b01614167565b965050604088013567ffffffffffffffff8111156145b057600080fd5b6145bc8a828b016141fa565b955095505060606145cf8a828b016141bb565b935050608088013567ffffffffffffffff8111156145ec57600080fd5b6145f88a828b016141fa565b925092505092959891949750929550565b60008060008060006080868803121561462157600080fd5b600061462f8882890161426e565b955050602086013567ffffffffffffffff81111561464c57600080fd5b614658888289016141fa565b9450945050604061466b88828901614283565b925050606061467c88828901614283565b9150509295509295909350565b6000806000806080858703121561469f57600080fd5b60006146ad8782880161426e565b945050602085013567ffffffffffffffff8111156146ca57600080fd5b6146d687828801614244565b93505060406146e7878288016142ad565b925050606085013567ffffffffffffffff81111561470457600080fd5b61471087828801614244565b91505092959194509250565b60006020828403121561472e57600080fd5b600061473c84828501614283565b91505092915050565b60006020828403121561475757600080fd5b600061476584828501614298565b91505092915050565b6000806040838503121561478157600080fd5b600061478f85828601614283565b925050602083013567ffffffffffffffff8111156147ac57600080fd5b6147b885828601614191565b9150509250929050565b600080604083850312156147d557600080fd5b60006147e385828601614283565b92505060206147f485828601614283565b9150509250929050565b6000806040838503121561481157600080fd5b600061481f85828601614298565b925050602061483085828601614298565b9150509250929050565b60008060006060848603121561484f57600080fd5b600061485d86828701614283565b935050602061486e86828701614283565b925050604061487f86828701614283565b9150509250925092565b6148928161562d565b82525050565b6148a18161561b565b82525050565b6148b08161563f565b82525050565b6148bf8161563f565b82525050565b6148ce8161564b565b82525050565b60006148e083856154d9565b93506148ed838584615720565b6148f68361589d565b840190509392505050565b600061490c826154c3565b61491681856154d9565b935061492681856020860161572f565b61492f8161589d565b840191505092915050565b614943816156ea565b82525050565b6149528161570e565b82525050565b6000614963826154ce565b61496d81856154ea565b935061497d81856020860161572f565b6149868161589d565b840191505092915050565b600061499c826154ce565b6149a681856154fb565b93506149b681856020860161572f565b80840191505092915050565b60006149cf602b836154ea565b91506149da826158bb565b604082019050919050565b60006149f26032836154ea565b91506149fd8261590a565b604082019050919050565b6000614a156026836154ea565b9150614a2082615959565b604082019050919050565b6000614a386025836154ea565b9150614a43826159a8565b604082019050919050565b6000614a5b601c836154ea565b9150614a66826159f7565b602082019050919050565b6000614a7e6024836154ea565b9150614a8982615a20565b604082019050919050565b6000614aa16019836154ea565b9150614aac82615a6f565b602082019050919050565b6000614ac46029836154ea565b9150614acf82615a98565b604082019050919050565b6000614ae7603e836154ea565b9150614af282615ae7565b604082019050919050565b6000614b0a6020836154ea565b9150614b1582615b36565b602082019050919050565b6000614b2d6007836154fb565b9150614b3882615b5f565b600782019050919050565b6000614b506020836154ea565b9150614b5b82615b88565b602082019050919050565b6000614b736018836154ea565b9150614b7e82615bb1565b602082019050919050565b6000614b966021836154ea565b9150614ba182615bda565b604082019050919050565b6000614bb96009836154fb565b9150614bc482615c29565b600982019050919050565b6000614bdc602c836154ea565b9150614be782615c52565b604082019050919050565b6000614bff602e836154ea565b9150614c0a82615ca1565b604082019050919050565b60e082016000820151614c2b6000850182614cc9565b506020820151614c3e6020850182614cc9565b506040820151614c5160408501826148a7565b506060820151614c6460608501826148a7565b506080820151614c776080850182614cc9565b5060a0820151614c8a60a0850182614cc9565b5060c0820151614c9d60c0850182614cc9565b50505050565b614cac81615681565b82525050565b614cc3614cbe82615681565b6157c5565b82525050565b614cd2816156af565b82525050565b614ce1816156af565b82525050565b614cf8614cf3826156af565b6157d7565b82525050565b614d07816156b9565b82525050565b614d16816156c9565b82525050565b6000614d288286614991565b9150614d3382614bac565b9150614d3f8285614ce7565b602082019150614d4e82614b20565b9150614d5a8284614ce7565b602082019150819050949350505050565b6000614d778285614cb2565b600282019150614d878284614ce7565b6020820191508190509392505050565b6000602082019050614dac6000830184614898565b92915050565b6000604082019050614dc76000830185614898565b614dd46020830184614898565b9392505050565b6000608082019050614df06000830187614898565b614dfd6020830186614898565b614e0a6040830185614cd8565b8181036060830152614e1c8184614901565b905095945050505050565b600060e082019050614e3c600083018a614898565b614e496020830189614949565b614e566040830188614949565b614e636060830187614949565b614e706080830186614949565b614e7d60a0830185614949565b614e8a60c0830184614cd8565b98975050505050505050565b600060e082019050614eab600083018a614898565b614eb86020830189614cd8565b614ec56040830188614cd8565b614ed26060830187614cd8565b614edf6080830186614cd8565b614eec60a0830185614cd8565b614ef960c0830184614949565b98975050505050505050565b6000602082019050614f1a60008301846148b6565b92915050565b600060a082019050614f3560008301886148c5565b614f426020830187614d0d565b614f4f6040830186614ca3565b614f5c6060830185614cfe565b614f696080830184614cfe565b9695505050505050565b6000602082019050614f88600083018461493a565b92915050565b60006020820190508181036000830152614fa88184614958565b905092915050565b60006020820190508181036000830152614fc9816149c2565b9050919050565b60006020820190508181036000830152614fe9816149e5565b9050919050565b6000602082019050818103600083015261500981614a08565b9050919050565b6000602082019050818103600083015261502981614a2b565b9050919050565b6000602082019050818103600083015261504981614a4e565b9050919050565b6000602082019050818103600083015261506981614a71565b9050919050565b6000602082019050818103600083015261508981614a94565b9050919050565b600060208201905081810360008301526150a981614ab7565b9050919050565b600060208201905081810360008301526150c981614ada565b9050919050565b600060208201905081810360008301526150e981614afd565b9050919050565b6000602082019050818103600083015261510981614b43565b9050919050565b6000602082019050818103600083015261512981614b66565b9050919050565b6000602082019050818103600083015261514981614b89565b9050919050565b6000602082019050818103600083015261516981614bcf565b9050919050565b6000602082019050818103600083015261518981614bf2565b9050919050565b600060e0820190506151a56000830184614c15565b92915050565b600060a0820190506151c0600083018a614ca3565b6151cd6020830189614898565b81810360408301526151e08187896148d4565b90506151ef60608301866148b6565b81810360808301526152028184866148d4565b905098975050505050505050565b600060a0820190506152256000830188614ca3565b6152326020830187614898565b81810360408301526152448186614901565b905061525360608301856148b6565b81810360808301526152658184614901565b90509695505050505050565b60006080820190506152866000830187614ca3565b6152936020830186614898565b6152a06040830185614cd8565b6152ad6060830184614cd8565b95945050505050565b600060c0820190506152cb600083018a614ca3565b81810360208301526152de81888a6148d4565b905081810360408301526152f28187614901565b90506153016060830186614889565b61530e6080830185614898565b81810360a08301526153208184614901565b905098975050505050505050565b60006020820190506153436000830184614cd8565b92915050565b600060408201905061535e6000830185614cd8565b61536b60208301846148b6565b9392505050565b60006040820190506153876000830185614cd8565b6153946020830184614cd8565b9392505050565b60006060820190506153b06000830186614cd8565b6153bd6020830185614cd8565b6153ca60408301846148b6565b949350505050565b600060e0820190506153e7600083018a614cd8565b6153f46020830189614cd8565b61540160408301886148b6565b61540e60608301876148b6565b61541b6080830186614cd8565b61542860a0830185614cd8565b61543560c0830184614cd8565b98975050505050505050565b600061544b61545c565b90506154578282615794565b919050565b6000604051905090565b600067ffffffffffffffff8211156154815761548061586e565b5b602082029050602081019050919050565b600067ffffffffffffffff8211156154ad576154ac61586e565b5b6154b68261589d565b9050602081019050919050565b600081519050919050565b600081519050919050565b600082825260208201905092915050565b600082825260208201905092915050565b600081905092915050565b6000615511826156af565b915061551c836156af565b9250827fffffffffffffffffffffffffffffffffffffffffffffffffffffffffffffffff03821115615551576155506157e1565b5b828201905092915050565b6000615567826156af565b9150615572836156af565b92508261558257615581615810565b5b828204905092915050565b6000615598826156af565b91506155a3836156af565b9250817fffffffffffffffffffffffffffffffffffffffffffffffffffffffffffffffff04831182151516156155dc576155db6157e1565b5b828202905092915050565b60006155f2826156af565b91506155fd836156af565b9250828210156156105761560f6157e1565b5b828203905092915050565b60006156268261568f565b9050919050565b60006156388261568f565b9050919050565b60008115159050919050565b6000819050919050565b60007fffffffff0000000000000000000000000000000000000000000000000000000082169050919050565b600061ffff82169050919050565b600073ffffffffffffffffffffffffffffffffffffffff82169050919050565b6000819050919050565b600063ffffffff82169050919050565b600067ffffffffffffffff82169050919050565b600060ff82169050919050565b60006156f5826156fc565b9050919050565b60006157078261568f565b9050919050565b6000615719826156dd565b9050919050565b82818337600083830152505050565b60005b8381101561574d578082015181840152602081019050615732565b8381111561575c576000848401525b50505050565b6000600282049050600182168061577a57607f821691505b6020821081141561578e5761578d61583f565b5b50919050565b61579d8261589d565b810181811067ffffffffffffffff821117156157bc576157bb61586e565b5b80604052505050565b60006157d0826158ae565b9050919050565b6000819050919050565b7f4e487b7100000000000000000000000000000000000000000000000000000000600052601160045260246000fd5b7f4e487b7100000000000000000000000000000000000000000000000000000000600052601260045260246000fd5b7f4e487b7100000000000000000000000000000000000000000000000000000000600052602260045260246000fd5b7f4e487b7100000000000000000000000000000000000000000000000000000000600052604160045260246000fd5b6000601f19601f8301169050919050565b60008160f01b9050919050565b7f455243373231456e756d657261626c653a206f776e657220696e646578206f7560008201527f74206f6620626f756e6473000000000000000000000000000000000000000000602082015250565b7f4552433732313a207472616e7366657220746f206e6f6e20455243373231526560008201527f63656976657220696d706c656d656e7465720000000000000000000000000000602082015250565b7f4f776e61626c653a206e6577206f776e657220697320746865207a65726f206160008201527f6464726573730000000000000000000000000000000000000000000000000000602082015250565b7f4552433732313a207472616e736665722066726f6d20696e636f72726563742060008201527f6f776e6572000000000000000000000000000000000000000000000000000000602082015250565b7f4552433732313a20746f6b656e20616c7265616479206d696e74656400000000600082015250565b7f4552433732313a207472616e7366657220746f20746865207a65726f2061646460008201527f7265737300000000000000000000000000000000000000000000000000000000602082015250565b7f4552433732313a20617070726f766520746f2063616c6c657200000000000000600082015250565b7f4552433732313a2061646472657373207a65726f206973206e6f74206120766160008201527f6c6964206f776e65720000000000000000000000000000000000000000000000602082015250565b7f4552433732313a20617070726f76652063616c6c6572206973206e6f7420746f60008201527f6b656e206f776e6572206e6f7220617070726f76656420666f7220616c6c0000602082015250565b7f4552433732313a206d696e7420746f20746865207a65726f2061646472657373600082015250565b7f26706f7765723d00000000000000000000000000000000000000000000000000600082015250565b7f4f776e61626c653a2063616c6c6572206973206e6f7420746865206f776e6572600082015250565b7f4552433732313a20696e76616c696420746f6b656e2049440000000000000000600082015250565b7f4552433732313a20617070726f76616c20746f2063757272656e74206f776e6560008201527f7200000000000000000000000000000000000000000000000000000000000000602082015250565b7f3f636861696e49643d0000000000000000000000000000000000000000000000600082015250565b7f455243373231456e756d657261626c653a20676c6f62616c20696e646578206f60008201527f7574206f6620626f756e64730000000000000000000000000000000000000000602082015250565b7f4552433732313a2063616c6c6572206973206e6f7420746f6b656e206f776e6560008201527f72206e6f7220617070726f766564000000000000000000000000000000000000602082015250565b615cf98161561b565b8114615d0457600080fd5b50565b615d108161562d565b8114615d1b57600080fd5b50565b615d278161563f565b8114615d3257600080fd5b50565b615d3e81615655565b8114615d4957600080fd5b50565b615d5581615681565b8114615d6057600080fd5b50565b615d6c816156af565b8114615d7757600080fd5b50565b615d83816156c9565b8114615d8e57600080fd5b5056fe68747470733a2f2f6e66742d666c6565742d7365727665722e6865726f6b756170702e636f6d2fa264697066735822122025b10919e37453aff7e5f56b26f21ff4a909069cf223e412b8af151b52fb570764736f6c63430008040033",
  "linkReferences": {},
  "deployedLinkReferences": {}
}