{
  "_format": "hh-sol-artifact-1",
  "contractName": "OmniChainNFT",
  "sourceName": "contracts/OmniChainNFT.sol",
  "abi": [
    {
      "inputs": [
        {
          "internalType": "address",
          "name": "_endpoint",
          "type": "address"
        },
        {
          "internalType": "uint256",
          "name": "startId",
          "type": "uint256"
        },
        {
          "internalType": "uint256",
          "name": "_max",
          "type": "uint256"
        },
        {
          "internalType": "uint64",
          "name": "subscriptionId",
          "type": "uint64"
        }
      ],
      "stateMutability": "nonpayable",
      "type": "constructor"
    },
    {
      "inputs": [
        {
          "internalType": "address",
          "name": "have",
          "type": "address"
        },
        {
          "internalType": "address",
          "name": "want",
          "type": "address"
        }
      ],
      "name": "OnlyCoordinatorCanFulfill",
      "type": "error"
    },
    {
      "anonymous": false,
      "inputs": [
        {
          "indexed": true,
          "internalType": "address",
          "name": "owner",
          "type": "address"
        },
        {
          "indexed": true,
          "internalType": "address",
          "name": "approved",
          "type": "address"
        },
        {
          "indexed": true,
          "internalType": "uint256",
          "name": "tokenId",
          "type": "uint256"
        }
      ],
      "name": "Approval",
      "type": "event"
    },
    {
      "anonymous": false,
      "inputs": [
        {
          "indexed": true,
          "internalType": "address",
          "name": "owner",
          "type": "address"
        },
        {
          "indexed": true,
          "internalType": "address",
          "name": "operator",
          "type": "address"
        },
        {
          "indexed": false,
          "internalType": "bool",
          "name": "approved",
          "type": "bool"
        }
      ],
      "name": "ApprovalForAll",
      "type": "event"
    },
    {
      "anonymous": false,
      "inputs": [
        {
          "indexed": true,
          "internalType": "address",
          "name": "previousOwner",
          "type": "address"
        },
        {
          "indexed": true,
          "internalType": "address",
          "name": "newOwner",
          "type": "address"
        }
      ],
      "name": "OwnershipTransferred",
      "type": "event"
    },
    {
      "anonymous": false,
      "inputs": [
        {
          "indexed": false,
          "internalType": "uint16",
          "name": "_srcChainId",
          "type": "uint16"
        },
        {
          "indexed": false,
          "internalType": "address",
          "name": "_from",
          "type": "address"
        },
        {
          "indexed": false,
          "internalType": "uint256",
          "name": "_tokenId",
          "type": "uint256"
        },
        {
          "indexed": false,
          "internalType": "uint256",
          "name": "counter",
          "type": "uint256"
        }
      ],
      "name": "ReceiveNFT",
      "type": "event"
    },
    {
      "anonymous": false,
      "inputs": [
        {
          "indexed": true,
          "internalType": "address",
          "name": "from",
          "type": "address"
        },
        {
          "indexed": true,
          "internalType": "address",
          "name": "to",
          "type": "address"
        },
        {
          "indexed": true,
          "internalType": "uint256",
          "name": "tokenId",
          "type": "uint256"
        }
      ],
      "name": "Transfer",
      "type": "event"
    },
    {
      "inputs": [
        {
          "internalType": "address",
          "name": "to",
          "type": "address"
        },
        {
          "internalType": "uint256",
          "name": "tokenId",
          "type": "uint256"
        }
      ],
      "name": "approve",
      "outputs": [],
      "stateMutability": "nonpayable",
      "type": "function"
    },
    {
      "inputs": [
        {
          "internalType": "address",
          "name": "owner",
          "type": "address"
        }
      ],
      "name": "balanceOf",
      "outputs": [
        {
          "internalType": "uint256",
          "name": "",
          "type": "uint256"
        }
      ],
      "stateMutability": "view",
      "type": "function"
    },
    {
      "inputs": [
        {
          "internalType": "uint256",
          "name": "attackerTokenId",
          "type": "uint256"
        },
        {
          "internalType": "uint256",
          "name": "defenderTokenId",
          "type": "uint256"
        }
      ],
      "name": "battle",
      "outputs": [
        {
          "internalType": "uint256",
          "name": "requestId",
          "type": "uint256"
        }
      ],
      "stateMutability": "nonpayable",
      "type": "function"
    },
    {
      "inputs": [
        {
          "internalType": "uint256",
          "name": "tokenId",
          "type": "uint256"
        }
      ],
      "name": "claim",
      "outputs": [],
      "stateMutability": "nonpayable",
      "type": "function"
    },
    {
      "inputs": [
        {
          "internalType": "uint16",
          "name": "_dstChainId",
          "type": "uint16"
        },
        {
          "internalType": "bytes",
          "name": "_destination",
          "type": "bytes"
        },
        {
          "internalType": "uint256",
          "name": "tokenId",
          "type": "uint256"
        }
      ],
      "name": "crossChain",
      "outputs": [],
      "stateMutability": "payable",
      "type": "function"
    },
    {
      "inputs": [],
      "name": "endpoint",
      "outputs": [
        {
          "internalType": "contract ILayerZeroEndpoint",
          "name": "",
          "type": "address"
        }
      ],
      "stateMutability": "view",
      "type": "function"
    },
    {
      "inputs": [
        {
          "internalType": "uint16",
          "name": "_dstChainId",
          "type": "uint16"
        },
        {
          "internalType": "address",
          "name": "_userApplication",
          "type": "address"
        },
        {
          "internalType": "bytes",
          "name": "_payload",
          "type": "bytes"
        },
        {
          "internalType": "bool",
          "name": "_payInZRO",
          "type": "bool"
        },
        {
          "internalType": "bytes",
          "name": "_adapterParams",
          "type": "bytes"
        }
      ],
      "name": "estimateFees",
      "outputs": [
        {
          "internalType": "uint256",
          "name": "nativeFee",
          "type": "uint256"
        },
        {
          "internalType": "uint256",
          "name": "zroFee",
          "type": "uint256"
        }
      ],
      "stateMutability": "view",
      "type": "function"
    },
    {
      "inputs": [],
      "name": "getAllSpaceships",
      "outputs": [
        {
          "internalType": "uint256[]",
          "name": "",
          "type": "uint256[]"
        }
      ],
      "stateMutability": "view",
      "type": "function"
    },
    {
      "inputs": [
        {
          "internalType": "uint256",
          "name": "tokenId",
          "type": "uint256"
        }
      ],
      "name": "getApproved",
      "outputs": [
        {
          "internalType": "address",
          "name": "",
          "type": "address"
        }
      ],
      "stateMutability": "view",
      "type": "function"
    },
    {
      "inputs": [
        {
          "internalType": "address",
          "name": "owner",
          "type": "address"
        }
      ],
      "name": "getSpaceshipsByOwner",
      "outputs": [
        {
          "internalType": "uint256[]",
          "name": "",
          "type": "uint256[]"
        }
      ],
      "stateMutability": "view",
      "type": "function"
    },
    {
      "inputs": [
        {
          "internalType": "address",
          "name": "owner",
          "type": "address"
        },
        {
          "internalType": "address",
          "name": "operator",
          "type": "address"
        }
      ],
      "name": "isApprovedForAll",
      "outputs": [
        {
          "internalType": "bool",
          "name": "",
          "type": "bool"
        }
      ],
      "stateMutability": "view",
      "type": "function"
    },
    {
      "inputs": [
        {
          "internalType": "uint16",
          "name": "_srcChainId",
          "type": "uint16"
        },
        {
          "internalType": "bytes",
          "name": "_from",
          "type": "bytes"
        },
        {
          "internalType": "uint64",
          "name": "",
          "type": "uint64"
        },
        {
          "internalType": "bytes",
          "name": "_payload",
          "type": "bytes"
        }
      ],
      "name": "lzReceive",
      "outputs": [],
      "stateMutability": "nonpayable",
      "type": "function"
    },
    {
      "inputs": [],
      "name": "mint",
      "outputs": [],
      "stateMutability": "payable",
      "type": "function"
    },
    {
      "inputs": [],
      "name": "name",
      "outputs": [
        {
          "internalType": "string",
          "name": "",
          "type": "string"
        }
      ],
      "stateMutability": "view",
      "type": "function"
    },
    {
      "inputs": [],
      "name": "owner",
      "outputs": [
        {
          "internalType": "address",
          "name": "",
          "type": "address"
        }
      ],
      "stateMutability": "view",
      "type": "function"
    },
    {
      "inputs": [
        {
          "internalType": "uint256",
          "name": "tokenId",
          "type": "uint256"
        }
      ],
      "name": "ownerOf",
      "outputs": [
        {
          "internalType": "address",
          "name": "",
          "type": "address"
        }
      ],
      "stateMutability": "view",
      "type": "function"
    },
    {
      "inputs": [
        {
          "internalType": "uint256",
          "name": "requestId",
          "type": "uint256"
        },
        {
          "internalType": "uint256[]",
          "name": "randomWords",
          "type": "uint256[]"
        }
      ],
      "name": "rawFulfillRandomWords",
      "outputs": [],
      "stateMutability": "nonpayable",
      "type": "function"
    },
    {
      "inputs": [],
      "name": "renounceOwnership",
      "outputs": [],
      "stateMutability": "nonpayable",
      "type": "function"
    },
    {
      "inputs": [
        {
          "internalType": "address",
          "name": "from",
          "type": "address"
        },
        {
          "internalType": "address",
          "name": "to",
          "type": "address"
        },
        {
          "internalType": "uint256",
          "name": "tokenId",
          "type": "uint256"
        }
      ],
      "name": "safeTransferFrom",
      "outputs": [],
      "stateMutability": "nonpayable",
      "type": "function"
    },
    {
      "inputs": [
        {
          "internalType": "address",
          "name": "from",
          "type": "address"
        },
        {
          "internalType": "address",
          "name": "to",
          "type": "address"
        },
        {
          "internalType": "uint256",
          "name": "tokenId",
          "type": "uint256"
        },
        {
          "internalType": "bytes",
          "name": "data",
          "type": "bytes"
        }
      ],
      "name": "safeTransferFrom",
      "outputs": [],
      "stateMutability": "nonpayable",
      "type": "function"
    },
    {
      "inputs": [
        {
          "internalType": "address",
          "name": "operator",
          "type": "address"
        },
        {
          "internalType": "bool",
          "name": "approved",
          "type": "bool"
        }
      ],
      "name": "setApprovalForAll",
      "outputs": [],
      "stateMutability": "nonpayable",
      "type": "function"
    },
    {
      "inputs": [
        {
          "internalType": "uint256",
          "name": "tokenId",
          "type": "uint256"
        }
      ],
      "name": "stake",
      "outputs": [],
      "stateMutability": "nonpayable",
      "type": "function"
    },
    {
      "inputs": [
        {
          "internalType": "bytes4",
          "name": "interfaceId",
          "type": "bytes4"
        }
      ],
      "name": "supportsInterface",
      "outputs": [
        {
          "internalType": "bool",
          "name": "",
          "type": "bool"
        }
      ],
      "stateMutability": "view",
      "type": "function"
    },
    {
      "inputs": [],
      "name": "symbol",
      "outputs": [
        {
          "internalType": "string",
          "name": "",
          "type": "string"
        }
      ],
      "stateMutability": "view",
      "type": "function"
    },
    {
      "inputs": [
        {
          "internalType": "uint256",
          "name": "index",
          "type": "uint256"
        }
      ],
      "name": "tokenByIndex",
      "outputs": [
        {
          "internalType": "uint256",
          "name": "",
          "type": "uint256"
        }
      ],
      "stateMutability": "view",
      "type": "function"
    },
    {
      "inputs": [
        {
          "internalType": "address",
          "name": "owner",
          "type": "address"
        },
        {
          "internalType": "uint256",
          "name": "index",
          "type": "uint256"
        }
      ],
      "name": "tokenOfOwnerByIndex",
      "outputs": [
        {
          "internalType": "uint256",
          "name": "",
          "type": "uint256"
        }
      ],
      "stateMutability": "view",
      "type": "function"
    },
    {
      "inputs": [
        {
          "internalType": "uint256",
          "name": "tokenId",
          "type": "uint256"
        }
      ],
      "name": "tokenURI",
      "outputs": [
        {
          "internalType": "string",
          "name": "",
          "type": "string"
        }
      ],
      "stateMutability": "view",
      "type": "function"
    },
    {
      "inputs": [],
      "name": "totalSupply",
      "outputs": [
        {
          "internalType": "uint256",
          "name": "",
          "type": "uint256"
        }
      ],
      "stateMutability": "view",
      "type": "function"
    },
    {
      "inputs": [
        {
          "internalType": "address",
          "name": "from",
          "type": "address"
        },
        {
          "internalType": "address",
          "name": "to",
          "type": "address"
        },
        {
          "internalType": "uint256",
          "name": "tokenId",
          "type": "uint256"
        }
      ],
      "name": "transferFrom",
      "outputs": [],
      "stateMutability": "nonpayable",
      "type": "function"
    },
    {
      "inputs": [
        {
          "internalType": "address",
          "name": "newOwner",
          "type": "address"
        }
      ],
      "name": "transferOwnership",
      "outputs": [],
      "stateMutability": "nonpayable",
      "type": "function"
    },
    {
      "inputs": [
        {
          "internalType": "uint256",
          "name": "tokenId",
          "type": "uint256"
        }
      ],
      "name": "unstake",
      "outputs": [],
      "stateMutability": "nonpayable",
      "type": "function"
    }
  ],
  "bytecode": "0x60a06040526000600b556000600c556064600d556000600e5562055730600f55736168499c0cffcacd319c818142124b7a15e857ab601760006101000a81548173ffffffffffffffffffffffffffffffffffffffff021916908373ffffffffffffffffffffffffffffffffffffffff1602179055507fd89b2bf150e3b9e13446986e571fb9cab24b13cea0a43ea20a6049a85cc807cc60001b601855619c40601960006101000a81548163ffffffff021916908363ffffffff1602179055506003601960046101000a81548161ffff021916908361ffff1602179055506001601960066101000a81548163ffffffff021916908363ffffffff1602179055503480156200010b57600080fd5b5060405162005bf738038062005bf78339818101604052810190620001319190620004f2565b601760009054906101000a900473ffffffffffffffffffffffffffffffffffffffff166040518060400160405280600c81526020017f4f6d6e69436861696e4e465400000000000000000000000000000000000000008152506040518060400160405280600781526020017f4f4f43434e465400000000000000000000000000000000000000000000000000815250620001e0620001d46200033160201b60201c565b6200033960201b60201c565b8160019080519060200190620001f8929190620003fd565b50806002908051906020019062000211929190620003fd565b5050508073ffffffffffffffffffffffffffffffffffffffff1660808173ffffffffffffffffffffffffffffffffffffffff1660601b8152505050836019600a6101000a81548173ffffffffffffffffffffffffffffffffffffffff021916908373ffffffffffffffffffffffffffffffffffffffff16021790555082600c8190555081600d81905550601760009054906101000a900473ffffffffffffffffffffffffffffffffffffffff16601660006101000a81548173ffffffffffffffffffffffffffffffffffffffff021916908373ffffffffffffffffffffffffffffffffffffffff16021790555080601660146101000a81548167ffffffffffffffff021916908367ffffffffffffffff1602179055505050505062000663565b600033905090565b60008060009054906101000a900473ffffffffffffffffffffffffffffffffffffffff169050816000806101000a81548173ffffffffffffffffffffffffffffffffffffffff021916908373ffffffffffffffffffffffffffffffffffffffff1602179055508173ffffffffffffffffffffffffffffffffffffffff168173ffffffffffffffffffffffffffffffffffffffff167f8be0079c531659141344cd1fd0a4f28419497f9722a3daafe3b4186f6b6457e060405160405180910390a35050565b8280546200040b90620005b0565b90600052602060002090601f0160209004810192826200042f57600085556200047b565b82601f106200044a57805160ff19168380011785556200047b565b828001600101855582156200047b579182015b828111156200047a5782518255916020019190600101906200045d565b5b5090506200048a91906200048e565b5090565b5b80821115620004a95760008160009055506001016200048f565b5090565b600081519050620004be8162000615565b92915050565b600081519050620004d5816200062f565b92915050565b600081519050620004ec8162000649565b92915050565b600080600080608085870312156200050957600080fd5b60006200051987828801620004ad565b94505060206200052c87828801620004c4565b93505060406200053f87828801620004c4565b92505060606200055287828801620004db565b91505092959194509250565b60006200056b8262000572565b9050919050565b600073ffffffffffffffffffffffffffffffffffffffff82169050919050565b6000819050919050565b600067ffffffffffffffff82169050919050565b60006002820490506001821680620005c957607f821691505b60208210811415620005e057620005df620005e6565b5b50919050565b7f4e487b7100000000000000000000000000000000000000000000000000000000600052602260045260246000fd5b62000620816200055e565b81146200062c57600080fd5b50565b6200063a8162000592565b81146200064657600080fd5b50565b62000654816200059c565b81146200066057600080fd5b50565b60805160601c61556e6200068960003960008181610b900152610be4015261556e6000f3fe6080604052600436106101d75760003560e01c806340a7bb101161010257806395d89b4111610095578063baf1639e11610064578063baf1639e146106bf578063c87b56dd146106db578063e985e9c514610718578063f2fde38b14610755576101d7565b806395d89b4114610619578063a22cb46514610644578063a694fc3a1461066d578063b88d4fde14610696576101d7565b80636352211e116100d15780636352211e1461055d57806370a082311461059a578063715018a6146105d75780638da5cb5b146105ee576101d7565b806340a7bb101461048e57806342842e0e146104cc5780634f6ccce7146104f55780635e280f1114610532576101d7565b80631fe543e31161017a5780632e17de78116101495780632e17de78146103c25780632f745c59146103eb5780633328303714610428578063379607f514610465576101d7565b80631fe543e31461030857806322b6de1f1461033157806323b872dd1461035c5780632a0c522114610385576101d7565b8063081812fc116101b6578063081812fc1461026d578063095ea7b3146102aa5780631249c58b146102d357806318160ddd146102dd576101d7565b80621d3567146101dc57806301ffc9a71461020557806306fdde0314610242575b600080fd5b3480156101e857600080fd5b5061020360048036038101906101fe9190613c99565b61077e565b005b34801561021157600080fd5b5061022c60048036038101906102279190613b2b565b6108a1565b60405161023991906144c0565b60405180910390f35b34801561024e57600080fd5b506102576108b3565b6040516102649190614549565b60405180910390f35b34801561027957600080fd5b50610294600480360381019061028f9190613d2c565b610945565b6040516102a191906143c9565b60405180910390f35b3480156102b657600080fd5b506102d160048036038101906102cc9190613aef565b61098b565b005b6102db610aa3565b005b3480156102e957600080fd5b506102f2610b81565b6040516102ff91906149ce565b60405180910390f35b34801561031457600080fd5b5061032f600480360381019061032a9190613d7e565b610b8e565b005b34801561033d57600080fd5b50610346610c4e565b604051610353919061449e565b60405180910390f35b34801561036857600080fd5b50610383600480360381019061037e91906139e9565b610d44565b005b34801561039157600080fd5b506103ac60048036038101906103a79190613dd2565b610da4565b6040516103b991906149ce565b60405180910390f35b3480156103ce57600080fd5b506103e960048036038101906103e49190613d2c565b6110b8565b005b3480156103f757600080fd5b50610412600480360381019061040d9190613aef565b611216565b60405161041f91906149ce565b60405180910390f35b34801561043457600080fd5b5061044f600480360381019061044a9190613921565b6112bb565b60405161045c919061449e565b60405180910390f35b34801561047157600080fd5b5061048c60048036038101906104879190613d2c565b6113b5565b005b34801561049a57600080fd5b506104b560048036038101906104b09190613b7d565b61150c565b6040516104c39291906149e9565b60405180910390f35b3480156104d857600080fd5b506104f360048036038101906104ee91906139e9565b6115d5565b005b34801561050157600080fd5b5061051c60048036038101906105179190613d2c565b6115f5565b60405161052991906149ce565b60405180910390f35b34801561053e57600080fd5b5061054761168c565b604051610554919061452e565b60405180910390f35b34801561056957600080fd5b50610584600480360381019061057f9190613d2c565b6116b2565b60405161059191906143c9565b60405180910390f35b3480156105a657600080fd5b506105c160048036038101906105bc9190613921565b611764565b6040516105ce91906149ce565b60405180910390f35b3480156105e357600080fd5b506105ec61181c565b005b3480156105fa57600080fd5b50610603611830565b60405161061091906143c9565b60405180910390f35b34801561062557600080fd5b5061062e611859565b60405161063b9190614549565b60405180910390f35b34801561065057600080fd5b5061066b60048036038101906106669190613ab3565b6118eb565b005b34801561067957600080fd5b50610694600480360381019061068f9190613d2c565b611901565b005b3480156106a257600080fd5b506106bd60048036038101906106b89190613a38565b611a78565b005b6106d960048036038101906106d49190613c2d565b611ada565b005b3480156106e757600080fd5b5061070260048036038101906106fd9190613d2c565b611df2565b60405161070f9190614549565b60405180910390f35b34801561072457600080fd5b5061073f600480360381019061073a91906139ad565b611e5a565b60405161074c91906144c0565b60405180910390f35b34801561076157600080fd5b5061077c60048036038101906107779190613921565b611eee565b005b6019600a9054906101000a900473ffffffffffffffffffffffffffffffffffffffff1673ffffffffffffffffffffffffffffffffffffffff163373ffffffffffffffffffffffffffffffffffffffff16146107d857600080fd5b600060148401519050600080600080858060200190518101906107fb919061394a565b935093509350935061080d8484611f72565b6001600b60008282546108209190614b10565b925050819055508160106000858152602001908152602001600020819055508060126000858152602001908152602001600020819055507fec16668a9529c4fc256054f3e18620ef50c89aec357376cce821207ff1e656f0898585600b5460405161088e9493929190614911565b60405180910390a1505050505050505050565b60006108ac82611f90565b9050919050565b6060600180546108c290614d4d565b80601f01602080910402602001604051908101604052809291908181526020018280546108ee90614d4d565b801561093b5780601f106109105761010080835404028352916020019161093b565b820191906000526020600020905b81548152906001019060200180831161091e57829003601f168201915b5050505050905090565b60006109508261200a565b6005600083815260200190815260200160002060009054906101000a900473ffffffffffffffffffffffffffffffffffffffff169050919050565b6000610996826116b2565b90508073ffffffffffffffffffffffffffffffffffffffff168373ffffffffffffffffffffffffffffffffffffffff161415610a07576040517f08c379a00000000000000000000000000000000000000000000000000000000081526004016109fe906147cb565b60405180910390fd5b8073ffffffffffffffffffffffffffffffffffffffff16610a26612055565b73ffffffffffffffffffffffffffffffffffffffff161480610a555750610a5481610a4f612055565b611e5a565b5b610a94576040517f08c379a0000000000000000000000000000000000000000000000000000000008152600401610a8b9061472b565b60405180910390fd5b610a9e838361205d565b505050565b600d546001600c54610ab59190614b10565b1115610af6576040517f08c379a0000000000000000000000000000000000000000000000000000000008152600401610aed9061456b565b60405180910390fd5b6001600c6000828254610b099190614b10565b92505081905550610b1c33600c54611f72565b600260106000600c54815260200190815260200160002081905550600060136000600c54815260200190815260200160002060006101000a81548160ff0219169083151502179055506001600b6000828254610b789190614b10565b92505081905550565b6000600980549050905090565b7f000000000000000000000000000000000000000000000000000000000000000073ffffffffffffffffffffffffffffffffffffffff163373ffffffffffffffffffffffffffffffffffffffff1614610c4057337f00000000000000000000000000000000000000000000000000000000000000006040517f1cf993f4000000000000000000000000000000000000000000000000000000008152600401610c379291906143e4565b60405180910390fd5b610c4a8282612116565b5050565b60606000610c5a610b81565b905060008167ffffffffffffffff811115610c9e577f4e487b7100000000000000000000000000000000000000000000000000000000600052604160045260246000fd5b604051908082528060200260200182016040528015610ccc5781602001602082028036833780820191505090505b50905060005b82811015610d3b57610ce3816115f5565b828281518110610d1c577f4e487b7100000000000000000000000000000000000000000000000000000000600052603260045260246000fd5b6020026020010181815250508080610d3390614db0565b915050610cd2565b50809250505090565b610d55610d4f612055565b826122fe565b610d94576040517f08c379a0000000000000000000000000000000000000000000000000000000008152600401610d8b9061482b565b60405180910390fd5b610d9f838383612393565b505050565b6000610daf836116b2565b73ffffffffffffffffffffffffffffffffffffffff163373ffffffffffffffffffffffffffffffffffffffff1614610e1c576040517f08c379a0000000000000000000000000000000000000000000000000000000008152600401610e139061470b565b60405180910390fd5b610e2582612625565b610e64576040517f08c379a0000000000000000000000000000000000000000000000000000000008152600401610e5b9061480b565b60405180910390fd5b6014600084815260200190815260200160002060009054906101000a900460ff16158015610eb057506014600083815260200190815260200160002060009054906101000a900460ff16155b610eef576040517f08c379a0000000000000000000000000000000000000000000000000000000008152600401610ee69061468b565b60405180910390fd5b601660009054906101000a900473ffffffffffffffffffffffffffffffffffffffff1673ffffffffffffffffffffffffffffffffffffffff16635d3b1d30601854601660149054906101000a900467ffffffffffffffff16601960049054906101000a900461ffff16601960009054906101000a900463ffffffff16601960069054906101000a900463ffffffff166040518663ffffffff1660e01b8152600401610f9e9594939291906144db565b602060405180830381600087803b158015610fb857600080fd5b505af1158015610fcc573d6000803e3d6000fd5b505050506040513d601f19601f82011682018060405250810190610ff09190613d55565b905060405180606001604052808481526020018381526020016000151581525060156000838152602001908152602001600020600082015181600001556020820151816001015560408201518160020160006101000a81548160ff02191690831515021790555090505060016014600085815260200190815260200160002060006101000a81548160ff02191690831515021790555060016014600084815260200190815260200160002060006101000a81548160ff02191690831515021790555092915050565b6110c1816116b2565b73ffffffffffffffffffffffffffffffffffffffff163373ffffffffffffffffffffffffffffffffffffffff161461112e576040517f08c379a00000000000000000000000000000000000000000000000000000000081526004016111259061470b565b60405180910390fd5b6013600082815260200190815260200160002060009054906101000a900460ff1661118e576040517f08c379a00000000000000000000000000000000000000000000000000000000081526004016111859061458b565b60405180910390fd5b60006013600083815260200190815260200160002060006101000a81548160ff0219169083151502179055506111e26111db60106000848152602001908152602001600020546004612691565b60056126a7565b60106000838152602001908152602001600020819055506001600e600082825461120c9190614bf1565b9250508190555050565b600061122183611764565b8210611262576040517f08c379a0000000000000000000000000000000000000000000000000000000008152600401611259906145cb565b60405180910390fd5b600760008473ffffffffffffffffffffffffffffffffffffffff1673ffffffffffffffffffffffffffffffffffffffff168152602001908152602001600020600083815260200190815260200160002054905092915050565b606060006112c883611764565b905060008167ffffffffffffffff81111561130c577f4e487b7100000000000000000000000000000000000000000000000000000000600052604160045260246000fd5b60405190808252806020026020018201604052801561133a5781602001602082028036833780820191505090505b50905060005b828110156113aa576113528582611216565b82828151811061138b577f4e487b7100000000000000000000000000000000000000000000000000000000600052603260045260246000fd5b60200260200101818152505080806113a290614db0565b915050611340565b508092505050919050565b6113be816116b2565b73ffffffffffffffffffffffffffffffffffffffff163373ffffffffffffffffffffffffffffffffffffffff161461142b576040517f08c379a00000000000000000000000000000000000000000000000000000000081526004016114229061470b565b60405180910390fd5b6013600082815260200190815260200160002060009054906101000a900460ff1661148b576040517f08c379a00000000000000000000000000000000000000000000000000000000081526004016114829061458b565b60405180910390fd5b60006011600083815260200190815260200160002054426114ac9190614bf1565b905060026114bd8262015180612691565b6114c79190614b97565b6012600084815260200190815260200160002060008282546114e99190614b10565b925050819055504260116000848152602001908152602001600020819055505050565b6000806019600a9054906101000a900473ffffffffffffffffffffffffffffffffffffffff1673ffffffffffffffffffffffffffffffffffffffff166340a7bb108a8a8a8a8a8a8a6040518863ffffffff1660e01b8152600401611576979695949392919061484b565b604080518083038186803b15801561158d57600080fd5b505afa1580156115a1573d6000803e3d6000fd5b505050506040513d601f19601f820116820180604052508101906115c59190613e0e565b9150915097509795505050505050565b6115f083838360405180602001604052806000815250611a78565b505050565b60006115ff610b81565b8210611640576040517f08c379a0000000000000000000000000000000000000000000000000000000008152600401611637906147eb565b60405180910390fd5b6009828154811061167a577f4e487b7100000000000000000000000000000000000000000000000000000000600052603260045260246000fd5b90600052602060002001549050919050565b6019600a9054906101000a900473ffffffffffffffffffffffffffffffffffffffff1681565b6000806003600084815260200190815260200160002060009054906101000a900473ffffffffffffffffffffffffffffffffffffffff169050600073ffffffffffffffffffffffffffffffffffffffff168173ffffffffffffffffffffffffffffffffffffffff16141561175b576040517f08c379a0000000000000000000000000000000000000000000000000000000008152600401611752906147ab565b60405180910390fd5b80915050919050565b60008073ffffffffffffffffffffffffffffffffffffffff168273ffffffffffffffffffffffffffffffffffffffff1614156117d5576040517f08c379a00000000000000000000000000000000000000000000000000000000081526004016117cc906146eb565b60405180910390fd5b600460008373ffffffffffffffffffffffffffffffffffffffff1673ffffffffffffffffffffffffffffffffffffffff168152602001908152602001600020549050919050565b6118246126bd565b61182e600061273b565b565b60008060009054906101000a900473ffffffffffffffffffffffffffffffffffffffff16905090565b60606002805461186890614d4d565b80601f016020809104026020016040519081016040528092919081815260200182805461189490614d4d565b80156118e15780601f106118b6576101008083540402835291602001916118e1565b820191906000526020600020905b8154815290600101906020018083116118c457829003601f168201915b5050505050905090565b6118fd6118f6612055565b83836127ff565b5050565b61190a816116b2565b73ffffffffffffffffffffffffffffffffffffffff163373ffffffffffffffffffffffffffffffffffffffff1614611977576040517f08c379a000000000000000000000000000000000000000000000000000000000815260040161196e9061470b565b60405180910390fd5b6013600082815260200190815260200160002060009054906101000a900460ff16156119d8576040517f08c379a00000000000000000000000000000000000000000000000000000000081526004016119cf9061476b565b60405180910390fd5b60016013600083815260200190815260200160002060006101000a81548160ff021916908315150217905550611a2c611a2560106000848152602001908152602001600020546005612691565b60046126a7565b60106000838152602001908152602001600020819055504260116000838152602001908152602001600020819055506001600e6000828254611a6e9190614b10565b9250508190555050565b611a89611a83612055565b836122fe565b611ac8576040517f08c379a0000000000000000000000000000000000000000000000000000000008152600401611abf9061482b565b60405180910390fd5b611ad48484848461296c565b50505050565b611ae3816116b2565b73ffffffffffffffffffffffffffffffffffffffff163373ffffffffffffffffffffffffffffffffffffffff1614611b50576040517f08c379a0000000000000000000000000000000000000000000000000000000008152600401611b479061470b565b60405180910390fd5b6013600082815260200190815260200160002060009054906101000a900460ff1615611bb1576040517f08c379a0000000000000000000000000000000000000000000000000000000008152600401611ba8906145ab565b60405180910390fd5b611bba816129c8565b6001600b6000828254611bcd9190614bf1565b925050819055506000338260106000858152602001908152602001600020546012600086815260200190815260200160002054604051602001611c139493929190614459565b6040516020818303038152906040529050600060019050600081600f54604051602001611c4192919061439d565b604051602081830303815290604052905060006019600a9054906101000a900473ffffffffffffffffffffffffffffffffffffffff1673ffffffffffffffffffffffffffffffffffffffff166340a7bb108930876000876040518663ffffffff1660e01b8152600401611cb89594939291906148b0565b604080518083038186803b158015611ccf57600080fd5b505afa158015611ce3573d6000803e3d6000fd5b505050506040513d601f19601f82011682018060405250810190611d079190613e0e565b50905080341015611d4d576040517f08c379a0000000000000000000000000000000000000000000000000000000008152600401611d449061464b565b60405180910390fd5b6019600a9054906101000a900473ffffffffffffffffffffffffffffffffffffffff1673ffffffffffffffffffffffffffffffffffffffff1663c5803100348a8a8a893360008a6040518963ffffffff1660e01b8152600401611db69796959493929190614956565b6000604051808303818588803b158015611dcf57600080fd5b505af1158015611de3573d6000803e3d6000fd5b50505050505050505050505050565b6060611dfd8261200a565b6000611e07612ae5565b90506000815111611e275760405180602001604052806000815250611e52565b80611e3184612afc565b604051602001611e42929190614379565b6040516020818303038152906040525b915050919050565b6000600660008473ffffffffffffffffffffffffffffffffffffffff1673ffffffffffffffffffffffffffffffffffffffff16815260200190815260200160002060008373ffffffffffffffffffffffffffffffffffffffff1673ffffffffffffffffffffffffffffffffffffffff16815260200190815260200160002060009054906101000a900460ff16905092915050565b611ef66126bd565b600073ffffffffffffffffffffffffffffffffffffffff168173ffffffffffffffffffffffffffffffffffffffff161415611f66576040517f08c379a0000000000000000000000000000000000000000000000000000000008152600401611f5d9061460b565b60405180910390fd5b611f6f8161273b565b50565b611f8c828260405180602001604052806000815250612ca9565b5050565b60007f780e9d63000000000000000000000000000000000000000000000000000000007bffffffffffffffffffffffffffffffffffffffffffffffffffffffff1916827bffffffffffffffffffffffffffffffffffffffffffffffffffffffff19161480612003575061200282612d04565b5b9050919050565b61201381612625565b612052576040517f08c379a0000000000000000000000000000000000000000000000000000000008152600401612049906147ab565b60405180910390fd5b50565b600033905090565b816005600083815260200190815260200160002060006101000a81548173ffffffffffffffffffffffffffffffffffffffff021916908373ffffffffffffffffffffffffffffffffffffffff160217905550808273ffffffffffffffffffffffffffffffffffffffff166120d0836116b2565b73ffffffffffffffffffffffffffffffffffffffff167f8c5be1e5ebec7d5bd14f71427d1e84f3dd0314c0f7b2291e5b200ac8c7c3b92560405160405180910390a45050565b6000601560008481526020019081526020016000209050604051806060016040528082600001548152602001826001015481526020016001151581525060156000858152602001908152602001600020600082015181600001556020820151816001015560408201518160020160006101000a81548160ff021916908315150217905550905050600060016010600084600101548152602001908152602001600020546010600085600001548152602001908152602001600020546121db9190614b10565b6121e59190614b10565b8360008151811061221f577f4e487b7100000000000000000000000000000000000000000000000000000000600052603260045260246000fd5b6020026020010151169050816001015482600001541015612274578160000154811161225c5761225782600001548360010154612de6565b61226f565b61226e82600101548360000154612de6565b5b6122aa565b816001015481116122965761229182600101548360000154612de6565b6122a9565b6122a882600001548360010154612de6565b5b5b601460008360000154815260200190815260200160002060006101000a81549060ff0219169055601460008360010154815260200190815260200160002060006101000a81549060ff021916905550505050565b60008061230a836116b2565b90508073ffffffffffffffffffffffffffffffffffffffff168473ffffffffffffffffffffffffffffffffffffffff16148061234c575061234b8185611e5a565b5b8061238a57508373ffffffffffffffffffffffffffffffffffffffff1661237284610945565b73ffffffffffffffffffffffffffffffffffffffff16145b91505092915050565b8273ffffffffffffffffffffffffffffffffffffffff166123b3826116b2565b73ffffffffffffffffffffffffffffffffffffffff1614612409576040517f08c379a00000000000000000000000000000000000000000000000000000000081526004016124009061462b565b60405180910390fd5b600073ffffffffffffffffffffffffffffffffffffffff168273ffffffffffffffffffffffffffffffffffffffff161415612479576040517f08c379a0000000000000000000000000000000000000000000000000000000008152600401612470906146ab565b60405180910390fd5b612484838383612e78565b6005600082815260200190815260200160002060006101000a81549073ffffffffffffffffffffffffffffffffffffffff02191690556001600460008573ffffffffffffffffffffffffffffffffffffffff1673ffffffffffffffffffffffffffffffffffffffff168152602001908152602001600020600082825461250a9190614bf1565b925050819055506001600460008473ffffffffffffffffffffffffffffffffffffffff1673ffffffffffffffffffffffffffffffffffffffff16815260200190815260200160002060008282546125619190614b10565b92505081905550816003600083815260200190815260200160002060006101000a81548173ffffffffffffffffffffffffffffffffffffffff021916908373ffffffffffffffffffffffffffffffffffffffff160217905550808273ffffffffffffffffffffffffffffffffffffffff168473ffffffffffffffffffffffffffffffffffffffff167fddf252ad1be2c89b69c2b068fc378daa952ba7f163c4a11628f55a4df523b3ef60405160405180910390a4612620838383612e88565b505050565b60008073ffffffffffffffffffffffffffffffffffffffff166003600084815260200190815260200160002060009054906101000a900473ffffffffffffffffffffffffffffffffffffffff1673ffffffffffffffffffffffffffffffffffffffff1614159050919050565b6000818361269f9190614b66565b905092915050565b600081836126b59190614b97565b905092915050565b6126c5612055565b73ffffffffffffffffffffffffffffffffffffffff166126e3611830565b73ffffffffffffffffffffffffffffffffffffffff1614612739576040517f08c379a00000000000000000000000000000000000000000000000000000000081526004016127309061478b565b60405180910390fd5b565b60008060009054906101000a900473ffffffffffffffffffffffffffffffffffffffff169050816000806101000a81548173ffffffffffffffffffffffffffffffffffffffff021916908373ffffffffffffffffffffffffffffffffffffffff1602179055508173ffffffffffffffffffffffffffffffffffffffff168173ffffffffffffffffffffffffffffffffffffffff167f8be0079c531659141344cd1fd0a4f28419497f9722a3daafe3b4186f6b6457e060405160405180910390a35050565b8173ffffffffffffffffffffffffffffffffffffffff168373ffffffffffffffffffffffffffffffffffffffff16141561286e576040517f08c379a0000000000000000000000000000000000000000000000000000000008152600401612865906146cb565b60405180910390fd5b80600660008573ffffffffffffffffffffffffffffffffffffffff1673ffffffffffffffffffffffffffffffffffffffff16815260200190815260200160002060008473ffffffffffffffffffffffffffffffffffffffff1673ffffffffffffffffffffffffffffffffffffffff16815260200190815260200160002060006101000a81548160ff0219169083151502179055508173ffffffffffffffffffffffffffffffffffffffff168373ffffffffffffffffffffffffffffffffffffffff167f17307eab39ab6107e8899845ad3d59bd9653f200f220920489ca2b5937696c318360405161295f91906144c0565b60405180910390a3505050565b612977848484612393565b61298384848484612e8d565b6129c2576040517f08c379a00000000000000000000000000000000000000000000000000000000081526004016129b9906145eb565b60405180910390fd5b50505050565b60006129d3826116b2565b90506129e181600084612e78565b6129ec60008361205d565b6001600460008373ffffffffffffffffffffffffffffffffffffffff1673ffffffffffffffffffffffffffffffffffffffff1681526020019081526020016000206000828254612a3c9190614bf1565b925050819055506003600083815260200190815260200160002060006101000a81549073ffffffffffffffffffffffffffffffffffffffff021916905581600073ffffffffffffffffffffffffffffffffffffffff168273ffffffffffffffffffffffffffffffffffffffff167fddf252ad1be2c89b69c2b068fc378daa952ba7f163c4a11628f55a4df523b3ef60405160405180910390a4612ae181600084612e88565b5050565b606060405180602001604052806000815250905090565b60606000821415612b44576040518060400160405280600181526020017f30000000000000000000000000000000000000000000000000000000000000008152509050612ca4565b600082905060005b60008214612b76578080612b5f90614db0565b915050600a82612b6f9190614b66565b9150612b4c565b60008167ffffffffffffffff811115612bb8577f4e487b7100000000000000000000000000000000000000000000000000000000600052604160045260246000fd5b6040519080825280601f01601f191660200182016040528015612bea5781602001600182028036833780820191505090505b5090505b60008514612c9d57600182612c039190614bf1565b9150600a85612c129190614e15565b6030612c1e9190614b10565b60f81b818381518110612c5a577f4e487b7100000000000000000000000000000000000000000000000000000000600052603260045260246000fd5b60200101907effffffffffffffffffffffffffffffffffffffffffffffffffffffffffffff1916908160001a905350600a85612c969190614b66565b9450612bee565b8093505050505b919050565b612cb38383613024565b612cc06000848484612e8d565b612cff576040517f08c379a0000000000000000000000000000000000000000000000000000000008152600401612cf6906145eb565b60405180910390fd5b505050565b60007f80ac58cd000000000000000000000000000000000000000000000000000000007bffffffffffffffffffffffffffffffffffffffffffffffffffffffff1916827bffffffffffffffffffffffffffffffffffffffffffffffffffffffff19161480612dcf57507f5b5e139f000000000000000000000000000000000000000000000000000000007bffffffffffffffffffffffffffffffffffffffffffffffffffffffff1916827bffffffffffffffffffffffffffffffffffffffffffffffffffffffff1916145b80612ddf5750612dde826131fe565b5b9050919050565b612e0460106000838152602001908152602001600020546002612691565b601060008481526020019081526020016000206000828254612e269190614b10565b92505081905550612e4b60106000838152602001908152602001600020546002612691565b601060008381526020019081526020016000206000828254612e6d9190614bf1565b925050819055505050565b612e83838383613268565b505050565b505050565b6000612eae8473ffffffffffffffffffffffffffffffffffffffff1661337c565b15613017578373ffffffffffffffffffffffffffffffffffffffff1663150b7a02612ed7612055565b8786866040518563ffffffff1660e01b8152600401612ef9949392919061440d565b602060405180830381600087803b158015612f1357600080fd5b505af1925050508015612f4457506040513d601f19601f82011682018060405250810190612f419190613b54565b60015b612fc7573d8060008114612f74576040519150601f19603f3d011682016040523d82523d6000602084013e612f79565b606091505b50600081511415612fbf576040517f08c379a0000000000000000000000000000000000000000000000000000000008152600401612fb6906145eb565b60405180910390fd5b805181602001fd5b63150b7a0260e01b7bffffffffffffffffffffffffffffffffffffffffffffffffffffffff1916817bffffffffffffffffffffffffffffffffffffffffffffffffffffffff19161491505061301c565b600190505b949350505050565b600073ffffffffffffffffffffffffffffffffffffffff168273ffffffffffffffffffffffffffffffffffffffff161415613094576040517f08c379a000000000000000000000000000000000000000000000000000000000815260040161308b9061474b565b60405180910390fd5b61309d81612625565b156130dd576040517f08c379a00000000000000000000000000000000000000000000000000000000081526004016130d49061466b565b60405180910390fd5b6130e960008383612e78565b6001600460008473ffffffffffffffffffffffffffffffffffffffff1673ffffffffffffffffffffffffffffffffffffffff16815260200190815260200160002060008282546131399190614b10565b92505081905550816003600083815260200190815260200160002060006101000a81548173ffffffffffffffffffffffffffffffffffffffff021916908373ffffffffffffffffffffffffffffffffffffffff160217905550808273ffffffffffffffffffffffffffffffffffffffff16600073ffffffffffffffffffffffffffffffffffffffff167fddf252ad1be2c89b69c2b068fc378daa952ba7f163c4a11628f55a4df523b3ef60405160405180910390a46131fa60008383612e88565b5050565b60007f01ffc9a7000000000000000000000000000000000000000000000000000000007bffffffffffffffffffffffffffffffffffffffffffffffffffffffff1916827bffffffffffffffffffffffffffffffffffffffffffffffffffffffff1916149050919050565b61327383838361339f565b600073ffffffffffffffffffffffffffffffffffffffff168373ffffffffffffffffffffffffffffffffffffffff1614156132b6576132b1816133a4565b6132f5565b8173ffffffffffffffffffffffffffffffffffffffff168373ffffffffffffffffffffffffffffffffffffffff16146132f4576132f383826133ed565b5b5b600073ffffffffffffffffffffffffffffffffffffffff168273ffffffffffffffffffffffffffffffffffffffff161415613338576133338161355a565b613377565b8273ffffffffffffffffffffffffffffffffffffffff168273ffffffffffffffffffffffffffffffffffffffff161461337657613375828261369d565b5b5b505050565b6000808273ffffffffffffffffffffffffffffffffffffffff163b119050919050565b505050565b600980549050600a600083815260200190815260200160002081905550600981908060018154018082558091505060019003906000526020600020016000909190919091505550565b600060016133fa84611764565b6134049190614bf1565b90506000600860008481526020019081526020016000205490508181146134e9576000600760008673ffffffffffffffffffffffffffffffffffffffff1673ffffffffffffffffffffffffffffffffffffffff168152602001908152602001600020600084815260200190815260200160002054905080600760008773ffffffffffffffffffffffffffffffffffffffff1673ffffffffffffffffffffffffffffffffffffffff168152602001908152602001600020600084815260200190815260200160002081905550816008600083815260200190815260200160002081905550505b6008600084815260200190815260200160002060009055600760008573ffffffffffffffffffffffffffffffffffffffff1673ffffffffffffffffffffffffffffffffffffffff16815260200190815260200160002060008381526020019081526020016000206000905550505050565b6000600160098054905061356e9190614bf1565b90506000600a60008481526020019081526020016000205490506000600983815481106135c4577f4e487b7100000000000000000000000000000000000000000000000000000000600052603260045260246000fd5b90600052602060002001549050806009838154811061360c577f4e487b7100000000000000000000000000000000000000000000000000000000600052603260045260246000fd5b906000526020600020018190555081600a600083815260200190815260200160002081905550600a6000858152602001908152602001600020600090556009805480613681577f4e487b7100000000000000000000000000000000000000000000000000000000600052603160045260246000fd5b6001900381819060005260206000200160009055905550505050565b60006136a883611764565b905081600760008573ffffffffffffffffffffffffffffffffffffffff1673ffffffffffffffffffffffffffffffffffffffff168152602001908152602001600020600083815260200190815260200160002081905550806008600084815260200190815260200160002081905550505050565b600061372f61372a84614a37565b614a12565b9050808382526020820190508285602086028201111561374e57600080fd5b60005b8581101561377e578161376488826138e2565b845260208401935060208301925050600181019050613751565b5050509392505050565b600061379b61379684614a63565b614a12565b9050828152602081018484840111156137b357600080fd5b6137be848285614d0b565b509392505050565b6000813590506137d581615497565b92915050565b6000815190506137ea816154ae565b92915050565b600082601f83011261380157600080fd5b813561381184826020860161371c565b91505092915050565b600081359050613829816154c5565b92915050565b60008135905061383e816154dc565b92915050565b600081519050613853816154dc565b92915050565b60008083601f84011261386b57600080fd5b8235905067ffffffffffffffff81111561388457600080fd5b60208301915083600182028301111561389c57600080fd5b9250929050565b600082601f8301126138b457600080fd5b81356138c4848260208601613788565b91505092915050565b6000813590506138dc816154f3565b92915050565b6000813590506138f18161550a565b92915050565b6000815190506139068161550a565b92915050565b60008135905061391b81615521565b92915050565b60006020828403121561393357600080fd5b6000613941848285016137c6565b91505092915050565b6000806000806080858703121561396057600080fd5b600061396e878288016137db565b945050602061397f878288016138f7565b9350506040613990878288016138f7565b92505060606139a1878288016138f7565b91505092959194509250565b600080604083850312156139c057600080fd5b60006139ce858286016137c6565b92505060206139df858286016137c6565b9150509250929050565b6000806000606084860312156139fe57600080fd5b6000613a0c868287016137c6565b9350506020613a1d868287016137c6565b9250506040613a2e868287016138e2565b9150509250925092565b60008060008060808587031215613a4e57600080fd5b6000613a5c878288016137c6565b9450506020613a6d878288016137c6565b9350506040613a7e878288016138e2565b925050606085013567ffffffffffffffff811115613a9b57600080fd5b613aa7878288016138a3565b91505092959194509250565b60008060408385031215613ac657600080fd5b6000613ad4858286016137c6565b9250506020613ae58582860161381a565b9150509250929050565b60008060408385031215613b0257600080fd5b6000613b10858286016137c6565b9250506020613b21858286016138e2565b9150509250929050565b600060208284031215613b3d57600080fd5b6000613b4b8482850161382f565b91505092915050565b600060208284031215613b6657600080fd5b6000613b7484828501613844565b91505092915050565b600080600080600080600060a0888a031215613b9857600080fd5b6000613ba68a828b016138cd565b9750506020613bb78a828b016137c6565b965050604088013567ffffffffffffffff811115613bd457600080fd5b613be08a828b01613859565b95509550506060613bf38a828b0161381a565b935050608088013567ffffffffffffffff811115613c1057600080fd5b613c1c8a828b01613859565b925092505092959891949750929550565b60008060008060608587031215613c4357600080fd5b6000613c51878288016138cd565b945050602085013567ffffffffffffffff811115613c6e57600080fd5b613c7a87828801613859565b93509350506040613c8d878288016138e2565b91505092959194509250565b60008060008060808587031215613caf57600080fd5b6000613cbd878288016138cd565b945050602085013567ffffffffffffffff811115613cda57600080fd5b613ce6878288016138a3565b9350506040613cf78782880161390c565b925050606085013567ffffffffffffffff811115613d1457600080fd5b613d20878288016138a3565b91505092959194509250565b600060208284031215613d3e57600080fd5b6000613d4c848285016138e2565b91505092915050565b600060208284031215613d6757600080fd5b6000613d75848285016138f7565b91505092915050565b60008060408385031215613d9157600080fd5b6000613d9f858286016138e2565b925050602083013567ffffffffffffffff811115613dbc57600080fd5b613dc8858286016137f0565b9150509250929050565b60008060408385031215613de557600080fd5b6000613df3858286016138e2565b9250506020613e04858286016138e2565b9150509250929050565b60008060408385031215613e2157600080fd5b6000613e2f858286016138f7565b9250506020613e40858286016138f7565b9150509250929050565b6000613e568383614326565b60208301905092915050565b613e6b81614c37565b82525050565b613e7a81614c25565b82525050565b6000613e8b82614aa4565b613e958185614ad2565b9350613ea083614a94565b8060005b83811015613ed1578151613eb88882613e4a565b9750613ec383614ac5565b925050600181019050613ea4565b5085935050505092915050565b613ee781614c49565b82525050565b613ef681614c55565b82525050565b6000613f088385614ae3565b9350613f15838584614d0b565b613f1e83614f02565b840190509392505050565b6000613f3482614aaf565b613f3e8185614ae3565b9350613f4e818560208601614d1a565b613f5781614f02565b840191505092915050565b613f6b81614ce7565b82525050565b6000613f7c82614aba565b613f868185614af4565b9350613f96818560208601614d1a565b613f9f81614f02565b840191505092915050565b6000613fb582614aba565b613fbf8185614b05565b9350613fcf818560208601614d1a565b80840191505092915050565b6000613fe8600e83614af4565b9150613ff382614f20565b602082019050919050565b600061400b600a83614af4565b915061401682614f49565b602082019050919050565b600061402e601683614af4565b915061403982614f72565b602082019050919050565b6000614051602b83614af4565b915061405c82614f9b565b604082019050919050565b6000614074603283614af4565b915061407f82614fea565b604082019050919050565b6000614097602683614af4565b91506140a282615039565b604082019050919050565b60006140ba602583614af4565b91506140c582615088565b604082019050919050565b60006140dd602a83614af4565b91506140e8826150d7565b604082019050919050565b6000614100601c83614af4565b915061410b82615126565b602082019050919050565b6000614123602883614af4565b915061412e8261514f565b604082019050919050565b6000614146602483614af4565b91506141518261519e565b604082019050919050565b6000614169601983614af4565b9150614174826151ed565b602082019050919050565b600061418c602983614af4565b915061419782615216565b604082019050919050565b60006141af600d83614af4565b91506141ba82615265565b602082019050919050565b60006141d2603e83614af4565b91506141dd8261528e565b604082019050919050565b60006141f5602083614af4565b9150614200826152dd565b602082019050919050565b6000614218600e83614af4565b915061422382615306565b602082019050919050565b600061423b602083614af4565b91506142468261532f565b602082019050919050565b600061425e601883614af4565b915061426982615358565b602082019050919050565b6000614281602183614af4565b915061428c82615381565b604082019050919050565b60006142a4602c83614af4565b91506142af826153d0565b604082019050919050565b60006142c7601783614af4565b91506142d28261541f565b602082019050919050565b60006142ea602e83614af4565b91506142f582615448565b604082019050919050565b61430981614c8b565b82525050565b61432061431b82614c8b565b614df9565b82525050565b61432f81614cb9565b82525050565b61433e81614cb9565b82525050565b61435561435082614cb9565b614e0b565b82525050565b61436481614cc3565b82525050565b61437381614cd3565b82525050565b60006143858285613faa565b91506143918284613faa565b91508190509392505050565b60006143a9828561430f565b6002820191506143b98284614344565b6020820191508190509392505050565b60006020820190506143de6000830184613e71565b92915050565b60006040820190506143f96000830185613e71565b6144066020830184613e71565b9392505050565b60006080820190506144226000830187613e71565b61442f6020830186613e71565b61443c6040830185614335565b818103606083015261444e8184613f29565b905095945050505050565b600060808201905061446e6000830187613e71565b61447b6020830186614335565b6144886040830185614335565b6144956060830184614335565b95945050505050565b600060208201905081810360008301526144b88184613e80565b905092915050565b60006020820190506144d56000830184613ede565b92915050565b600060a0820190506144f06000830188613eed565b6144fd602083018761436a565b61450a6040830186614300565b614517606083018561435b565b614524608083018461435b565b9695505050505050565b60006020820190506145436000830184613f62565b92915050565b600060208201905081810360008301526145638184613f71565b905092915050565b6000602082019050818103600083015261458481613fdb565b9050919050565b600060208201905081810360008301526145a481613ffe565b9050919050565b600060208201905081810360008301526145c481614021565b9050919050565b600060208201905081810360008301526145e481614044565b9050919050565b6000602082019050818103600083015261460481614067565b9050919050565b600060208201905081810360008301526146248161408a565b9050919050565b60006020820190508181036000830152614644816140ad565b9050919050565b60006020820190508181036000830152614664816140d0565b9050919050565b60006020820190508181036000830152614684816140f3565b9050919050565b600060208201905081810360008301526146a481614116565b9050919050565b600060208201905081810360008301526146c481614139565b9050919050565b600060208201905081810360008301526146e48161415c565b9050919050565b600060208201905081810360008301526147048161417f565b9050919050565b60006020820190508181036000830152614724816141a2565b9050919050565b60006020820190508181036000830152614744816141c5565b9050919050565b60006020820190508181036000830152614764816141e8565b9050919050565b600060208201905081810360008301526147848161420b565b9050919050565b600060208201905081810360008301526147a48161422e565b9050919050565b600060208201905081810360008301526147c481614251565b9050919050565b600060208201905081810360008301526147e481614274565b9050919050565b6000602082019050818103600083015261480481614297565b9050919050565b60006020820190508181036000830152614824816142ba565b9050919050565b60006020820190508181036000830152614844816142dd565b9050919050565b600060a082019050614860600083018a614300565b61486d6020830189613e71565b8181036040830152614880818789613efc565b905061488f6060830186613ede565b81810360808301526148a2818486613efc565b905098975050505050505050565b600060a0820190506148c56000830188614300565b6148d26020830187613e71565b81810360408301526148e48186613f29565b90506148f36060830185613ede565b81810360808301526149058184613f29565b90509695505050505050565b60006080820190506149266000830187614300565b6149336020830186613e71565b6149406040830185614335565b61494d6060830184614335565b95945050505050565b600060c08201905061496b600083018a614300565b818103602083015261497e81888a613efc565b905081810360408301526149928187613f29565b90506149a16060830186613e62565b6149ae6080830185613e71565b81810360a08301526149c08184613f29565b905098975050505050505050565b60006020820190506149e36000830184614335565b92915050565b60006040820190506149fe6000830185614335565b614a0b6020830184614335565b9392505050565b6000614a1c614a2d565b9050614a288282614d7f565b919050565b6000604051905090565b600067ffffffffffffffff821115614a5257614a51614ed3565b5b602082029050602081019050919050565b600067ffffffffffffffff821115614a7e57614a7d614ed3565b5b614a8782614f02565b9050602081019050919050565b6000819050602082019050919050565b600081519050919050565b600081519050919050565b600081519050919050565b6000602082019050919050565b600082825260208201905092915050565b600082825260208201905092915050565b600082825260208201905092915050565b600081905092915050565b6000614b1b82614cb9565b9150614b2683614cb9565b9250827fffffffffffffffffffffffffffffffffffffffffffffffffffffffffffffffff03821115614b5b57614b5a614e46565b5b828201905092915050565b6000614b7182614cb9565b9150614b7c83614cb9565b925082614b8c57614b8b614e75565b5b828204905092915050565b6000614ba282614cb9565b9150614bad83614cb9565b9250817fffffffffffffffffffffffffffffffffffffffffffffffffffffffffffffffff0483118215151615614be657614be5614e46565b5b828202905092915050565b6000614bfc82614cb9565b9150614c0783614cb9565b925082821015614c1a57614c19614e46565b5b828203905092915050565b6000614c3082614c99565b9050919050565b6000614c4282614c99565b9050919050565b60008115159050919050565b6000819050919050565b60007fffffffff0000000000000000000000000000000000000000000000000000000082169050919050565b600061ffff82169050919050565b600073ffffffffffffffffffffffffffffffffffffffff82169050919050565b6000819050919050565b600063ffffffff82169050919050565b600067ffffffffffffffff82169050919050565b6000614cf282614cf9565b9050919050565b6000614d0482614c99565b9050919050565b82818337600083830152505050565b60005b83811015614d38578082015181840152602081019050614d1d565b83811115614d47576000848401525b50505050565b60006002820490506001821680614d6557607f821691505b60208210811415614d7957614d78614ea4565b5b50919050565b614d8882614f02565b810181811067ffffffffffffffff82111715614da757614da6614ed3565b5b80604052505050565b6000614dbb82614cb9565b91507fffffffffffffffffffffffffffffffffffffffffffffffffffffffffffffffff821415614dee57614ded614e46565b5b600182019050919050565b6000614e0482614f13565b9050919050565b6000819050919050565b6000614e2082614cb9565b9150614e2b83614cb9565b925082614e3b57614e3a614e75565b5b828206905092915050565b7f4e487b7100000000000000000000000000000000000000000000000000000000600052601160045260246000fd5b7f4e487b7100000000000000000000000000000000000000000000000000000000600052601260045260246000fd5b7f4e487b7100000000000000000000000000000000000000000000000000000000600052602260045260246000fd5b7f4e487b7100000000000000000000000000000000000000000000000000000000600052604160045260246000fd5b6000601f19601f8301169050919050565b60008160f01b9050919050565b7f4578636565647320737570706c79000000000000000000000000000000000000600082015250565b7f4e6f74207374616b656400000000000000000000000000000000000000000000600082015250565b7f546f6b656e2063616e6e6f74206265207374616b656400000000000000000000600082015250565b7f455243373231456e756d657261626c653a206f776e657220696e646578206f7560008201527f74206f6620626f756e6473000000000000000000000000000000000000000000602082015250565b7f4552433732313a207472616e7366657220746f206e6f6e20455243373231526560008201527f63656976657220696d706c656d656e7465720000000000000000000000000000602082015250565b7f4f776e61626c653a206e6577206f776e657220697320746865207a65726f206160008201527f6464726573730000000000000000000000000000000000000000000000000000602082015250565b7f4552433732313a207472616e736665722066726f6d20696e636f72726563742060008201527f6f776e6572000000000000000000000000000000000000000000000000000000602082015250565b7f4d7573742073656e6420656e6f7567682076616c756520746f20636f7665722060008201527f6d65737361676546656500000000000000000000000000000000000000000000602082015250565b7f4552433732313a20746f6b656e20616c7265616479206d696e74656400000000600082015250565b7f41747461636b6572204f7220646566656e6465722063616e6e6f74206265206960008201527f6e20626174746c65000000000000000000000000000000000000000000000000602082015250565b7f4552433732313a207472616e7366657220746f20746865207a65726f2061646460008201527f7265737300000000000000000000000000000000000000000000000000000000602082015250565b7f4552433732313a20617070726f766520746f2063616c6c657200000000000000600082015250565b7f4552433732313a2061646472657373207a65726f206973206e6f74206120766160008201527f6c6964206f776e65720000000000000000000000000000000000000000000000602082015250565b7f4e6f7420746865206f776e657200000000000000000000000000000000000000600082015250565b7f4552433732313a20617070726f76652063616c6c6572206973206e6f7420746f60008201527f6b656e206f776e6572206e6f7220617070726f76656420666f7220616c6c0000602082015250565b7f4552433732313a206d696e7420746f20746865207a65726f2061646472657373600082015250565b7f416c7265616479207374616b6564000000000000000000000000000000000000600082015250565b7f4f776e61626c653a2063616c6c6572206973206e6f7420746865206f776e6572600082015250565b7f4552433732313a20696e76616c696420746f6b656e2049440000000000000000600082015250565b7f4552433732313a20617070726f76616c20746f2063757272656e74206f776e6560008201527f7200000000000000000000000000000000000000000000000000000000000000602082015250565b7f455243373231456e756d657261626c653a20676c6f62616c20696e646578206f60008201527f7574206f6620626f756e64730000000000000000000000000000000000000000602082015250565b7f446566656e64657220646f6573206e6f74206578697374000000000000000000600082015250565b7f4552433732313a2063616c6c6572206973206e6f7420746f6b656e206f776e6560008201527f72206e6f7220617070726f766564000000000000000000000000000000000000602082015250565b6154a081614c25565b81146154ab57600080fd5b50565b6154b781614c37565b81146154c257600080fd5b50565b6154ce81614c49565b81146154d957600080fd5b50565b6154e581614c5f565b81146154f057600080fd5b50565b6154fc81614c8b565b811461550757600080fd5b50565b61551381614cb9565b811461551e57600080fd5b50565b61552a81614cd3565b811461553557600080fd5b5056fea2646970667358221220f996c528012ceb296ce96ff7d68e8657ded1851d773e869f77ca648216521e9564736f6c63430008040033",
  "linkReferences": {},
  "deployedLinkReferences": {}
}