{
  "_format": "hh-sol-artifact-1",
  "contractName": "ViewFunctions",
  "sourceName": "contracts/ViewFunctions.sol",
  "abi": [
    {
      "inputs": [
        {
          "internalType": "address",
          "name": "_nftContract",
          "type": "address"
        }
      ],
      "stateMutability": "nonpayable",
      "type": "constructor"
    },
    {
      "inputs": [],
      "name": "getAllSpaceships",
      "outputs": [
        {
          "internalType": "uint256[]",
          "name": "",
          "type": "uint256[]"
        },
        {
          "internalType": "uint256[]",
          "name": "",
          "type": "uint256[]"
        },
        {
          "internalType": "uint256[]",
          "name": "",
          "type": "uint256[]"
        },
        {
          "internalType": "uint256[]",
          "name": "",
          "type": "uint256[]"
        },
        {
          "internalType": "uint256[]",
          "name": "",
          "type": "uint256[]"
        },
        {
          "internalType": "bool[]",
          "name": "",
          "type": "bool[]"
        },
        {
          "internalType": "bool[]",
          "name": "",
          "type": "bool[]"
        }
      ],
      "stateMutability": "view",
      "type": "function"
    },
    {
      "inputs": [
        {
          "internalType": "address",
          "name": "owner",
          "type": "address"
        }
      ],
      "name": "getSpaceshipsByOwner",
      "outputs": [
        {
          "internalType": "uint256[]",
          "name": "",
          "type": "uint256[]"
        },
        {
          "internalType": "uint256[]",
          "name": "",
          "type": "uint256[]"
        },
        {
          "internalType": "uint256[]",
          "name": "",
          "type": "uint256[]"
        },
        {
          "internalType": "uint256[]",
          "name": "",
          "type": "uint256[]"
        },
        {
          "internalType": "uint256[]",
          "name": "",
          "type": "uint256[]"
        },
        {
          "internalType": "bool[]",
          "name": "",
          "type": "bool[]"
        },
        {
          "internalType": "bool[]",
          "name": "",
          "type": "bool[]"
        }
      ],
      "stateMutability": "view",
      "type": "function"
    },
    {
      "inputs": [],
      "name": "nftContract",
      "outputs": [
        {
          "internalType": "address",
          "name": "",
          "type": "address"
        }
      ],
      "stateMutability": "view",
      "type": "function"
    }
  ],
  "bytecode": "0x60806040523480156200001157600080fd5b5060405162001d7438038062001d74833981810160405281019062000037919062000095565b806000806101000a81548173ffffffffffffffffffffffffffffffffffffffff021916908373ffffffffffffffffffffffffffffffffffffffff160217905550506200010f565b6000815190506200008f81620000f5565b92915050565b600060208284031215620000a857600080fd5b6000620000b8848285016200007e565b91505092915050565b6000620000ce82620000d5565b9050919050565b600073ffffffffffffffffffffffffffffffffffffffff82169050919050565b6200010081620000c1565b81146200010c57600080fd5b50565b611c55806200011f6000396000f3fe608060405234801561001057600080fd5b50600436106100415760003560e01c806322b6de1f14610046578063332830371461006a578063d56d229d146100a0575b600080fd5b61004e6100be565b6040516100619796959493929190611957565b60405180910390f35b610084600480360381019061007f9190611770565b610b83565b6040516100979796959493929190611957565b60405180910390f35b6100a861165d565b6040516100b59190611913565b60405180910390f35b606080606080606080606060008060009054906101000a900473ffffffffffffffffffffffffffffffffffffffff1673ffffffffffffffffffffffffffffffffffffffff166318160ddd6040518163ffffffff1660e01b815260040160206040518083038186803b15801561013257600080fd5b505afa158015610146573d6000803e3d6000fd5b505050506040513d601f19601f8201168201806040525081019061016a91906117c2565b905060008167ffffffffffffffff8111156101ae577f4e487b7100000000000000000000000000000000000000000000000000000000600052604160045260246000fd5b6040519080825280602002602001820160405280156101dc5781602001602082028036833780820191505090505b50905060008267ffffffffffffffff811115610221577f4e487b7100000000000000000000000000000000000000000000000000000000600052604160045260246000fd5b60405190808252806020026020018201604052801561024f5781602001602082028036833780820191505090505b50905060008367ffffffffffffffff811115610294577f4e487b7100000000000000000000000000000000000000000000000000000000600052604160045260246000fd5b6040519080825280602002602001820160405280156102c25781602001602082028036833780820191505090505b50905060008467ffffffffffffffff811115610307577f4e487b7100000000000000000000000000000000000000000000000000000000600052604160045260246000fd5b6040519080825280602002602001820160405280156103355781602001602082028036833780820191505090505b50905060008567ffffffffffffffff81111561037a577f4e487b7100000000000000000000000000000000000000000000000000000000600052604160045260246000fd5b6040519080825280602002602001820160405280156103a85781602001602082028036833780820191505090505b50905060008667ffffffffffffffff8111156103ed577f4e487b7100000000000000000000000000000000000000000000000000000000600052604160045260246000fd5b60405190808252806020026020018201604052801561041b5781602001602082028036833780820191505090505b50905060008767ffffffffffffffff811115610460577f4e487b7100000000000000000000000000000000000000000000000000000000600052604160045260246000fd5b60405190808252806020026020018201604052801561048e5781602001602082028036833780820191505090505b50905060005b88811015610b5c5760008060009054906101000a900473ffffffffffffffffffffffffffffffffffffffff1673ffffffffffffffffffffffffffffffffffffffff16634f6ccce7836040518263ffffffff1660e01b81526004016104f891906119f7565b60206040518083038186803b15801561051057600080fd5b505afa158015610524573d6000803e3d6000fd5b505050506040513d601f19601f8201168201806040525081019061054891906117c2565b905080898381518110610584577f4e487b7100000000000000000000000000000000000000000000000000000000600052603260045260246000fd5b60200260200101818152505060008054906101000a900473ffffffffffffffffffffffffffffffffffffffff1673ffffffffffffffffffffffffffffffffffffffff1663673f0dd5826040518263ffffffff1660e01b81526004016105e991906119f7565b60e06040518083038186803b15801561060157600080fd5b505afa158015610615573d6000803e3d6000fd5b505050506040513d601f19601f820116820180604052508101906106399190611799565b60000151888381518110610676577f4e487b7100000000000000000000000000000000000000000000000000000000600052603260045260246000fd5b60200260200101818152505060008054906101000a900473ffffffffffffffffffffffffffffffffffffffff1673ffffffffffffffffffffffffffffffffffffffff1663673f0dd5826040518263ffffffff1660e01b81526004016106db91906119f7565b60e06040518083038186803b1580156106f357600080fd5b505afa158015610707573d6000803e3d6000fd5b505050506040513d601f19601f8201168201806040525081019061072b9190611799565b60200151878381518110610768577f4e487b7100000000000000000000000000000000000000000000000000000000600052603260045260246000fd5b60200260200101818152505060008054906101000a900473ffffffffffffffffffffffffffffffffffffffff1673ffffffffffffffffffffffffffffffffffffffff1663673f0dd5826040518263ffffffff1660e01b81526004016107cd91906119f7565b60e06040518083038186803b1580156107e557600080fd5b505afa1580156107f9573d6000803e3d6000fd5b505050506040513d601f19601f8201168201806040525081019061081d9190611799565b60a0015186838151811061085a577f4e487b7100000000000000000000000000000000000000000000000000000000600052603260045260246000fd5b60200260200101818152505060008054906101000a900473ffffffffffffffffffffffffffffffffffffffff1673ffffffffffffffffffffffffffffffffffffffff1663673f0dd5826040518263ffffffff1660e01b81526004016108bf91906119f7565b60e06040518083038186803b1580156108d757600080fd5b505afa1580156108eb573d6000803e3d6000fd5b505050506040513d601f19601f8201168201806040525081019061090f9190611799565b60c0015185838151811061094c577f4e487b7100000000000000000000000000000000000000000000000000000000600052603260045260246000fd5b60200260200101818152505060008054906101000a900473ffffffffffffffffffffffffffffffffffffffff1673ffffffffffffffffffffffffffffffffffffffff1663673f0dd5826040518263ffffffff1660e01b81526004016109b191906119f7565b60e06040518083038186803b1580156109c957600080fd5b505afa1580156109dd573d6000803e3d6000fd5b505050506040513d601f19601f82011682018060405250810190610a019190611799565b60400151848381518110610a3e577f4e487b7100000000000000000000000000000000000000000000000000000000600052603260045260246000fd5b60200260200101901515908115158152505060008054906101000a900473ffffffffffffffffffffffffffffffffffffffff1673ffffffffffffffffffffffffffffffffffffffff1663673f0dd5826040518263ffffffff1660e01b8152600401610aa991906119f7565b60e06040518083038186803b158015610ac157600080fd5b505afa158015610ad5573d6000803e3d6000fd5b505050506040513d601f19601f82011682018060405250810190610af99190611799565b60600151838381518110610b36577f4e487b7100000000000000000000000000000000000000000000000000000000600052603260045260246000fd5b602002602001019015159081151581525050508080610b5490611b22565b915050610494565b50868686868686869e509e509e509e509e509e509e50505050505050505090919293949596565b606080606080606080606060008060009054906101000a900473ffffffffffffffffffffffffffffffffffffffff1673ffffffffffffffffffffffffffffffffffffffff166370a082318a6040518263ffffffff1660e01b8152600401610bea9190611913565b60206040518083038186803b158015610c0257600080fd5b505afa158015610c16573d6000803e3d6000fd5b505050506040513d601f19601f82011682018060405250810190610c3a91906117c2565b905060008167ffffffffffffffff811115610c7e577f4e487b7100000000000000000000000000000000000000000000000000000000600052604160045260246000fd5b604051908082528060200260200182016040528015610cac5781602001602082028036833780820191505090505b50905060008267ffffffffffffffff811115610cf1577f4e487b7100000000000000000000000000000000000000000000000000000000600052604160045260246000fd5b604051908082528060200260200182016040528015610d1f5781602001602082028036833780820191505090505b50905060008367ffffffffffffffff811115610d64577f4e487b7100000000000000000000000000000000000000000000000000000000600052604160045260246000fd5b604051908082528060200260200182016040528015610d925781602001602082028036833780820191505090505b50905060008467ffffffffffffffff811115610dd7577f4e487b7100000000000000000000000000000000000000000000000000000000600052604160045260246000fd5b604051908082528060200260200182016040528015610e055781602001602082028036833780820191505090505b50905060008d905060008667ffffffffffffffff811115610e4f577f4e487b7100000000000000000000000000000000000000000000000000000000600052604160045260246000fd5b604051908082528060200260200182016040528015610e7d5781602001602082028036833780820191505090505b50905060008767ffffffffffffffff811115610ec2577f4e487b7100000000000000000000000000000000000000000000000000000000600052604160045260246000fd5b604051908082528060200260200182016040528015610ef05781602001602082028036833780820191505090505b50905060008867ffffffffffffffff811115610f35577f4e487b7100000000000000000000000000000000000000000000000000000000600052604160045260246000fd5b604051908082528060200260200182016040528015610f635781602001602082028036833780820191505090505b50905060005b898110156116335760008060009054906101000a900473ffffffffffffffffffffffffffffffffffffffff1673ffffffffffffffffffffffffffffffffffffffff16632f745c5987846040518363ffffffff1660e01b8152600401610fcf92919061192e565b60206040518083038186803b158015610fe757600080fd5b505afa158015610ffb573d6000803e3d6000fd5b505050506040513d601f19601f8201168201806040525081019061101f91906117c2565b9050808a838151811061105b577f4e487b7100000000000000000000000000000000000000000000000000000000600052603260045260246000fd5b60200260200101818152505060008054906101000a900473ffffffffffffffffffffffffffffffffffffffff1673ffffffffffffffffffffffffffffffffffffffff1663673f0dd5826040518263ffffffff1660e01b81526004016110c091906119f7565b60e06040518083038186803b1580156110d857600080fd5b505afa1580156110ec573d6000803e3d6000fd5b505050506040513d601f19601f820116820180604052508101906111109190611799565b6000015189838151811061114d577f4e487b7100000000000000000000000000000000000000000000000000000000600052603260045260246000fd5b60200260200101818152505060008054906101000a900473ffffffffffffffffffffffffffffffffffffffff1673ffffffffffffffffffffffffffffffffffffffff1663673f0dd5826040518263ffffffff1660e01b81526004016111b291906119f7565b60e06040518083038186803b1580156111ca57600080fd5b505afa1580156111de573d6000803e3d6000fd5b505050506040513d601f19601f820116820180604052508101906112029190611799565b6020015188838151811061123f577f4e487b7100000000000000000000000000000000000000000000000000000000600052603260045260246000fd5b60200260200101818152505060008054906101000a900473ffffffffffffffffffffffffffffffffffffffff1673ffffffffffffffffffffffffffffffffffffffff1663673f0dd5826040518263ffffffff1660e01b81526004016112a491906119f7565b60e06040518083038186803b1580156112bc57600080fd5b505afa1580156112d0573d6000803e3d6000fd5b505050506040513d601f19601f820116820180604052508101906112f49190611799565b60a00151878381518110611331577f4e487b7100000000000000000000000000000000000000000000000000000000600052603260045260246000fd5b60200260200101818152505060008054906101000a900473ffffffffffffffffffffffffffffffffffffffff1673ffffffffffffffffffffffffffffffffffffffff1663673f0dd5826040518263ffffffff1660e01b815260040161139691906119f7565b60e06040518083038186803b1580156113ae57600080fd5b505afa1580156113c2573d6000803e3d6000fd5b505050506040513d601f19601f820116820180604052508101906113e69190611799565b60c00151858381518110611423577f4e487b7100000000000000000000000000000000000000000000000000000000600052603260045260246000fd5b60200260200101818152505060008054906101000a900473ffffffffffffffffffffffffffffffffffffffff1673ffffffffffffffffffffffffffffffffffffffff1663673f0dd5826040518263ffffffff1660e01b815260040161148891906119f7565b60e06040518083038186803b1580156114a057600080fd5b505afa1580156114b4573d6000803e3d6000fd5b505050506040513d601f19601f820116820180604052508101906114d89190611799565b60400151848381518110611515577f4e487b7100000000000000000000000000000000000000000000000000000000600052603260045260246000fd5b60200260200101901515908115158152505060008054906101000a900473ffffffffffffffffffffffffffffffffffffffff1673ffffffffffffffffffffffffffffffffffffffff1663673f0dd5826040518263ffffffff1660e01b815260040161158091906119f7565b60e06040518083038186803b15801561159857600080fd5b505afa1580156115ac573d6000803e3d6000fd5b505050506040513d601f19601f820116820180604052508101906115d09190611799565b6060015183838151811061160d577f4e487b7100000000000000000000000000000000000000000000000000000000600052603260045260246000fd5b60200260200101901515908115158152505050808061162b90611b22565b915050610f69565b50878787878686869f509f509f509f509f509f509f50505050505050505050919395979092949650565b60008054906101000a900473ffffffffffffffffffffffffffffffffffffffff1681565b60008135905061169081611bda565b92915050565b6000815190506116a581611bf1565b92915050565b600060e082840312156116bd57600080fd5b6116c760e0611a12565b905060006116d78482850161175b565b60008301525060206116eb8482850161175b565b60208301525060406116ff84828501611696565b604083015250606061171384828501611696565b60608301525060806117278482850161175b565b60808301525060a061173b8482850161175b565b60a08301525060c061174f8482850161175b565b60c08301525092915050565b60008151905061176a81611c08565b92915050565b60006020828403121561178257600080fd5b600061179084828501611681565b91505092915050565b600060e082840312156117ab57600080fd5b60006117b9848285016116ab565b91505092915050565b6000602082840312156117d457600080fd5b60006117e28482850161175b565b91505092915050565b60006117f783836118e6565b60208301905092915050565b600061180f83836118f5565b60208301905092915050565b61182481611aa9565b82525050565b600061183582611a57565b61183f8185611a87565b935061184a83611a37565b8060005b8381101561187b57815161186288826117eb565b975061186d83611a6d565b92505060018101905061184e565b5085935050505092915050565b600061189382611a62565b61189d8185611a98565b93506118a883611a47565b8060005b838110156118d95781516118c08882611803565b97506118cb83611a7a565b9250506001810190506118ac565b5085935050505092915050565b6118ef81611abb565b82525050565b6118fe81611ae7565b82525050565b61190d81611ae7565b82525050565b6000602082019050611928600083018461181b565b92915050565b6000604082019050611943600083018561181b565b6119506020830184611904565b9392505050565b600060e0820190508181036000830152611971818a611888565b905081810360208301526119858189611888565b905081810360408301526119998188611888565b905081810360608301526119ad8187611888565b905081810360808301526119c18186611888565b905081810360a08301526119d5818561182a565b905081810360c08301526119e9818461182a565b905098975050505050505050565b6000602082019050611a0c6000830184611904565b92915050565b6000611a1c611a2d565b9050611a288282611af1565b919050565b6000604051905090565b6000819050602082019050919050565b6000819050602082019050919050565b600081519050919050565b600081519050919050565b6000602082019050919050565b6000602082019050919050565b600082825260208201905092915050565b600082825260208201905092915050565b6000611ab482611ac7565b9050919050565b60008115159050919050565b600073ffffffffffffffffffffffffffffffffffffffff82169050919050565b6000819050919050565b611afa82611bc9565b810181811067ffffffffffffffff82111715611b1957611b18611b9a565b5b80604052505050565b6000611b2d82611ae7565b91507fffffffffffffffffffffffffffffffffffffffffffffffffffffffffffffffff821415611b6057611b5f611b6b565b5b600182019050919050565b7f4e487b7100000000000000000000000000000000000000000000000000000000600052601160045260246000fd5b7f4e487b7100000000000000000000000000000000000000000000000000000000600052604160045260246000fd5b6000601f19601f8301169050919050565b611be381611aa9565b8114611bee57600080fd5b50565b611bfa81611abb565b8114611c0557600080fd5b50565b611c1181611ae7565b8114611c1c57600080fd5b5056fea2646970667358221220fbeb76a8266fca4ca69f2a304dd90fe729cceb1e1a6e2a6ddd7c1d8caf84d28a64736f6c63430008040033",
  "linkReferences": {},
  "deployedLinkReferences": {}
}