{
  "_format": "hh-sol-artifact-1",
  "contractName": "OmniChainNFT",
  "sourceName": "contracts/OmniChainNFT.sol",
  "abi": [
    {
      "inputs": [
        {
          "internalType": "address",
          "name": "_endpoint",
          "type": "address"
        },
        {
          "internalType": "uint256",
          "name": "_chainId",
          "type": "uint256"
        },
        {
          "internalType": "uint256",
          "name": "startId",
          "type": "uint256"
        },
        {
          "internalType": "uint256",
          "name": "_max",
          "type": "uint256"
        },
        {
          "internalType": "uint64",
          "name": "subscriptionId",
          "type": "uint64"
        }
      ],
      "stateMutability": "nonpayable",
      "type": "constructor"
    },
    {
      "inputs": [
        {
          "internalType": "address",
          "name": "have",
          "type": "address"
        },
        {
          "internalType": "address",
          "name": "want",
          "type": "address"
        }
      ],
      "name": "OnlyCoordinatorCanFulfill",
      "type": "error"
    },
    {
      "anonymous": false,
      "inputs": [
        {
          "indexed": true,
          "internalType": "address",
          "name": "owner",
          "type": "address"
        },
        {
          "indexed": true,
          "internalType": "address",
          "name": "approved",
          "type": "address"
        },
        {
          "indexed": true,
          "internalType": "uint256",
          "name": "tokenId",
          "type": "uint256"
        }
      ],
      "name": "Approval",
      "type": "event"
    },
    {
      "anonymous": false,
      "inputs": [
        {
          "indexed": true,
          "internalType": "address",
          "name": "owner",
          "type": "address"
        },
        {
          "indexed": true,
          "internalType": "address",
          "name": "operator",
          "type": "address"
        },
        {
          "indexed": false,
          "internalType": "bool",
          "name": "approved",
          "type": "bool"
        }
      ],
      "name": "ApprovalForAll",
      "type": "event"
    },
    {
      "anonymous": false,
      "inputs": [
        {
          "indexed": false,
          "internalType": "uint256",
          "name": "winner",
          "type": "uint256"
        },
        {
          "indexed": false,
          "internalType": "uint256",
          "name": "loser",
          "type": "uint256"
        }
      ],
      "name": "BattleComplete",
      "type": "event"
    },
    {
      "anonymous": false,
      "inputs": [
        {
          "indexed": true,
          "internalType": "address",
          "name": "previousOwner",
          "type": "address"
        },
        {
          "indexed": true,
          "internalType": "address",
          "name": "newOwner",
          "type": "address"
        }
      ],
      "name": "OwnershipTransferred",
      "type": "event"
    },
    {
      "anonymous": false,
      "inputs": [
        {
          "indexed": false,
          "internalType": "uint16",
          "name": "_srcChainId",
          "type": "uint16"
        },
        {
          "indexed": false,
          "internalType": "address",
          "name": "_from",
          "type": "address"
        },
        {
          "indexed": false,
          "internalType": "uint256",
          "name": "_tokenId",
          "type": "uint256"
        },
        {
          "indexed": false,
          "internalType": "uint256",
          "name": "counter",
          "type": "uint256"
        }
      ],
      "name": "ReceiveNFT",
      "type": "event"
    },
    {
      "anonymous": false,
      "inputs": [
        {
          "indexed": true,
          "internalType": "address",
          "name": "from",
          "type": "address"
        },
        {
          "indexed": true,
          "internalType": "address",
          "name": "to",
          "type": "address"
        },
        {
          "indexed": true,
          "internalType": "uint256",
          "name": "tokenId",
          "type": "uint256"
        }
      ],
      "name": "Transfer",
      "type": "event"
    },
    {
      "inputs": [
        {
          "internalType": "address",
          "name": "to",
          "type": "address"
        },
        {
          "internalType": "uint256",
          "name": "tokenId",
          "type": "uint256"
        }
      ],
      "name": "approve",
      "outputs": [],
      "stateMutability": "nonpayable",
      "type": "function"
    },
    {
      "inputs": [
        {
          "internalType": "address",
          "name": "owner",
          "type": "address"
        }
      ],
      "name": "balanceOf",
      "outputs": [
        {
          "internalType": "uint256",
          "name": "",
          "type": "uint256"
        }
      ],
      "stateMutability": "view",
      "type": "function"
    },
    {
      "inputs": [
        {
          "internalType": "uint256",
          "name": "attackerTokenId",
          "type": "uint256"
        },
        {
          "internalType": "uint256",
          "name": "defenderTokenId",
          "type": "uint256"
        }
      ],
      "name": "battle",
      "outputs": [
        {
          "internalType": "uint256",
          "name": "requestId",
          "type": "uint256"
        }
      ],
      "stateMutability": "nonpayable",
      "type": "function"
    },
    {
      "inputs": [
        {
          "internalType": "uint256",
          "name": "",
          "type": "uint256"
        }
      ],
      "name": "battles",
      "outputs": [
        {
          "internalType": "uint256",
          "name": "attackerTokenId",
          "type": "uint256"
        },
        {
          "internalType": "uint256",
          "name": "defenderTokenId",
          "type": "uint256"
        },
        {
          "internalType": "bool",
          "name": "battleFinished",
          "type": "bool"
        }
      ],
      "stateMutability": "view",
      "type": "function"
    },
    {
      "inputs": [
        {
          "internalType": "uint256",
          "name": "tokenId",
          "type": "uint256"
        }
      ],
      "name": "claim",
      "outputs": [],
      "stateMutability": "nonpayable",
      "type": "function"
    },
    {
      "inputs": [
        {
          "internalType": "uint16",
          "name": "_dstChainId",
          "type": "uint16"
        },
        {
          "internalType": "bytes",
          "name": "_destination",
          "type": "bytes"
        },
        {
          "internalType": "uint256",
          "name": "tokenId",
          "type": "uint256"
        },
        {
          "internalType": "uint256",
          "name": "missleTarget",
          "type": "uint256"
        }
      ],
      "name": "crossChain",
      "outputs": [],
      "stateMutability": "payable",
      "type": "function"
    },
    {
      "inputs": [],
      "name": "endpoint",
      "outputs": [
        {
          "internalType": "contract ILayerZeroEndpoint",
          "name": "",
          "type": "address"
        }
      ],
      "stateMutability": "view",
      "type": "function"
    },
    {
      "inputs": [
        {
          "internalType": "uint16",
          "name": "_dstChainId",
          "type": "uint16"
        },
        {
          "internalType": "address",
          "name": "_userApplication",
          "type": "address"
        },
        {
          "internalType": "bytes",
          "name": "_payload",
          "type": "bytes"
        },
        {
          "internalType": "bool",
          "name": "_payInZRO",
          "type": "bool"
        },
        {
          "internalType": "bytes",
          "name": "_adapterParams",
          "type": "bytes"
        }
      ],
      "name": "estimateFees",
      "outputs": [
        {
          "internalType": "uint256",
          "name": "nativeFee",
          "type": "uint256"
        },
        {
          "internalType": "uint256",
          "name": "zroFee",
          "type": "uint256"
        }
      ],
      "stateMutability": "view",
      "type": "function"
    },
    {
      "inputs": [
        {
          "internalType": "uint256",
          "name": "tokenId",
          "type": "uint256"
        }
      ],
      "name": "getApproved",
      "outputs": [
        {
          "internalType": "address",
          "name": "",
          "type": "address"
        }
      ],
      "stateMutability": "view",
      "type": "function"
    },
    {
      "inputs": [
        {
          "internalType": "address",
          "name": "owner",
          "type": "address"
        },
        {
          "internalType": "address",
          "name": "operator",
          "type": "address"
        }
      ],
      "name": "isApprovedForAll",
      "outputs": [
        {
          "internalType": "bool",
          "name": "",
          "type": "bool"
        }
      ],
      "stateMutability": "view",
      "type": "function"
    },
    {
      "inputs": [
        {
          "internalType": "uint16",
          "name": "_srcChainId",
          "type": "uint16"
        },
        {
          "internalType": "bytes",
          "name": "_from",
          "type": "bytes"
        },
        {
          "internalType": "uint64",
          "name": "",
          "type": "uint64"
        },
        {
          "internalType": "bytes",
          "name": "_payload",
          "type": "bytes"
        }
      ],
      "name": "lzReceive",
      "outputs": [],
      "stateMutability": "nonpayable",
      "type": "function"
    },
    {
      "inputs": [
        {
          "internalType": "uint256",
          "name": "tokenId1",
          "type": "uint256"
        },
        {
          "internalType": "uint256",
          "name": "tokenId2",
          "type": "uint256"
        }
      ],
      "name": "merge",
      "outputs": [],
      "stateMutability": "nonpayable",
      "type": "function"
    },
    {
      "inputs": [],
      "name": "mint",
      "outputs": [],
      "stateMutability": "payable",
      "type": "function"
    },
    {
      "inputs": [],
      "name": "name",
      "outputs": [
        {
          "internalType": "string",
          "name": "",
          "type": "string"
        }
      ],
      "stateMutability": "view",
      "type": "function"
    },
    {
      "inputs": [],
      "name": "owner",
      "outputs": [
        {
          "internalType": "address",
          "name": "",
          "type": "address"
        }
      ],
      "stateMutability": "view",
      "type": "function"
    },
    {
      "inputs": [
        {
          "internalType": "uint256",
          "name": "tokenId",
          "type": "uint256"
        }
      ],
      "name": "ownerOf",
      "outputs": [
        {
          "internalType": "address",
          "name": "",
          "type": "address"
        }
      ],
      "stateMutability": "view",
      "type": "function"
    },
    {
      "inputs": [
        {
          "internalType": "uint256",
          "name": "requestId",
          "type": "uint256"
        },
        {
          "internalType": "uint256[]",
          "name": "randomWords",
          "type": "uint256[]"
        }
      ],
      "name": "rawFulfillRandomWords",
      "outputs": [],
      "stateMutability": "nonpayable",
      "type": "function"
    },
    {
      "inputs": [],
      "name": "renounceOwnership",
      "outputs": [],
      "stateMutability": "nonpayable",
      "type": "function"
    },
    {
      "inputs": [
        {
          "internalType": "address",
          "name": "from",
          "type": "address"
        },
        {
          "internalType": "address",
          "name": "to",
          "type": "address"
        },
        {
          "internalType": "uint256",
          "name": "tokenId",
          "type": "uint256"
        }
      ],
      "name": "safeTransferFrom",
      "outputs": [],
      "stateMutability": "nonpayable",
      "type": "function"
    },
    {
      "inputs": [
        {
          "internalType": "address",
          "name": "from",
          "type": "address"
        },
        {
          "internalType": "address",
          "name": "to",
          "type": "address"
        },
        {
          "internalType": "uint256",
          "name": "tokenId",
          "type": "uint256"
        },
        {
          "internalType": "bytes",
          "name": "data",
          "type": "bytes"
        }
      ],
      "name": "safeTransferFrom",
      "outputs": [],
      "stateMutability": "nonpayable",
      "type": "function"
    },
    {
      "inputs": [
        {
          "internalType": "address",
          "name": "operator",
          "type": "address"
        },
        {
          "internalType": "bool",
          "name": "approved",
          "type": "bool"
        }
      ],
      "name": "setApprovalForAll",
      "outputs": [],
      "stateMutability": "nonpayable",
      "type": "function"
    },
    {
      "inputs": [
        {
          "internalType": "uint256",
          "name": "",
          "type": "uint256"
        }
      ],
      "name": "spaceships",
      "outputs": [
        {
          "internalType": "uint256",
          "name": "power",
          "type": "uint256"
        },
        {
          "internalType": "uint256",
          "name": "points",
          "type": "uint256"
        },
        {
          "internalType": "bool",
          "name": "staked",
          "type": "bool"
        },
        {
          "internalType": "bool",
          "name": "inBattle",
          "type": "bool"
        },
        {
          "internalType": "uint256",
          "name": "stakeStartTime",
          "type": "uint256"
        },
        {
          "internalType": "uint256",
          "name": "tokenMissiles",
          "type": "uint256"
        },
        {
          "internalType": "uint256",
          "name": "tokenShields",
          "type": "uint256"
        }
      ],
      "stateMutability": "view",
      "type": "function"
    },
    {
      "inputs": [
        {
          "internalType": "uint256",
          "name": "tokenId",
          "type": "uint256"
        }
      ],
      "name": "stake",
      "outputs": [],
      "stateMutability": "nonpayable",
      "type": "function"
    },
    {
      "inputs": [
        {
          "internalType": "bytes4",
          "name": "interfaceId",
          "type": "bytes4"
        }
      ],
      "name": "supportsInterface",
      "outputs": [
        {
          "internalType": "bool",
          "name": "",
          "type": "bool"
        }
      ],
      "stateMutability": "view",
      "type": "function"
    },
    {
      "inputs": [],
      "name": "symbol",
      "outputs": [
        {
          "internalType": "string",
          "name": "",
          "type": "string"
        }
      ],
      "stateMutability": "view",
      "type": "function"
    },
    {
      "inputs": [
        {
          "internalType": "uint256",
          "name": "index",
          "type": "uint256"
        }
      ],
      "name": "tokenByIndex",
      "outputs": [
        {
          "internalType": "uint256",
          "name": "",
          "type": "uint256"
        }
      ],
      "stateMutability": "view",
      "type": "function"
    },
    {
      "inputs": [
        {
          "internalType": "uint256",
          "name": "",
          "type": "uint256"
        }
      ],
      "name": "tokenHasTravelled",
      "outputs": [
        {
          "internalType": "bool",
          "name": "",
          "type": "bool"
        }
      ],
      "stateMutability": "view",
      "type": "function"
    },
    {
      "inputs": [
        {
          "internalType": "address",
          "name": "owner",
          "type": "address"
        },
        {
          "internalType": "uint256",
          "name": "index",
          "type": "uint256"
        }
      ],
      "name": "tokenOfOwnerByIndex",
      "outputs": [
        {
          "internalType": "uint256",
          "name": "",
          "type": "uint256"
        }
      ],
      "stateMutability": "view",
      "type": "function"
    },
    {
      "inputs": [
        {
          "internalType": "uint256",
          "name": "tokenId",
          "type": "uint256"
        }
      ],
      "name": "tokenURI",
      "outputs": [
        {
          "internalType": "string",
          "name": "",
          "type": "string"
        }
      ],
      "stateMutability": "view",
      "type": "function"
    },
    {
      "inputs": [],
      "name": "totalSupply",
      "outputs": [
        {
          "internalType": "uint256",
          "name": "",
          "type": "uint256"
        }
      ],
      "stateMutability": "view",
      "type": "function"
    },
    {
      "inputs": [
        {
          "internalType": "address",
          "name": "from",
          "type": "address"
        },
        {
          "internalType": "address",
          "name": "to",
          "type": "address"
        },
        {
          "internalType": "uint256",
          "name": "tokenId",
          "type": "uint256"
        }
      ],
      "name": "transferFrom",
      "outputs": [],
      "stateMutability": "nonpayable",
      "type": "function"
    },
    {
      "inputs": [
        {
          "internalType": "address",
          "name": "newOwner",
          "type": "address"
        }
      ],
      "name": "transferOwnership",
      "outputs": [],
      "stateMutability": "nonpayable",
      "type": "function"
    },
    {
      "inputs": [
        {
          "internalType": "uint256",
          "name": "tokenId",
          "type": "uint256"
        }
      ],
      "name": "unstake",
      "outputs": [],
      "stateMutability": "nonpayable",
      "type": "function"
    }
  ],
  "bytecode": "0x60a06040526000600b556000600c556064600d556000600e5562055730600f55736168499c0cffcacd319c818142124b7a15e857ab601560006101000a81548173ffffffffffffffffffffffffffffffffffffffff021916908373ffffffffffffffffffffffffffffffffffffffff1602179055507fd89b2bf150e3b9e13446986e571fb9cab24b13cea0a43ea20a6049a85cc807cc60001b60165562030d40601760006101000a81548163ffffffff021916908363ffffffff1602179055506003601760046101000a81548161ffff021916908361ffff1602179055506001601760066101000a81548163ffffffff021916908363ffffffff1602179055503480156200010c57600080fd5b5060405162006645380380620066458339818101604052810190620001329190620004fa565b601560009054906101000a900473ffffffffffffffffffffffffffffffffffffffff166040518060400160405280600c81526020017f4f6d6e69436861696e4e465400000000000000000000000000000000000000008152506040518060400160405280600981526020017f5370616365736869700000000000000000000000000000000000000000000000815250620001e1620001d56200033960201b60201c565b6200034160201b60201c565b8160019080519060200190620001f992919062000405565b5080600290805190602001906200021292919062000405565b5050508073ffffffffffffffffffffffffffffffffffffffff1660808173ffffffffffffffffffffffffffffffffffffffff1660601b8152505050846017600a6101000a81548173ffffffffffffffffffffffffffffffffffffffff021916908373ffffffffffffffffffffffffffffffffffffffff16021790555082600c819055508360108190555081600d81905550601560009054906101000a900473ffffffffffffffffffffffffffffffffffffffff16601460006101000a81548173ffffffffffffffffffffffffffffffffffffffff021916908373ffffffffffffffffffffffffffffffffffffffff160217905550806014806101000a81548167ffffffffffffffff021916908367ffffffffffffffff160217905550505050505062000681565b600033905090565b60008060009054906101000a900473ffffffffffffffffffffffffffffffffffffffff169050816000806101000a81548173ffffffffffffffffffffffffffffffffffffffff021916908373ffffffffffffffffffffffffffffffffffffffff1602179055508173ffffffffffffffffffffffffffffffffffffffff168173ffffffffffffffffffffffffffffffffffffffff167f8be0079c531659141344cd1fd0a4f28419497f9722a3daafe3b4186f6b6457e060405160405180910390a35050565b8280546200041390620005ce565b90600052602060002090601f01602090048101928262000437576000855562000483565b82601f106200045257805160ff191683800117855562000483565b8280016001018555821562000483579182015b828111156200048257825182559160200191906001019062000465565b5b50905062000492919062000496565b5090565b5b80821115620004b157600081600090555060010162000497565b5090565b600081519050620004c68162000633565b92915050565b600081519050620004dd816200064d565b92915050565b600081519050620004f48162000667565b92915050565b600080600080600060a086880312156200051357600080fd5b60006200052388828901620004b5565b95505060206200053688828901620004cc565b94505060406200054988828901620004cc565b93505060606200055c88828901620004cc565b92505060806200056f88828901620004e3565b9150509295509295909350565b6000620005898262000590565b9050919050565b600073ffffffffffffffffffffffffffffffffffffffff82169050919050565b6000819050919050565b600067ffffffffffffffff82169050919050565b60006002820490506001821680620005e757607f821691505b60208210811415620005fe57620005fd62000604565b5b50919050565b7f4e487b7100000000000000000000000000000000000000000000000000000000600052602260045260246000fd5b6200063e816200057c565b81146200064a57600080fd5b50565b6200065881620005b0565b81146200066457600080fd5b50565b6200067281620005ba565b81146200067e57600080fd5b50565b60805160601c615f9e620006a7600039600081816110e401526111380152615f9e6000f3fe6080604052600436106101ed5760003560e01c80635e280f111161010d57806395ca8acb116100a0578063b88d4fde1161006f578063b88d4fde1461071f578063c87b56dd14610748578063d1c2babb14610785578063e985e9c5146107ae578063f2fde38b146107eb576101ed565b806395ca8acb1461065f57806395d89b41146106a2578063a22cb465146106cd578063a694fc3a146106f6576101ed565b806370a08231116100dc57806370a08231146105a3578063715018a6146105e05780638954677c146105f75780638da5cb5b14610634576101ed565b80635e280f11146104e0578063606d2e961461050b57806361ca46861461054a5780636352211e14610566576101ed565b806323b872dd11610185578063379607f511610154578063379607f51461041357806340a7bb101461043c57806342842e0e1461047a5780634f6ccce7146104a3576101ed565b806323b872dd146103475780632a0c5221146103705780632e17de78146103ad5780632f745c59146103d6576101ed565b8063095ea7b3116101c1578063095ea7b3146102c05780631249c58b146102e957806318160ddd146102f35780631fe543e31461031e576101ed565b80621d3567146101f257806301ffc9a71461021b57806306fdde0314610258578063081812fc14610283575b600080fd5b3480156101fe57600080fd5b5061021960048036038101906102149190614a15565b610814565b005b34801561022757600080fd5b50610242600480360381019061023d9190614893565b610dac565b60405161024f9190615118565b60405180910390f35b34801561026457600080fd5b5061026d610dbe565b60405161027a91906151a1565b60405180910390f35b34801561028f57600080fd5b506102aa60048036038101906102a59190614aa8565b610e50565b6040516102b79190615019565b60405180910390f35b3480156102cc57600080fd5b506102e760048036038101906102e29190614857565b610e96565b005b6102f1610fae565b005b3480156102ff57600080fd5b506103086110d5565b6040516103159190615526565b60405180910390f35b34801561032a57600080fd5b5061034560048036038101906103409190614afa565b6110e2565b005b34801561035357600080fd5b5061036e60048036038101906103699190614751565b6111a2565b005b34801561037c57600080fd5b5061039760048036038101906103929190614b4e565b611202565b6040516103a49190615526565b60405180910390f35b3480156103b957600080fd5b506103d460048036038101906103cf9190614aa8565b6116c2565b005b3480156103e257600080fd5b506103fd60048036038101906103f89190614857565b61189b565b60405161040a9190615526565b60405180910390f35b34801561041f57600080fd5b5061043a60048036038101906104359190614aa8565b611940565b005b34801561044857600080fd5b50610463600480360381019061045e91906148e5565b611b55565b604051610471929190615541565b60405180910390f35b34801561048657600080fd5b506104a1600480360381019061049c9190614751565b611c1e565b005b3480156104af57600080fd5b506104ca60048036038101906104c59190614aa8565b611c3e565b6040516104d79190615526565b60405180910390f35b3480156104ec57600080fd5b506104f5611cd5565b6040516105029190615186565b60405180910390f35b34801561051757600080fd5b50610532600480360381019061052d9190614aa8565b611cfb565b6040516105419392919061556a565b60405180910390f35b610564600480360381019061055f9190614995565b611d32565b005b34801561057257600080fd5b5061058d60048036038101906105889190614aa8565b6120a2565b60405161059a9190615019565b60405180910390f35b3480156105af57600080fd5b506105ca60048036038101906105c5919061464e565b612154565b6040516105d79190615526565b60405180910390f35b3480156105ec57600080fd5b506105f561220c565b005b34801561060357600080fd5b5061061e60048036038101906106199190614aa8565b612220565b60405161062b9190615118565b60405180910390f35b34801561064057600080fd5b50610649612240565b6040516106569190615019565b60405180910390f35b34801561066b57600080fd5b5061068660048036038101906106819190614aa8565b612269565b60405161069997969594939291906155a1565b60405180910390f35b3480156106ae57600080fd5b506106b76122c5565b6040516106c491906151a1565b60405180910390f35b3480156106d957600080fd5b506106f460048036038101906106ef919061481b565b612357565b005b34801561070257600080fd5b5061071d60048036038101906107189190614aa8565b61236d565b005b34801561072b57600080fd5b50610746600480360381019061074191906147a0565b612547565b005b34801561075457600080fd5b5061076f600480360381019061076a9190614aa8565b6125a9565b60405161077c91906151a1565b60405180910390f35b34801561079157600080fd5b506107ac60048036038101906107a79190614b4e565b6125f5565b005b3480156107ba57600080fd5b506107d560048036038101906107d09190614715565b6126c6565b6040516107e29190615118565b60405180910390f35b3480156107f757600080fd5b50610812600480360381019061080d919061464e565b61275a565b005b6017600a9054906101000a900473ffffffffffffffffffffffffffffffffffffffff1673ffffffffffffffffffffffffffffffffffffffff163373ffffffffffffffffffffffffffffffffffffffff161461086e57600080fd5b6000601484015190506000806000806000806000888060200190518101906108969190614677565b96509650965096509650965096506108ae87876127de565b6001600b60008282546108c191906156d5565b9250508190555060008114610c9d576001836108dd91906157b6565b9250600060116000888152602001908152602001600020600501541115610a82576040518060e0016040528060116000898152602001908152602001600020600001548152602001601160008981526020019081526020016000206001015481526020016011600089815260200190815260200160002060020160009054906101000a900460ff16151581526020016011600089815260200190815260200160002060020160019054906101000a900460ff161515815260200160116000898152602001908152602001600020600301548152602001601160008981526020019081526020016000206004015481526020016001601160008a8152602001908152602001600020600501546109f291906157b6565b81525060116000888152602001908152602001600020600082015181600001556020820151816001015560408201518160020160006101000a81548160ff02191690831515021790555060608201518160020160016101000a81548160ff0219169083151502179055506080820151816003015560a0820151816004015560c08201518160050155905050610c9c565b6040518060e001604052806008601160008a815260200190815260200160002060000154610ab091906157b6565b8152602001601160008981526020019081526020016000206001015481526020016011600089815260200190815260200160002060020160009054906101000a900460ff16151581526020016011600089815260200190815260200160002060020160019054906101000a900460ff161515815260200160116000898152602001908152602001600020600301548152602001601160008981526020019081526020016000206004015481526020016001601160008a815260200190815260200160002060050154610b8291906157b6565b81525060116000888152602001908152602001600020600082015181600001556020820151816001015560408201518160020160006101000a81548160ff02191690831515021790555060608201518160020160016101000a81548160ff0219169083151502179055506080820151816003015560a0820151816004015560c082015181600501559050506001601160008881526020019081526020016000206000015411610c9b57610c34866127fc565b6011600087815260200190815260200160002060008082016000905560018201600090556002820160006101000a81549060ff02191690556002820160016101000a81549060ff021916905560038201600090556004820160009055600582016000905550505b5b5b6040518060e00160405280868152602001858152602001600015158152602001600015158152602001600081526020018481526020018381525060116000888152602001908152602001600020600082015181600001556020820151816001015560408201518160020160006101000a81548160ff02191690831515021790555060608201518160020160016101000a81548160ff0219169083151502179055506080820151816003015560a0820151816004015560c082015181600501559050507fec16668a9529c4fc256054f3e18620ef50c89aec357376cce821207ff1e656f08c8888600b54604051610d969493929190615469565b60405180910390a1505050505050505050505050565b6000610db782612919565b9050919050565b606060018054610dcd90615912565b80601f0160208091040260200160405190810160405280929190818152602001828054610df990615912565b8015610e465780601f10610e1b57610100808354040283529160200191610e46565b820191906000526020600020905b815481529060010190602001808311610e2957829003601f168201915b5050505050905090565b6000610e5b82612993565b6005600083815260200190815260200160002060009054906101000a900473ffffffffffffffffffffffffffffffffffffffff169050919050565b6000610ea1826120a2565b90508073ffffffffffffffffffffffffffffffffffffffff168373ffffffffffffffffffffffffffffffffffffffff161415610f12576040517f08c379a0000000000000000000000000000000000000000000000000000000008152600401610f0990615343565b60405180910390fd5b8073ffffffffffffffffffffffffffffffffffffffff16610f316129de565b73ffffffffffffffffffffffffffffffffffffffff161480610f605750610f5f81610f5a6129de565b6126c6565b5b610f9f576040517f08c379a0000000000000000000000000000000000000000000000000000000008152600401610f96906152c3565b60405180910390fd5b610fa983836129e6565b505050565b600d546001600c54610fc091906156d5565b1115610fcb57600080fd5b6001600c6000828254610fde91906156d5565b92505081905550610ff133600c546127de565b6040518060e0016040528060028152602001600081526020016000151581526020016000151581526020016000815260200160008152602001600081525060116000600c548152602001908152602001600020600082015181600001556020820151816001015560408201518160020160006101000a81548160ff02191690831515021790555060608201518160020160016101000a81548160ff0219169083151502179055506080820151816003015560a0820151816004015560c082015181600501559050506001600b60008282546110cc91906156d5565b92505081905550565b6000600980549050905090565b7f000000000000000000000000000000000000000000000000000000000000000073ffffffffffffffffffffffffffffffffffffffff163373ffffffffffffffffffffffffffffffffffffffff161461119457337f00000000000000000000000000000000000000000000000000000000000000006040517f1cf993f400000000000000000000000000000000000000000000000000000000815260040161118b929190615034565b60405180910390fd5b61119e8282612a9f565b5050565b6111b36111ad6129de565b82612d0f565b6111f2576040517f08c379a00000000000000000000000000000000000000000000000000000000081526004016111e990615383565b60405180910390fd5b6111fd838383612da4565b505050565b600061120d836120a2565b73ffffffffffffffffffffffffffffffffffffffff163373ffffffffffffffffffffffffffffffffffffffff161461124457600080fd5b61124d82613036565b61125657600080fd5b6011600084815260200190815260200160002060020160019054906101000a900460ff161580156112a857506011600083815260200190815260200160002060020160019054906101000a900460ff16155b6112b157600080fd5b601460009054906101000a900473ffffffffffffffffffffffffffffffffffffffff1673ffffffffffffffffffffffffffffffffffffffff16635d3b1d3060165460148054906101000a900467ffffffffffffffff16601760049054906101000a900461ffff16601760009054906101000a900463ffffffff16601760069054906101000a900463ffffffff166040518663ffffffff1660e01b815260040161135e959493929190615133565b602060405180830381600087803b15801561137857600080fd5b505af115801561138c573d6000803e3d6000fd5b505050506040513d601f19601f820116820180604052508101906113b09190614ad1565b905060405180606001604052808481526020018381526020016000151581525060126000838152602001908152602001600020600082015181600001556020820151816001015560408201518160020160006101000a81548160ff0219169083151502179055509050506040518060e0016040528060116000868152602001908152602001600020600001548152602001601160008681526020019081526020016000206001015481526020016011600086815260200190815260200160002060020160009054906101000a900460ff16151581526020016001151581526020016011600086815260200190815260200160002060030154815260200160116000868152602001908152602001600020600401548152602001601160008681526020019081526020016000206005015481525060116000858152602001908152602001600020600082015181600001556020820151816001015560408201518160020160006101000a81548160ff02191690831515021790555060608201518160020160016101000a81548160ff0219169083151502179055506080820151816003015560a0820151816004015560c082015181600501559050506040518060e0016040528060116000858152602001908152602001600020600001548152602001601160008581526020019081526020016000206001015481526020016011600085815260200190815260200160002060020160009054906101000a900460ff16151581526020016001151581526020016011600085815260200190815260200160002060030154815260200160116000858152602001908152602001600020600401548152602001601160008581526020019081526020016000206005015481525060116000848152602001908152602001600020600082015181600001556020820151816001015560408201518160020160006101000a81548160ff02191690831515021790555060608201518160020160016101000a81548160ff0219169083151502179055506080820151816003015560a0820151816004015560c0820151816005015590505092915050565b6116cb816120a2565b73ffffffffffffffffffffffffffffffffffffffff163373ffffffffffffffffffffffffffffffffffffffff161461170257600080fd5b6011600082815260200190815260200160002060020160009054906101000a900460ff1661172f57600080fd5b6040518060e0016040528061176561175e601160008681526020019081526020016000206000015460046130a2565b60056130b8565b8152602001601160008481526020019081526020016000206001015481526020016000151581526020016011600084815260200190815260200160002060020160019054906101000a900460ff161515815260200142815260200160116000848152602001908152602001600020600401548152602001601160008481526020019081526020016000206005015481525060116000838152602001908152602001600020600082015181600001556020820151816001015560408201518160020160006101000a81548160ff02191690831515021790555060608201518160020160016101000a81548160ff0219169083151502179055506080820151816003015560a0820151816004015560c082015181600501559050506001600e600082825461189191906157b6565b9250508190555050565b60006118a683612154565b82106118e7576040517f08c379a00000000000000000000000000000000000000000000000000000000081526004016118de906151c3565b60405180910390fd5b600760008473ffffffffffffffffffffffffffffffffffffffff1673ffffffffffffffffffffffffffffffffffffffff168152602001908152602001600020600083815260200190815260200160002054905092915050565b611949816120a2565b73ffffffffffffffffffffffffffffffffffffffff163373ffffffffffffffffffffffffffffffffffffffff161461198057600080fd5b6011600082815260200190815260200160002060020160009054906101000a900460ff166119ad57600080fd5b60006011600083815260200190815260200160002060030154426119d191906157b6565b90506040518060e0016040528060116000858152602001908152602001600020600001548152602001611a3260116000868152602001908152602001600020600101546002611a2386620151806130a2565b611a2d919061575c565b6130ce565b81526020016011600085815260200190815260200160002060020160009054906101000a900460ff16151581526020016011600085815260200190815260200160002060020160019054906101000a900460ff161515815260200142815260200160116000858152602001908152602001600020600401548152602001601160008581526020019081526020016000206005015481525060116000848152602001908152602001600020600082015181600001556020820151816001015560408201518160020160006101000a81548160ff02191690831515021790555060608201518160020160016101000a81548160ff0219169083151502179055506080820151816003015560a0820151816004015560c082015181600501559050505050565b6000806017600a9054906101000a900473ffffffffffffffffffffffffffffffffffffffff1673ffffffffffffffffffffffffffffffffffffffff166340a7bb108a8a8a8a8a8a8a6040518863ffffffff1660e01b8152600401611bbf97969594939291906153a3565b604080518083038186803b158015611bd657600080fd5b505afa158015611bea573d6000803e3d6000fd5b505050506040513d601f19601f82011682018060405250810190611c0e9190614b8a565b9150915097509795505050505050565b611c3983838360405180602001604052806000815250612547565b505050565b6000611c486110d5565b8210611c89576040517f08c379a0000000000000000000000000000000000000000000000000000000008152600401611c8090615363565b60405180910390fd5b60098281548110611cc3577f4e487b7100000000000000000000000000000000000000000000000000000000600052603260045260246000fd5b90600052602060002001549050919050565b6017600a9054906101000a900473ffffffffffffffffffffffffffffffffffffffff1681565b60126020528060005260406000206000915090508060000154908060010154908060020160009054906101000a900460ff16905083565b611d3b826120a2565b73ffffffffffffffffffffffffffffffffffffffff163373ffffffffffffffffffffffffffffffffffffffff1614611d7257600080fd5b6011600083815260200190815260200160002060020160009054906101000a900460ff1615611da057600080fd5b6011600083815260200190815260200160002060020160019054906101000a900460ff1615611dce57600080fd5b60008114611dfa576000601160008481526020019081526020016000206004015411611df957600080fd5b5b60006013600084815260200190815260200160002060009054906101000a900460ff16611e5257600a905060016013600085815260200190815260200160002060006101000a81548160ff0219169083151502179055505b611e5b836127fc565b6001600b6000828254611e6e91906157b6565b92505081905550600033846011600087815260200190815260200160002060000154846011600089815260200190815260200160002060010154611eb291906156d5565b6011600089815260200190815260200160002060040154601160008a81526020019081526020016000206005015488604051602001611ef797969594939291906150a9565b6040516020818303038152906040529050600060019050600081600f54604051602001611f25929190614fed565b604051602081830303815290604052905060006017600a9054906101000a900473ffffffffffffffffffffffffffffffffffffffff1673ffffffffffffffffffffffffffffffffffffffff166340a7bb108b30876000876040518663ffffffff1660e01b8152600401611f9c959493929190615408565b604080518083038186803b158015611fb357600080fd5b505afa158015611fc7573d6000803e3d6000fd5b505050506040513d601f19601f82011682018060405250810190611feb9190614b8a565b50905080341015611ffb57600080fd5b6017600a9054906101000a900473ffffffffffffffffffffffffffffffffffffffff1673ffffffffffffffffffffffffffffffffffffffff1663c5803100348c8c8c893360008a6040518963ffffffff1660e01b815260040161206497969594939291906154ae565b6000604051808303818588803b15801561207d57600080fd5b505af1158015612091573d6000803e3d6000fd5b505050505050505050505050505050565b6000806003600084815260200190815260200160002060009054906101000a900473ffffffffffffffffffffffffffffffffffffffff169050600073ffffffffffffffffffffffffffffffffffffffff168173ffffffffffffffffffffffffffffffffffffffff16141561214b576040517f08c379a000000000000000000000000000000000000000000000000000000000815260040161214290615323565b60405180910390fd5b80915050919050565b60008073ffffffffffffffffffffffffffffffffffffffff168273ffffffffffffffffffffffffffffffffffffffff1614156121c5576040517f08c379a00000000000000000000000000000000000000000000000000000000081526004016121bc906152a3565b60405180910390fd5b600460008373ffffffffffffffffffffffffffffffffffffffff1673ffffffffffffffffffffffffffffffffffffffff168152602001908152602001600020549050919050565b6122146130e4565b61221e6000613162565b565b60136020528060005260406000206000915054906101000a900460ff1681565b60008060009054906101000a900473ffffffffffffffffffffffffffffffffffffffff16905090565b60116020528060005260406000206000915090508060000154908060010154908060020160009054906101000a900460ff16908060020160019054906101000a900460ff16908060030154908060040154908060050154905087565b6060600280546122d490615912565b80601f016020809104026020016040519081016040528092919081815260200182805461230090615912565b801561234d5780601f106123225761010080835404028352916020019161234d565b820191906000526020600020905b81548152906001019060200180831161233057829003601f168201915b5050505050905090565b6123696123626129de565b8383613226565b5050565b612376816120a2565b73ffffffffffffffffffffffffffffffffffffffff163373ffffffffffffffffffffffffffffffffffffffff16146123ad57600080fd5b6011600082815260200190815260200160002060020160009054906101000a900460ff16156123db57600080fd5b6040518060e0016040528061241161240a601160008681526020019081526020016000206000015460056130a2565b60046130b8565b8152602001601160008481526020019081526020016000206001015481526020016001151581526020016011600084815260200190815260200160002060020160019054906101000a900460ff161515815260200142815260200160116000848152602001908152602001600020600401548152602001601160008481526020019081526020016000206005015481525060116000838152602001908152602001600020600082015181600001556020820151816001015560408201518160020160006101000a81548160ff02191690831515021790555060608201518160020160016101000a81548160ff0219169083151502179055506080820151816003015560a0820151816004015560c082015181600501559050506001600e600082825461253d91906156d5565b9250508190555050565b6125586125526129de565b83612d0f565b612597576040517f08c379a000000000000000000000000000000000000000000000000000000000815260040161258e90615383565b60405180910390fd5b6125a384848484613393565b50505050565b60606125b36133ef565b60105460116000858152602001908152602001600020600001546040516020016125df93929190614f9e565b6040516020818303038152906040529050919050565b6125fe826120a2565b73ffffffffffffffffffffffffffffffffffffffff163373ffffffffffffffffffffffffffffffffffffffff1614801561266b575061263c816120a2565b73ffffffffffffffffffffffffffffffffffffffff163373ffffffffffffffffffffffffffffffffffffffff16145b61267457600080fd5b6011600082815260200190815260200160002060000154601160008481526020019081526020016000206000015411156126b7576126b2818361340f565b6126c2565b6126c1828261340f565b5b5050565b6000600660008473ffffffffffffffffffffffffffffffffffffffff1673ffffffffffffffffffffffffffffffffffffffff16815260200190815260200160002060008373ffffffffffffffffffffffffffffffffffffffff1673ffffffffffffffffffffffffffffffffffffffff16815260200190815260200160002060009054906101000a900460ff16905092915050565b6127626130e4565b600073ffffffffffffffffffffffffffffffffffffffff168173ffffffffffffffffffffffffffffffffffffffff1614156127d2576040517f08c379a00000000000000000000000000000000000000000000000000000000081526004016127c990615203565b60405180910390fd5b6127db81613162565b50565b6127f8828260405180602001604052806000815250613689565b5050565b6000612807826120a2565b9050612815816000846136e4565b6128206000836129e6565b6001600460008373ffffffffffffffffffffffffffffffffffffffff1673ffffffffffffffffffffffffffffffffffffffff168152602001908152602001600020600082825461287091906157b6565b925050819055506003600083815260200190815260200160002060006101000a81549073ffffffffffffffffffffffffffffffffffffffff021916905581600073ffffffffffffffffffffffffffffffffffffffff168273ffffffffffffffffffffffffffffffffffffffff167fddf252ad1be2c89b69c2b068fc378daa952ba7f163c4a11628f55a4df523b3ef60405160405180910390a4612915816000846136f4565b5050565b60007f780e9d63000000000000000000000000000000000000000000000000000000007bffffffffffffffffffffffffffffffffffffffffffffffffffffffff1916827bffffffffffffffffffffffffffffffffffffffffffffffffffffffff1916148061298c575061298b826136f9565b5b9050919050565b61299c81613036565b6129db576040517f08c379a00000000000000000000000000000000000000000000000000000000081526004016129d290615323565b60405180910390fd5b50565b600033905090565b816005600083815260200190815260200160002060006101000a81548173ffffffffffffffffffffffffffffffffffffffff021916908373ffffffffffffffffffffffffffffffffffffffff160217905550808273ffffffffffffffffffffffffffffffffffffffff16612a59836120a2565b73ffffffffffffffffffffffffffffffffffffffff167f8c5be1e5ebec7d5bd14f71427d1e84f3dd0314c0f7b2291e5b200ac8c7c3b92560405160405180910390a45050565b604051806060016040528060126000858152602001908152602001600020600001548152602001601260008581526020019081526020016000206001015481526020016001151581525060126000848152602001908152602001600020600082015181600001556020820151816001015560408201518160020160006101000a81548160ff0219169083151502179055509050506000612b76612b6f601160006012600088815260200190815260200160002060000154815260200190815260200160002060000154600a6130a2565b600b6130b8565b905060006011600060126000878152602001908152602001600020600101548152602001908152602001600020600001549050600060018284612bb991906156d5565b612bc391906156d5565b84600081518110612bfd577f4e487b7100000000000000000000000000000000000000000000000000000000600052603260045260246000fd5b602002602001015116905081831015612c8e57828111612c5257612c4d601260008781526020019081526020016000206000015460126000888152602001908152602001600020600101546137db565b612c89565b612c88601260008781526020019081526020016000206001015460126000888152602001908152602001600020600001546137db565b5b612d08565b818111612cd057612ccb601260008781526020019081526020016000206001015460126000888152602001908152602001600020600001546137db565b612d07565b612d06601260008781526020019081526020016000206000015460126000888152602001908152602001600020600101546137db565b5b5b5050505050565b600080612d1b836120a2565b90508073ffffffffffffffffffffffffffffffffffffffff168473ffffffffffffffffffffffffffffffffffffffff161480612d5d5750612d5c81856126c6565b5b80612d9b57508373ffffffffffffffffffffffffffffffffffffffff16612d8384610e50565b73ffffffffffffffffffffffffffffffffffffffff16145b91505092915050565b8273ffffffffffffffffffffffffffffffffffffffff16612dc4826120a2565b73ffffffffffffffffffffffffffffffffffffffff1614612e1a576040517f08c379a0000000000000000000000000000000000000000000000000000000008152600401612e1190615223565b60405180910390fd5b600073ffffffffffffffffffffffffffffffffffffffff168273ffffffffffffffffffffffffffffffffffffffff161415612e8a576040517f08c379a0000000000000000000000000000000000000000000000000000000008152600401612e8190615263565b60405180910390fd5b612e958383836136e4565b6005600082815260200190815260200160002060006101000a81549073ffffffffffffffffffffffffffffffffffffffff02191690556001600460008573ffffffffffffffffffffffffffffffffffffffff1673ffffffffffffffffffffffffffffffffffffffff1681526020019081526020016000206000828254612f1b91906157b6565b925050819055506001600460008473ffffffffffffffffffffffffffffffffffffffff1673ffffffffffffffffffffffffffffffffffffffff1681526020019081526020016000206000828254612f7291906156d5565b92505081905550816003600083815260200190815260200160002060006101000a81548173ffffffffffffffffffffffffffffffffffffffff021916908373ffffffffffffffffffffffffffffffffffffffff160217905550808273ffffffffffffffffffffffffffffffffffffffff168473ffffffffffffffffffffffffffffffffffffffff167fddf252ad1be2c89b69c2b068fc378daa952ba7f163c4a11628f55a4df523b3ef60405160405180910390a46130318383836136f4565b505050565b60008073ffffffffffffffffffffffffffffffffffffffff166003600084815260200190815260200160002060009054906101000a900473ffffffffffffffffffffffffffffffffffffffff1673ffffffffffffffffffffffffffffffffffffffff1614159050919050565b600081836130b0919061572b565b905092915050565b600081836130c6919061575c565b905092915050565b600081836130dc91906156d5565b905092915050565b6130ec6129de565b73ffffffffffffffffffffffffffffffffffffffff1661310a612240565b73ffffffffffffffffffffffffffffffffffffffff1614613160576040517f08c379a000000000000000000000000000000000000000000000000000000000815260040161315790615303565b60405180910390fd5b565b60008060009054906101000a900473ffffffffffffffffffffffffffffffffffffffff169050816000806101000a81548173ffffffffffffffffffffffffffffffffffffffff021916908373ffffffffffffffffffffffffffffffffffffffff1602179055508173ffffffffffffffffffffffffffffffffffffffff168173ffffffffffffffffffffffffffffffffffffffff167f8be0079c531659141344cd1fd0a4f28419497f9722a3daafe3b4186f6b6457e060405160405180910390a35050565b8173ffffffffffffffffffffffffffffffffffffffff168373ffffffffffffffffffffffffffffffffffffffff161415613295576040517f08c379a000000000000000000000000000000000000000000000000000000000815260040161328c90615283565b60405180910390fd5b80600660008573ffffffffffffffffffffffffffffffffffffffff1673ffffffffffffffffffffffffffffffffffffffff16815260200190815260200160002060008473ffffffffffffffffffffffffffffffffffffffff1673ffffffffffffffffffffffffffffffffffffffff16815260200190815260200160002060006101000a81548160ff0219169083151502179055508173ffffffffffffffffffffffffffffffffffffffff168373ffffffffffffffffffffffffffffffffffffffff167f17307eab39ab6107e8899845ad3d59bd9653f200f220920489ca2b5937696c31836040516133869190615118565b60405180910390a3505050565b61339e848484612da4565b6133aa84848484613ba4565b6133e9576040517f08c379a00000000000000000000000000000000000000000000000000000000081526004016133e0906151e3565b60405180910390fd5b50505050565b6060604051806060016040528060278152602001615f4260279139905090565b6040518060e00160405280613464601160008581526020019081526020016000206000015461345f613458601160008981526020019081526020016000206000015460056130a2565b60026130b8565b6130ce565b815260200161349f601160008581526020019081526020016000206001015460116000878152602001908152602001600020600101546130ce565b81526020016011600084815260200190815260200160002060020160009054906101000a900460ff16151581526020016011600084815260200190815260200160002060020160019054906101000a900460ff1615158152602001601160008481526020019081526020016000206003015481526020016011600085815260200190815260200160002060040154601160008581526020019081526020016000206004015461354e91906156d5565b81526020016011600085815260200190815260200160002060050154601160008581526020019081526020016000206005015461358b91906156d5565b81525060116000838152602001908152602001600020600082015181600001556020820151816001015560408201518160020160006101000a81548160ff02191690831515021790555060608201518160020160016101000a81548160ff0219169083151502179055506080820151816003015560a0820151816004015560c082015181600501559050506011600083815260200190815260200160002060008082016000905560018201600090556002820160006101000a81549060ff02191690556002820160016101000a81549060ff02191690556003820160009055600482016000905560058201600090555050613685826127fc565b5050565b6136938383613d3b565b6136a06000848484613ba4565b6136df576040517f08c379a00000000000000000000000000000000000000000000000000000000081526004016136d6906151e3565b60405180910390fd5b505050565b6136ef838383613f15565b505050565b505050565b60007f80ac58cd000000000000000000000000000000000000000000000000000000007bffffffffffffffffffffffffffffffffffffffffffffffffffffffff1916827bffffffffffffffffffffffffffffffffffffffffffffffffffffffff191614806137c457507f5b5e139f000000000000000000000000000000000000000000000000000000007bffffffffffffffffffffffffffffffffffffffffffffffffffffffff1916827bffffffffffffffffffffffffffffffffffffffffffffffffffffffff1916145b806137d457506137d382614029565b5b9050919050565b6040518060e001604052806138266011600086815260200190815260200160002060000154613821601160008781526020019081526020016000206000015460026130a2565b6130ce565b8152602001613861601160008681526020019081526020016000206001015460116000868152602001908152602001600020600101546130ce565b81526020016011600085815260200190815260200160002060020160009054906101000a900460ff16151581526020016000151581526020016011600085815260200190815260200160002060030154815260200160116000858152602001908152602001600020600401548152602001601160008581526020019081526020016000206005015481525060116000848152602001908152602001600020600082015181600001556020820151816001015560408201518160020160006101000a81548160ff02191690831515021790555060608201518160020160016101000a81548160ff0219169083151502179055506080820151816003015560a0820151816004015560c082015181600501559050506040518060e001604052806139bf60116000858152602001908152602001600020600001546139ba601160008781526020019081526020016000206000015460026130a2565b614093565b8152602001600081526020016011600084815260200190815260200160002060020160009054906101000a900460ff16151581526020016000151581526020016011600084815260200190815260200160002060030154815260200160116000848152602001908152602001600020600401548152602001601160008481526020019081526020016000206005015481525060116000838152602001908152602001600020600082015181600001556020820151816001015560408201518160020160006101000a81548160ff02191690831515021790555060608201518160020160016101000a81548160ff0219169083151502179055506080820151816003015560a0820151816004015560c082015181600501559050506001601160008381526020019081526020016000206000015411613b6757613b00816127fc565b6011600082815260200190815260200160002060008082016000905560018201600090556002820160006101000a81549060ff02191690556002820160016101000a81549060ff021916905560038201600090556004820160009055600582016000905550505b7fe3e5de625f06c35ac95bd3ba40466651dba519a568973305d33004b4415a58f88282604051613b98929190615541565b60405180910390a15050565b6000613bc58473ffffffffffffffffffffffffffffffffffffffff166140a9565b15613d2e578373ffffffffffffffffffffffffffffffffffffffff1663150b7a02613bee6129de565b8786866040518563ffffffff1660e01b8152600401613c10949392919061505d565b602060405180830381600087803b158015613c2a57600080fd5b505af1925050508015613c5b57506040513d601f19601f82011682018060405250810190613c5891906148bc565b60015b613cde573d8060008114613c8b576040519150601f19603f3d011682016040523d82523d6000602084013e613c90565b606091505b50600081511415613cd6576040517f08c379a0000000000000000000000000000000000000000000000000000000008152600401613ccd906151e3565b60405180910390fd5b805181602001fd5b63150b7a0260e01b7bffffffffffffffffffffffffffffffffffffffffffffffffffffffff1916817bffffffffffffffffffffffffffffffffffffffffffffffffffffffff191614915050613d33565b600190505b949350505050565b600073ffffffffffffffffffffffffffffffffffffffff168273ffffffffffffffffffffffffffffffffffffffff161415613dab576040517f08c379a0000000000000000000000000000000000000000000000000000000008152600401613da2906152e3565b60405180910390fd5b613db481613036565b15613df4576040517f08c379a0000000000000000000000000000000000000000000000000000000008152600401613deb90615243565b60405180910390fd5b613e00600083836136e4565b6001600460008473ffffffffffffffffffffffffffffffffffffffff1673ffffffffffffffffffffffffffffffffffffffff1681526020019081526020016000206000828254613e5091906156d5565b92505081905550816003600083815260200190815260200160002060006101000a81548173ffffffffffffffffffffffffffffffffffffffff021916908373ffffffffffffffffffffffffffffffffffffffff160217905550808273ffffffffffffffffffffffffffffffffffffffff16600073ffffffffffffffffffffffffffffffffffffffff167fddf252ad1be2c89b69c2b068fc378daa952ba7f163c4a11628f55a4df523b3ef60405160405180910390a4613f11600083836136f4565b5050565b613f208383836140cc565b600073ffffffffffffffffffffffffffffffffffffffff168373ffffffffffffffffffffffffffffffffffffffff161415613f6357613f5e816140d1565b613fa2565b8173ffffffffffffffffffffffffffffffffffffffff168373ffffffffffffffffffffffffffffffffffffffff1614613fa157613fa0838261411a565b5b5b600073ffffffffffffffffffffffffffffffffffffffff168273ffffffffffffffffffffffffffffffffffffffff161415613fe557613fe081614287565b614024565b8273ffffffffffffffffffffffffffffffffffffffff168273ffffffffffffffffffffffffffffffffffffffff16146140235761402282826143ca565b5b5b505050565b60007f01ffc9a7000000000000000000000000000000000000000000000000000000007bffffffffffffffffffffffffffffffffffffffffffffffffffffffff1916827bffffffffffffffffffffffffffffffffffffffffffffffffffffffff1916149050919050565b600081836140a191906157b6565b905092915050565b6000808273ffffffffffffffffffffffffffffffffffffffff163b119050919050565b505050565b600980549050600a600083815260200190815260200160002081905550600981908060018154018082558091505060019003906000526020600020016000909190919091505550565b6000600161412784612154565b61413191906157b6565b9050600060086000848152602001908152602001600020549050818114614216576000600760008673ffffffffffffffffffffffffffffffffffffffff1673ffffffffffffffffffffffffffffffffffffffff168152602001908152602001600020600084815260200190815260200160002054905080600760008773ffffffffffffffffffffffffffffffffffffffff1673ffffffffffffffffffffffffffffffffffffffff168152602001908152602001600020600084815260200190815260200160002081905550816008600083815260200190815260200160002081905550505b6008600084815260200190815260200160002060009055600760008573ffffffffffffffffffffffffffffffffffffffff1673ffffffffffffffffffffffffffffffffffffffff16815260200190815260200160002060008381526020019081526020016000206000905550505050565b6000600160098054905061429b91906157b6565b90506000600a60008481526020019081526020016000205490506000600983815481106142f1577f4e487b7100000000000000000000000000000000000000000000000000000000600052603260045260246000fd5b906000526020600020015490508060098381548110614339577f4e487b7100000000000000000000000000000000000000000000000000000000600052603260045260246000fd5b906000526020600020018190555081600a600083815260200190815260200160002081905550600a60008581526020019081526020016000206000905560098054806143ae577f4e487b7100000000000000000000000000000000000000000000000000000000600052603160045260246000fd5b6001900381819060005260206000200160009055905550505050565b60006143d583612154565b905081600760008573ffffffffffffffffffffffffffffffffffffffff1673ffffffffffffffffffffffffffffffffffffffff168152602001908152602001600020600083815260200190815260200160002081905550806008600084815260200190815260200160002081905550505050565b600061445c61445784615635565b615610565b9050808382526020820190508285602086028201111561447b57600080fd5b60005b858110156144ab5781614491888261460f565b84526020840193506020830192505060018101905061447e565b5050509392505050565b60006144c86144c384615661565b615610565b9050828152602081018484840111156144e057600080fd5b6144eb8482856158d0565b509392505050565b60008135905061450281615ea0565b92915050565b60008151905061451781615eb7565b92915050565b600082601f83011261452e57600080fd5b813561453e848260208601614449565b91505092915050565b60008135905061455681615ece565b92915050565b60008135905061456b81615ee5565b92915050565b60008151905061458081615ee5565b92915050565b60008083601f84011261459857600080fd5b8235905067ffffffffffffffff8111156145b157600080fd5b6020830191508360018202830111156145c957600080fd5b9250929050565b600082601f8301126145e157600080fd5b81356145f18482602086016144b5565b91505092915050565b60008135905061460981615efc565b92915050565b60008135905061461e81615f13565b92915050565b60008151905061463381615f13565b92915050565b60008135905061464881615f2a565b92915050565b60006020828403121561466057600080fd5b600061466e848285016144f3565b91505092915050565b600080600080600080600060e0888a03121561469257600080fd5b60006146a08a828b01614508565b97505060206146b18a828b01614624565b96505060406146c28a828b01614624565b95505060606146d38a828b01614624565b94505060806146e48a828b01614624565b93505060a06146f58a828b01614624565b92505060c06147068a828b01614624565b91505092959891949750929550565b6000806040838503121561472857600080fd5b6000614736858286016144f3565b9250506020614747858286016144f3565b9150509250929050565b60008060006060848603121561476657600080fd5b6000614774868287016144f3565b9350506020614785868287016144f3565b92505060406147968682870161460f565b9150509250925092565b600080600080608085870312156147b657600080fd5b60006147c4878288016144f3565b94505060206147d5878288016144f3565b93505060406147e68782880161460f565b925050606085013567ffffffffffffffff81111561480357600080fd5b61480f878288016145d0565b91505092959194509250565b6000806040838503121561482e57600080fd5b600061483c858286016144f3565b925050602061484d85828601614547565b9150509250929050565b6000806040838503121561486a57600080fd5b6000614878858286016144f3565b92505060206148898582860161460f565b9150509250929050565b6000602082840312156148a557600080fd5b60006148b38482850161455c565b91505092915050565b6000602082840312156148ce57600080fd5b60006148dc84828501614571565b91505092915050565b600080600080600080600060a0888a03121561490057600080fd5b600061490e8a828b016145fa565b975050602061491f8a828b016144f3565b965050604088013567ffffffffffffffff81111561493c57600080fd5b6149488a828b01614586565b9550955050606061495b8a828b01614547565b935050608088013567ffffffffffffffff81111561497857600080fd5b6149848a828b01614586565b925092505092959891949750929550565b6000806000806000608086880312156149ad57600080fd5b60006149bb888289016145fa565b955050602086013567ffffffffffffffff8111156149d857600080fd5b6149e488828901614586565b945094505060406149f78882890161460f565b9250506060614a088882890161460f565b9150509295509295909350565b60008060008060808587031215614a2b57600080fd5b6000614a39878288016145fa565b945050602085013567ffffffffffffffff811115614a5657600080fd5b614a62878288016145d0565b9350506040614a7387828801614639565b925050606085013567ffffffffffffffff811115614a9057600080fd5b614a9c878288016145d0565b91505092959194509250565b600060208284031215614aba57600080fd5b6000614ac88482850161460f565b91505092915050565b600060208284031215614ae357600080fd5b6000614af184828501614624565b91505092915050565b60008060408385031215614b0d57600080fd5b6000614b1b8582860161460f565b925050602083013567ffffffffffffffff811115614b3857600080fd5b614b448582860161451d565b9150509250929050565b60008060408385031215614b6157600080fd5b6000614b6f8582860161460f565b9250506020614b808582860161460f565b9150509250929050565b60008060408385031215614b9d57600080fd5b6000614bab85828601614624565b9250506020614bbc85828601614624565b9150509250929050565b614bcf816157fc565b82525050565b614bde816157ea565b82525050565b614bed8161580e565b82525050565b614bfc8161581a565b82525050565b6000614c0e83856156a8565b9350614c1b8385846158d0565b614c2483615a4d565b840190509392505050565b6000614c3a82615692565b614c4481856156a8565b9350614c548185602086016158df565b614c5d81615a4d565b840191505092915050565b614c71816158ac565b82525050565b6000614c828261569d565b614c8c81856156b9565b9350614c9c8185602086016158df565b614ca581615a4d565b840191505092915050565b6000614cbb8261569d565b614cc581856156ca565b9350614cd58185602086016158df565b80840191505092915050565b6000614cee602b836156b9565b9150614cf982615a6b565b604082019050919050565b6000614d116032836156b9565b9150614d1c82615aba565b604082019050919050565b6000614d346026836156b9565b9150614d3f82615b09565b604082019050919050565b6000614d576025836156b9565b9150614d6282615b58565b604082019050919050565b6000614d7a601c836156b9565b9150614d8582615ba7565b602082019050919050565b6000614d9d6024836156b9565b9150614da882615bd0565b604082019050919050565b6000614dc06019836156b9565b9150614dcb82615c1f565b602082019050919050565b6000614de36029836156b9565b9150614dee82615c48565b604082019050919050565b6000614e06603e836156b9565b9150614e1182615c97565b604082019050919050565b6000614e296020836156b9565b9150614e3482615ce6565b602082019050919050565b6000614e4c6007836156ca565b9150614e5782615d0f565b600782019050919050565b6000614e6f6020836156b9565b9150614e7a82615d38565b602082019050919050565b6000614e926018836156b9565b9150614e9d82615d61565b602082019050919050565b6000614eb56021836156b9565b9150614ec082615d8a565b604082019050919050565b6000614ed86009836156ca565b9150614ee382615dd9565b600982019050919050565b6000614efb602c836156b9565b9150614f0682615e02565b604082019050919050565b6000614f1e602e836156b9565b9150614f2982615e51565b604082019050919050565b614f3d81615850565b82525050565b614f54614f4f82615850565b615975565b82525050565b614f638161587e565b82525050565b614f7a614f758261587e565b615987565b82525050565b614f8981615888565b82525050565b614f9881615898565b82525050565b6000614faa8286614cb0565b9150614fb582614ecb565b9150614fc18285614f69565b602082019150614fd082614e3f565b9150614fdc8284614f69565b602082019150819050949350505050565b6000614ff98285614f43565b6002820191506150098284614f69565b6020820191508190509392505050565b600060208201905061502e6000830184614bd5565b92915050565b60006040820190506150496000830185614bd5565b6150566020830184614bd5565b9392505050565b60006080820190506150726000830187614bd5565b61507f6020830186614bd5565b61508c6040830185614f5a565b818103606083015261509e8184614c2f565b905095945050505050565b600060e0820190506150be600083018a614bd5565b6150cb6020830189614f5a565b6150d86040830188614f5a565b6150e56060830187614f5a565b6150f26080830186614f5a565b6150ff60a0830185614f5a565b61510c60c0830184614f5a565b98975050505050505050565b600060208201905061512d6000830184614be4565b92915050565b600060a0820190506151486000830188614bf3565b6151556020830187614f8f565b6151626040830186614f34565b61516f6060830185614f80565b61517c6080830184614f80565b9695505050505050565b600060208201905061519b6000830184614c68565b92915050565b600060208201905081810360008301526151bb8184614c77565b905092915050565b600060208201905081810360008301526151dc81614ce1565b9050919050565b600060208201905081810360008301526151fc81614d04565b9050919050565b6000602082019050818103600083015261521c81614d27565b9050919050565b6000602082019050818103600083015261523c81614d4a565b9050919050565b6000602082019050818103600083015261525c81614d6d565b9050919050565b6000602082019050818103600083015261527c81614d90565b9050919050565b6000602082019050818103600083015261529c81614db3565b9050919050565b600060208201905081810360008301526152bc81614dd6565b9050919050565b600060208201905081810360008301526152dc81614df9565b9050919050565b600060208201905081810360008301526152fc81614e1c565b9050919050565b6000602082019050818103600083015261531c81614e62565b9050919050565b6000602082019050818103600083015261533c81614e85565b9050919050565b6000602082019050818103600083015261535c81614ea8565b9050919050565b6000602082019050818103600083015261537c81614eee565b9050919050565b6000602082019050818103600083015261539c81614f11565b9050919050565b600060a0820190506153b8600083018a614f34565b6153c56020830189614bd5565b81810360408301526153d8818789614c02565b90506153e76060830186614be4565b81810360808301526153fa818486614c02565b905098975050505050505050565b600060a08201905061541d6000830188614f34565b61542a6020830187614bd5565b818103604083015261543c8186614c2f565b905061544b6060830185614be4565b818103608083015261545d8184614c2f565b90509695505050505050565b600060808201905061547e6000830187614f34565b61548b6020830186614bd5565b6154986040830185614f5a565b6154a56060830184614f5a565b95945050505050565b600060c0820190506154c3600083018a614f34565b81810360208301526154d681888a614c02565b905081810360408301526154ea8187614c2f565b90506154f96060830186614bc6565b6155066080830185614bd5565b81810360a08301526155188184614c2f565b905098975050505050505050565b600060208201905061553b6000830184614f5a565b92915050565b60006040820190506155566000830185614f5a565b6155636020830184614f5a565b9392505050565b600060608201905061557f6000830186614f5a565b61558c6020830185614f5a565b6155996040830184614be4565b949350505050565b600060e0820190506155b6600083018a614f5a565b6155c36020830189614f5a565b6155d06040830188614be4565b6155dd6060830187614be4565b6155ea6080830186614f5a565b6155f760a0830185614f5a565b61560460c0830184614f5a565b98975050505050505050565b600061561a61562b565b90506156268282615944565b919050565b6000604051905090565b600067ffffffffffffffff8211156156505761564f615a1e565b5b602082029050602081019050919050565b600067ffffffffffffffff82111561567c5761567b615a1e565b5b61568582615a4d565b9050602081019050919050565b600081519050919050565b600081519050919050565b600082825260208201905092915050565b600082825260208201905092915050565b600081905092915050565b60006156e08261587e565b91506156eb8361587e565b9250827fffffffffffffffffffffffffffffffffffffffffffffffffffffffffffffffff038211156157205761571f615991565b5b828201905092915050565b60006157368261587e565b91506157418361587e565b925082615751576157506159c0565b5b828204905092915050565b60006157678261587e565b91506157728361587e565b9250817fffffffffffffffffffffffffffffffffffffffffffffffffffffffffffffffff04831182151516156157ab576157aa615991565b5b828202905092915050565b60006157c18261587e565b91506157cc8361587e565b9250828210156157df576157de615991565b5b828203905092915050565b60006157f58261585e565b9050919050565b60006158078261585e565b9050919050565b60008115159050919050565b6000819050919050565b60007fffffffff0000000000000000000000000000000000000000000000000000000082169050919050565b600061ffff82169050919050565b600073ffffffffffffffffffffffffffffffffffffffff82169050919050565b6000819050919050565b600063ffffffff82169050919050565b600067ffffffffffffffff82169050919050565b60006158b7826158be565b9050919050565b60006158c98261585e565b9050919050565b82818337600083830152505050565b60005b838110156158fd5780820151818401526020810190506158e2565b8381111561590c576000848401525b50505050565b6000600282049050600182168061592a57607f821691505b6020821081141561593e5761593d6159ef565b5b50919050565b61594d82615a4d565b810181811067ffffffffffffffff8211171561596c5761596b615a1e565b5b80604052505050565b600061598082615a5e565b9050919050565b6000819050919050565b7f4e487b7100000000000000000000000000000000000000000000000000000000600052601160045260246000fd5b7f4e487b7100000000000000000000000000000000000000000000000000000000600052601260045260246000fd5b7f4e487b7100000000000000000000000000000000000000000000000000000000600052602260045260246000fd5b7f4e487b7100000000000000000000000000000000000000000000000000000000600052604160045260246000fd5b6000601f19601f8301169050919050565b60008160f01b9050919050565b7f455243373231456e756d657261626c653a206f776e657220696e646578206f7560008201527f74206f6620626f756e6473000000000000000000000000000000000000000000602082015250565b7f4552433732313a207472616e7366657220746f206e6f6e20455243373231526560008201527f63656976657220696d706c656d656e7465720000000000000000000000000000602082015250565b7f4f776e61626c653a206e6577206f776e657220697320746865207a65726f206160008201527f6464726573730000000000000000000000000000000000000000000000000000602082015250565b7f4552433732313a207472616e736665722066726f6d20696e636f72726563742060008201527f6f776e6572000000000000000000000000000000000000000000000000000000602082015250565b7f4552433732313a20746f6b656e20616c7265616479206d696e74656400000000600082015250565b7f4552433732313a207472616e7366657220746f20746865207a65726f2061646460008201527f7265737300000000000000000000000000000000000000000000000000000000602082015250565b7f4552433732313a20617070726f766520746f2063616c6c657200000000000000600082015250565b7f4552433732313a2061646472657373207a65726f206973206e6f74206120766160008201527f6c6964206f776e65720000000000000000000000000000000000000000000000602082015250565b7f4552433732313a20617070726f76652063616c6c6572206973206e6f7420746f60008201527f6b656e206f776e6572206e6f7220617070726f76656420666f7220616c6c0000602082015250565b7f4552433732313a206d696e7420746f20746865207a65726f2061646472657373600082015250565b7f26706f7765723d00000000000000000000000000000000000000000000000000600082015250565b7f4f776e61626c653a2063616c6c6572206973206e6f7420746865206f776e6572600082015250565b7f4552433732313a20696e76616c696420746f6b656e2049440000000000000000600082015250565b7f4552433732313a20617070726f76616c20746f2063757272656e74206f776e6560008201527f7200000000000000000000000000000000000000000000000000000000000000602082015250565b7f3f636861696e49643d0000000000000000000000000000000000000000000000600082015250565b7f455243373231456e756d657261626c653a20676c6f62616c20696e646578206f60008201527f7574206f6620626f756e64730000000000000000000000000000000000000000602082015250565b7f4552433732313a2063616c6c6572206973206e6f7420746f6b656e206f776e6560008201527f72206e6f7220617070726f766564000000000000000000000000000000000000602082015250565b615ea9816157ea565b8114615eb457600080fd5b50565b615ec0816157fc565b8114615ecb57600080fd5b50565b615ed78161580e565b8114615ee257600080fd5b50565b615eee81615824565b8114615ef957600080fd5b50565b615f0581615850565b8114615f1057600080fd5b50565b615f1c8161587e565b8114615f2757600080fd5b50565b615f3381615898565b8114615f3e57600080fd5b5056fe68747470733a2f2f6e66742d666c6565742d7365727665722e6865726f6b756170702e636f6d2fa2646970667358221220daa146ca2304b0fb041326ae926850ece62769c08bd24262ec0c327e781de33864736f6c63430008040033",
  "linkReferences": {},
  "deployedLinkReferences": {}
}