{
  "_format": "hh-sol-artifact-1",
  "contractName": "OmniChainNFT",
  "sourceName": "contracts/OmniChainNFT.sol",
  "abi": [
    {
      "inputs": [
        {
          "internalType": "address",
          "name": "_endpoint",
          "type": "address"
        },
        {
          "internalType": "uint256",
          "name": "_chainId",
          "type": "uint256"
        },
        {
          "internalType": "uint256",
          "name": "startId",
          "type": "uint256"
        },
        {
          "internalType": "uint256",
          "name": "_max",
          "type": "uint256"
        },
        {
          "internalType": "uint64",
          "name": "subscriptionId",
          "type": "uint64"
        }
      ],
      "stateMutability": "nonpayable",
      "type": "constructor"
    },
    {
      "inputs": [
        {
          "internalType": "address",
          "name": "have",
          "type": "address"
        },
        {
          "internalType": "address",
          "name": "want",
          "type": "address"
        }
      ],
      "name": "OnlyCoordinatorCanFulfill",
      "type": "error"
    },
    {
      "anonymous": false,
      "inputs": [
        {
          "indexed": true,
          "internalType": "address",
          "name": "owner",
          "type": "address"
        },
        {
          "indexed": true,
          "internalType": "address",
          "name": "approved",
          "type": "address"
        },
        {
          "indexed": true,
          "internalType": "uint256",
          "name": "tokenId",
          "type": "uint256"
        }
      ],
      "name": "Approval",
      "type": "event"
    },
    {
      "anonymous": false,
      "inputs": [
        {
          "indexed": true,
          "internalType": "address",
          "name": "owner",
          "type": "address"
        },
        {
          "indexed": true,
          "internalType": "address",
          "name": "operator",
          "type": "address"
        },
        {
          "indexed": false,
          "internalType": "bool",
          "name": "approved",
          "type": "bool"
        }
      ],
      "name": "ApprovalForAll",
      "type": "event"
    },
    {
      "anonymous": false,
      "inputs": [
        {
          "indexed": false,
          "internalType": "uint256",
          "name": "winner",
          "type": "uint256"
        },
        {
          "indexed": false,
          "internalType": "uint256",
          "name": "loser",
          "type": "uint256"
        }
      ],
      "name": "BattleComplete",
      "type": "event"
    },
    {
      "anonymous": false,
      "inputs": [
        {
          "indexed": false,
          "internalType": "uint256",
          "name": "target",
          "type": "uint256"
        },
        {
          "indexed": false,
          "internalType": "bool",
          "name": "survived",
          "type": "bool"
        }
      ],
      "name": "Missle",
      "type": "event"
    },
    {
      "anonymous": false,
      "inputs": [
        {
          "indexed": true,
          "internalType": "address",
          "name": "previousOwner",
          "type": "address"
        },
        {
          "indexed": true,
          "internalType": "address",
          "name": "newOwner",
          "type": "address"
        }
      ],
      "name": "OwnershipTransferred",
      "type": "event"
    },
    {
      "anonymous": false,
      "inputs": [
        {
          "indexed": false,
          "internalType": "uint16",
          "name": "_srcChainId",
          "type": "uint16"
        },
        {
          "indexed": false,
          "internalType": "address",
          "name": "_from",
          "type": "address"
        },
        {
          "indexed": false,
          "internalType": "uint256",
          "name": "_tokenId",
          "type": "uint256"
        },
        {
          "indexed": false,
          "internalType": "uint256",
          "name": "counter",
          "type": "uint256"
        }
      ],
      "name": "ReceiveNFT",
      "type": "event"
    },
    {
      "anonymous": false,
      "inputs": [
        {
          "indexed": true,
          "internalType": "address",
          "name": "from",
          "type": "address"
        },
        {
          "indexed": true,
          "internalType": "address",
          "name": "to",
          "type": "address"
        },
        {
          "indexed": true,
          "internalType": "uint256",
          "name": "tokenId",
          "type": "uint256"
        }
      ],
      "name": "Transfer",
      "type": "event"
    },
    {
      "inputs": [
        {
          "internalType": "address",
          "name": "to",
          "type": "address"
        },
        {
          "internalType": "uint256",
          "name": "tokenId",
          "type": "uint256"
        }
      ],
      "name": "approve",
      "outputs": [],
      "stateMutability": "nonpayable",
      "type": "function"
    },
    {
      "inputs": [
        {
          "internalType": "address",
          "name": "owner",
          "type": "address"
        }
      ],
      "name": "balanceOf",
      "outputs": [
        {
          "internalType": "uint256",
          "name": "",
          "type": "uint256"
        }
      ],
      "stateMutability": "view",
      "type": "function"
    },
    {
      "inputs": [
        {
          "internalType": "uint256",
          "name": "attackerTokenId",
          "type": "uint256"
        },
        {
          "internalType": "uint256",
          "name": "defenderTokenId",
          "type": "uint256"
        }
      ],
      "name": "battle",
      "outputs": [
        {
          "internalType": "uint256",
          "name": "requestId",
          "type": "uint256"
        }
      ],
      "stateMutability": "nonpayable",
      "type": "function"
    },
    {
      "inputs": [
        {
          "internalType": "uint256",
          "name": "",
          "type": "uint256"
        }
      ],
      "name": "battles",
      "outputs": [
        {
          "internalType": "uint256",
          "name": "attackerTokenId",
          "type": "uint256"
        },
        {
          "internalType": "uint256",
          "name": "defenderTokenId",
          "type": "uint256"
        },
        {
          "internalType": "bool",
          "name": "battleFinished",
          "type": "bool"
        }
      ],
      "stateMutability": "view",
      "type": "function"
    },
    {
      "inputs": [
        {
          "internalType": "uint256",
          "name": "amount",
          "type": "uint256"
        },
        {
          "internalType": "uint256",
          "name": "item",
          "type": "uint256"
        },
        {
          "internalType": "uint256",
          "name": "tokenId",
          "type": "uint256"
        }
      ],
      "name": "buyStuff",
      "outputs": [],
      "stateMutability": "nonpayable",
      "type": "function"
    },
    {
      "inputs": [
        {
          "internalType": "uint256",
          "name": "tokenId",
          "type": "uint256"
        }
      ],
      "name": "claim",
      "outputs": [],
      "stateMutability": "nonpayable",
      "type": "function"
    },
    {
      "inputs": [
        {
          "internalType": "uint16",
          "name": "_dstChainId",
          "type": "uint16"
        },
        {
          "internalType": "bytes",
          "name": "_destination",
          "type": "bytes"
        },
        {
          "internalType": "uint256",
          "name": "tokenId",
          "type": "uint256"
        },
        {
          "internalType": "uint256",
          "name": "missleTarget",
          "type": "uint256"
        }
      ],
      "name": "crossChain",
      "outputs": [],
      "stateMutability": "payable",
      "type": "function"
    },
    {
      "inputs": [],
      "name": "endpoint",
      "outputs": [
        {
          "internalType": "contract ILayerZeroEndpoint",
          "name": "",
          "type": "address"
        }
      ],
      "stateMutability": "view",
      "type": "function"
    },
    {
      "inputs": [
        {
          "internalType": "uint16",
          "name": "_dstChainId",
          "type": "uint16"
        },
        {
          "internalType": "address",
          "name": "_userApplication",
          "type": "address"
        },
        {
          "internalType": "bytes",
          "name": "_payload",
          "type": "bytes"
        },
        {
          "internalType": "bool",
          "name": "_payInZRO",
          "type": "bool"
        },
        {
          "internalType": "bytes",
          "name": "_adapterParams",
          "type": "bytes"
        }
      ],
      "name": "estimateFees",
      "outputs": [
        {
          "internalType": "uint256",
          "name": "nativeFee",
          "type": "uint256"
        },
        {
          "internalType": "uint256",
          "name": "zroFee",
          "type": "uint256"
        }
      ],
      "stateMutability": "view",
      "type": "function"
    },
    {
      "inputs": [
        {
          "internalType": "uint256",
          "name": "tokenId",
          "type": "uint256"
        }
      ],
      "name": "getApproved",
      "outputs": [
        {
          "internalType": "address",
          "name": "",
          "type": "address"
        }
      ],
      "stateMutability": "view",
      "type": "function"
    },
    {
      "inputs": [
        {
          "internalType": "uint256",
          "name": "_id",
          "type": "uint256"
        }
      ],
      "name": "getSpaceshipByTokenId",
      "outputs": [
        {
          "components": [
            {
              "internalType": "uint256",
              "name": "power",
              "type": "uint256"
            },
            {
              "internalType": "uint256",
              "name": "points",
              "type": "uint256"
            },
            {
              "internalType": "bool",
              "name": "staked",
              "type": "bool"
            },
            {
              "internalType": "bool",
              "name": "inBattle",
              "type": "bool"
            },
            {
              "internalType": "uint256",
              "name": "stakeStartTime",
              "type": "uint256"
            },
            {
              "internalType": "uint256",
              "name": "tokenMissiles",
              "type": "uint256"
            },
            {
              "internalType": "uint256",
              "name": "tokenShields",
              "type": "uint256"
            }
          ],
          "internalType": "struct OmniChainNFT.Spaceship",
          "name": "spaceship",
          "type": "tuple"
        }
      ],
      "stateMutability": "view",
      "type": "function"
    },
    {
      "inputs": [],
      "name": "getStakingRate",
      "outputs": [
        {
          "internalType": "uint256",
          "name": "",
          "type": "uint256"
        }
      ],
      "stateMutability": "view",
      "type": "function"
    },
    {
      "inputs": [
        {
          "internalType": "address",
          "name": "owner",
          "type": "address"
        },
        {
          "internalType": "address",
          "name": "operator",
          "type": "address"
        }
      ],
      "name": "isApprovedForAll",
      "outputs": [
        {
          "internalType": "bool",
          "name": "",
          "type": "bool"
        }
      ],
      "stateMutability": "view",
      "type": "function"
    },
    {
      "inputs": [
        {
          "internalType": "uint16",
          "name": "_srcChainId",
          "type": "uint16"
        },
        {
          "internalType": "bytes",
          "name": "_from",
          "type": "bytes"
        },
        {
          "internalType": "uint64",
          "name": "",
          "type": "uint64"
        },
        {
          "internalType": "bytes",
          "name": "_payload",
          "type": "bytes"
        }
      ],
      "name": "lzReceive",
      "outputs": [],
      "stateMutability": "nonpayable",
      "type": "function"
    },
    {
      "inputs": [
        {
          "internalType": "uint256",
          "name": "tokenId1",
          "type": "uint256"
        },
        {
          "internalType": "uint256",
          "name": "tokenId2",
          "type": "uint256"
        }
      ],
      "name": "merge",
      "outputs": [],
      "stateMutability": "nonpayable",
      "type": "function"
    },
    {
      "inputs": [],
      "name": "mint",
      "outputs": [],
      "stateMutability": "payable",
      "type": "function"
    },
    {
      "inputs": [],
      "name": "name",
      "outputs": [
        {
          "internalType": "string",
          "name": "",
          "type": "string"
        }
      ],
      "stateMutability": "view",
      "type": "function"
    },
    {
      "inputs": [],
      "name": "owner",
      "outputs": [
        {
          "internalType": "address",
          "name": "",
          "type": "address"
        }
      ],
      "stateMutability": "view",
      "type": "function"
    },
    {
      "inputs": [
        {
          "internalType": "uint256",
          "name": "tokenId",
          "type": "uint256"
        }
      ],
      "name": "ownerOf",
      "outputs": [
        {
          "internalType": "address",
          "name": "",
          "type": "address"
        }
      ],
      "stateMutability": "view",
      "type": "function"
    },
    {
      "inputs": [
        {
          "internalType": "uint256",
          "name": "requestId",
          "type": "uint256"
        },
        {
          "internalType": "uint256[]",
          "name": "randomWords",
          "type": "uint256[]"
        }
      ],
      "name": "rawFulfillRandomWords",
      "outputs": [],
      "stateMutability": "nonpayable",
      "type": "function"
    },
    {
      "inputs": [],
      "name": "renounceOwnership",
      "outputs": [],
      "stateMutability": "nonpayable",
      "type": "function"
    },
    {
      "inputs": [
        {
          "internalType": "address",
          "name": "from",
          "type": "address"
        },
        {
          "internalType": "address",
          "name": "to",
          "type": "address"
        },
        {
          "internalType": "uint256",
          "name": "tokenId",
          "type": "uint256"
        }
      ],
      "name": "safeTransferFrom",
      "outputs": [],
      "stateMutability": "nonpayable",
      "type": "function"
    },
    {
      "inputs": [
        {
          "internalType": "address",
          "name": "from",
          "type": "address"
        },
        {
          "internalType": "address",
          "name": "to",
          "type": "address"
        },
        {
          "internalType": "uint256",
          "name": "tokenId",
          "type": "uint256"
        },
        {
          "internalType": "bytes",
          "name": "data",
          "type": "bytes"
        }
      ],
      "name": "safeTransferFrom",
      "outputs": [],
      "stateMutability": "nonpayable",
      "type": "function"
    },
    {
      "inputs": [
        {
          "internalType": "address",
          "name": "operator",
          "type": "address"
        },
        {
          "internalType": "bool",
          "name": "approved",
          "type": "bool"
        }
      ],
      "name": "setApprovalForAll",
      "outputs": [],
      "stateMutability": "nonpayable",
      "type": "function"
    },
    {
      "inputs": [
        {
          "internalType": "uint256",
          "name": "",
          "type": "uint256"
        }
      ],
      "name": "spaceships",
      "outputs": [
        {
          "internalType": "uint256",
          "name": "power",
          "type": "uint256"
        },
        {
          "internalType": "uint256",
          "name": "points",
          "type": "uint256"
        },
        {
          "internalType": "bool",
          "name": "staked",
          "type": "bool"
        },
        {
          "internalType": "bool",
          "name": "inBattle",
          "type": "bool"
        },
        {
          "internalType": "uint256",
          "name": "stakeStartTime",
          "type": "uint256"
        },
        {
          "internalType": "uint256",
          "name": "tokenMissiles",
          "type": "uint256"
        },
        {
          "internalType": "uint256",
          "name": "tokenShields",
          "type": "uint256"
        }
      ],
      "stateMutability": "view",
      "type": "function"
    },
    {
      "inputs": [
        {
          "internalType": "uint256",
          "name": "tokenId",
          "type": "uint256"
        }
      ],
      "name": "stake",
      "outputs": [],
      "stateMutability": "nonpayable",
      "type": "function"
    },
    {
      "inputs": [
        {
          "internalType": "bytes4",
          "name": "interfaceId",
          "type": "bytes4"
        }
      ],
      "name": "supportsInterface",
      "outputs": [
        {
          "internalType": "bool",
          "name": "",
          "type": "bool"
        }
      ],
      "stateMutability": "view",
      "type": "function"
    },
    {
      "inputs": [],
      "name": "symbol",
      "outputs": [
        {
          "internalType": "string",
          "name": "",
          "type": "string"
        }
      ],
      "stateMutability": "view",
      "type": "function"
    },
    {
      "inputs": [
        {
          "internalType": "uint256",
          "name": "index",
          "type": "uint256"
        }
      ],
      "name": "tokenByIndex",
      "outputs": [
        {
          "internalType": "uint256",
          "name": "",
          "type": "uint256"
        }
      ],
      "stateMutability": "view",
      "type": "function"
    },
    {
      "inputs": [
        {
          "internalType": "uint256",
          "name": "",
          "type": "uint256"
        }
      ],
      "name": "tokenHasTravelled",
      "outputs": [
        {
          "internalType": "bool",
          "name": "",
          "type": "bool"
        }
      ],
      "stateMutability": "view",
      "type": "function"
    },
    {
      "inputs": [
        {
          "internalType": "address",
          "name": "owner",
          "type": "address"
        },
        {
          "internalType": "uint256",
          "name": "index",
          "type": "uint256"
        }
      ],
      "name": "tokenOfOwnerByIndex",
      "outputs": [
        {
          "internalType": "uint256",
          "name": "",
          "type": "uint256"
        }
      ],
      "stateMutability": "view",
      "type": "function"
    },
    {
      "inputs": [
        {
          "internalType": "uint256",
          "name": "_tokenId",
          "type": "uint256"
        }
      ],
      "name": "tokenURI",
      "outputs": [
        {
          "internalType": "string",
          "name": "",
          "type": "string"
        }
      ],
      "stateMutability": "view",
      "type": "function"
    },
    {
      "inputs": [],
      "name": "totalSupply",
      "outputs": [
        {
          "internalType": "uint256",
          "name": "",
          "type": "uint256"
        }
      ],
      "stateMutability": "view",
      "type": "function"
    },
    {
      "inputs": [
        {
          "internalType": "address",
          "name": "from",
          "type": "address"
        },
        {
          "internalType": "address",
          "name": "to",
          "type": "address"
        },
        {
          "internalType": "uint256",
          "name": "tokenId",
          "type": "uint256"
        }
      ],
      "name": "transferFrom",
      "outputs": [],
      "stateMutability": "nonpayable",
      "type": "function"
    },
    {
      "inputs": [
        {
          "internalType": "address",
          "name": "newOwner",
          "type": "address"
        }
      ],
      "name": "transferOwnership",
      "outputs": [],
      "stateMutability": "nonpayable",
      "type": "function"
    },
    {
      "inputs": [
        {
          "internalType": "uint256",
          "name": "tokenId",
          "type": "uint256"
        }
      ],
      "name": "unstake",
      "outputs": [],
      "stateMutability": "nonpayable",
      "type": "function"
    }
  ],
  "bytecode": "0x60a06040526000600b556000600c556064600d556000600e5562055730600f55736168499c0cffcacd319c818142124b7a15e857ab601560006101000a81548173ffffffffffffffffffffffffffffffffffffffff021916908373ffffffffffffffffffffffffffffffffffffffff1602179055507fd89b2bf150e3b9e13446986e571fb9cab24b13cea0a43ea20a6049a85cc807cc60001b60165562030d40601760006101000a81548163ffffffff021916908363ffffffff1602179055506003601760046101000a81548161ffff021916908361ffff1602179055506001601760066101000a81548163ffffffff021916908363ffffffff1602179055503480156200010c57600080fd5b5060405162006281380380620062818339818101604052810190620001329190620004fa565b601560009054906101000a900473ffffffffffffffffffffffffffffffffffffffff166040518060400160405280600c81526020017f4f6d6e69436861696e4e465400000000000000000000000000000000000000008152506040518060400160405280600981526020017f5370616365736869700000000000000000000000000000000000000000000000815250620001e1620001d56200033960201b60201c565b6200034160201b60201c565b8160019080519060200190620001f992919062000405565b5080600290805190602001906200021292919062000405565b5050508073ffffffffffffffffffffffffffffffffffffffff1660808173ffffffffffffffffffffffffffffffffffffffff1660601b8152505050846017600a6101000a81548173ffffffffffffffffffffffffffffffffffffffff021916908373ffffffffffffffffffffffffffffffffffffffff16021790555082600c819055508360108190555081600d81905550601560009054906101000a900473ffffffffffffffffffffffffffffffffffffffff16601460006101000a81548173ffffffffffffffffffffffffffffffffffffffff021916908373ffffffffffffffffffffffffffffffffffffffff160217905550806014806101000a81548167ffffffffffffffff021916908367ffffffffffffffff160217905550505050505062000681565b600033905090565b60008060009054906101000a900473ffffffffffffffffffffffffffffffffffffffff169050816000806101000a81548173ffffffffffffffffffffffffffffffffffffffff021916908373ffffffffffffffffffffffffffffffffffffffff1602179055508173ffffffffffffffffffffffffffffffffffffffff168173ffffffffffffffffffffffffffffffffffffffff167f8be0079c531659141344cd1fd0a4f28419497f9722a3daafe3b4186f6b6457e060405160405180910390a35050565b8280546200041390620005ce565b90600052602060002090601f01602090048101928262000437576000855562000483565b82601f106200045257805160ff191683800117855562000483565b8280016001018555821562000483579182015b828111156200048257825182559160200191906001019062000465565b5b50905062000492919062000496565b5090565b5b80821115620004b157600081600090555060010162000497565b5090565b600081519050620004c68162000633565b92915050565b600081519050620004dd816200064d565b92915050565b600081519050620004f48162000667565b92915050565b600080600080600060a086880312156200051357600080fd5b60006200052388828901620004b5565b95505060206200053688828901620004cc565b94505060406200054988828901620004cc565b93505060606200055c88828901620004cc565b92505060806200056f88828901620004e3565b9150509295509295909350565b6000620005898262000590565b9050919050565b600073ffffffffffffffffffffffffffffffffffffffff82169050919050565b6000819050919050565b600067ffffffffffffffff82169050919050565b60006002820490506001821680620005e757607f821691505b60208210811415620005fe57620005fd62000604565b5b50919050565b7f4e487b7100000000000000000000000000000000000000000000000000000000600052602260045260246000fd5b6200063e816200057c565b81146200064a57600080fd5b50565b6200065881620005b0565b81146200066457600080fd5b50565b6200067281620005ba565b81146200067e57600080fd5b50565b60805160601c615bda620006a760003960008181610fe301526110370152615bda6000f3fe60806040526004361061020e5760003560e01c806361ca46861161011857806395ca8acb116100a0578063b88d4fde1161006f578063b88d4fde146107d1578063c87b56dd146107fa578063d1c2babb14610837578063e985e9c514610860578063f2fde38b1461089d5761020e565b806395ca8acb1461071157806395d89b4114610754578063a22cb4651461077f578063a694fc3a146107a85761020e565b8063715018a6116100e7578063715018a61461063e5780638954677c146106555780638b6716c9146106925780638cbf4d2f146106bd5780638da5cb5b146106e65761020e565b806361ca46861461056b5780636352211e1461058757806367a66970146105c457806370a08231146106015761020e565b80632a0c52211161019b57806340a7bb101161016a57806340a7bb101461045d57806342842e0e1461049b5780634f6ccce7146104c45780635e280f1114610501578063606d2e961461052c5761020e565b80632a0c5221146103915780632e17de78146103ce5780632f745c59146103f7578063379607f5146104345761020e565b8063095ea7b3116101e2578063095ea7b3146102e15780631249c58b1461030a57806318160ddd146103145780631fe543e31461033f57806323b872dd146103685761020e565b80621d35671461021357806301ffc9a71461023c57806306fdde0314610279578063081812fc146102a4575b600080fd5b34801561021f57600080fd5b5061023a60048036038101906102359190614475565b6108c6565b005b34801561024857600080fd5b50610263600480360381019061025e91906142f3565b610cab565b6040516102709190614cf1565b60405180910390f35b34801561028557600080fd5b5061028e610cbd565b60405161029b9190614d7a565b60405180910390f35b3480156102b057600080fd5b506102cb60048036038101906102c69190614508565b610d4f565b6040516102d89190614b83565b60405180910390f35b3480156102ed57600080fd5b50610308600480360381019061030391906142b7565b610d95565b005b610312610ead565b005b34801561032057600080fd5b50610329610fd4565b604051610336919061511a565b60405180910390f35b34801561034b57600080fd5b506103666004803603810190610361919061455a565b610fe1565b005b34801561037457600080fd5b5061038f600480360381019061038a91906141b1565b6110a1565b005b34801561039d57600080fd5b506103b860048036038101906103b391906145ae565b611101565b6040516103c5919061511a565b60405180910390f35b3480156103da57600080fd5b506103f560048036038101906103f09190614508565b61137f565b005b34801561040357600080fd5b5061041e600480360381019061041991906142b7565b6114a3565b60405161042b919061511a565b60405180910390f35b34801561044057600080fd5b5061045b60048036038101906104569190614508565b611548565b005b34801561046957600080fd5b50610484600480360381019061047f9190614345565b611639565b60405161049292919061515e565b60405180910390f35b3480156104a757600080fd5b506104c260048036038101906104bd91906141b1565b611702565b005b3480156104d057600080fd5b506104eb60048036038101906104e69190614508565b611722565b6040516104f8919061511a565b60405180910390f35b34801561050d57600080fd5b506105166117b9565b6040516105239190614d5f565b60405180910390f35b34801561053857600080fd5b50610553600480360381019061054e9190614508565b6117df565b60405161056293929190615187565b60405180910390f35b610585600480360381019061058091906143f5565b611816565b005b34801561059357600080fd5b506105ae60048036038101906105a99190614508565b611b89565b6040516105bb9190614b83565b60405180910390f35b3480156105d057600080fd5b506105eb60048036038101906105e69190614508565b611c3b565b6040516105f89190614f7c565b60405180910390f35b34801561060d57600080fd5b50610628600480360381019061062391906140ae565b611cd0565b604051610635919061511a565b60405180910390f35b34801561064a57600080fd5b50610653611d88565b005b34801561066157600080fd5b5061067c60048036038101906106779190614508565b611d9c565b6040516106899190614cf1565b60405180910390f35b34801561069e57600080fd5b506106a7611dbc565b6040516106b4919061511a565b60405180910390f35b3480156106c957600080fd5b506106e460048036038101906106df9190614626565b611dea565b005b3480156106f257600080fd5b506106fb611f4b565b6040516107089190614b83565b60405180910390f35b34801561071d57600080fd5b5061073860048036038101906107339190614508565b611f74565b60405161074b97969594939291906151be565b60405180910390f35b34801561076057600080fd5b50610769611fd0565b6040516107769190614d7a565b60405180910390f35b34801561078b57600080fd5b506107a660048036038101906107a1919061427b565b612062565b005b3480156107b457600080fd5b506107cf60048036038101906107ca9190614508565b612078565b005b3480156107dd57600080fd5b506107f860048036038101906107f39190614200565b612194565b005b34801561080657600080fd5b50610821600480360381019061081c9190614508565b6121f6565b60405161082e9190614d7a565b60405180910390f35b34801561084357600080fd5b5061085e600480360381019061085991906145ae565b612242565b005b34801561086c57600080fd5b5061088760048036038101906108829190614175565b612318565b6040516108949190614cf1565b60405180910390f35b3480156108a957600080fd5b506108c460048036038101906108bf91906140ae565b6123ac565b005b6017600a9054906101000a900473ffffffffffffffffffffffffffffffffffffffff1673ffffffffffffffffffffffffffffffffffffffff163373ffffffffffffffffffffffffffffffffffffffff161461092057600080fd5b60006014840151905060008060008060008060008880602001905181019061094891906140d7565b9650965096509650965096509650600073ffffffffffffffffffffffffffffffffffffffff168773ffffffffffffffffffffffffffffffffffffffff161415610b1357600060116000838152602001908152602001600020600501541115610a175760016011600083815260200190815260200160002060050160008282546109d191906153d3565b925050819055507f14850bc661324928006b110193b269380a26be342d2e11c6145c911546127080816001604051610a0a929190615135565b60405180910390a1610b0e565b6008601160008381526020019081526020016000206000016000828254610a3e91906153d3565b925050819055507f14850bc661324928006b110193b269380a26be342d2e11c6145c911546127080816000604051610a77929190615135565b60405180910390a16001601160008381526020019081526020016000206000015411610b0d57610aa681612430565b6011600082815260200190815260200160002060008082016000905560018201600090556002820160006101000a81549060ff02191690556002820160016101000a81549060ff021916905560038201600090556004820160009055600582016000905550505b5b610c9d565b60006013600088815260200190815260200160002060009054906101000a900460ff16610b6b57600a905060016013600089815260200190815260200160002060006101000a81548160ff0219169083151502179055505b610b75888861254d565b6001600b6000828254610b8891906152f2565b925050819055506040518060e001604052808781526020018287610bac91906152f2565b8152602001600015158152602001600015158152602001600081526020018581526020018481525060116000898152602001908152602001600020600082015181600001556020820151816001015560408201518160020160006101000a81548160ff02191690831515021790555060608201518160020160016101000a81548160ff0219169083151502179055506080820151816003015560a0820151816004015560c082015181600501559050507fec16668a9529c4fc256054f3e18620ef50c89aec357376cce821207ff1e656f08d8989600b54604051610c93949392919061505d565b60405180910390a1505b505050505050505050505050565b6000610cb68261256b565b9050919050565b606060018054610ccc9061554e565b80601f0160208091040260200160405190810160405280929190818152602001828054610cf89061554e565b8015610d455780601f10610d1a57610100808354040283529160200191610d45565b820191906000526020600020905b815481529060010190602001808311610d2857829003601f168201915b5050505050905090565b6000610d5a826125e5565b6005600083815260200190815260200160002060009054906101000a900473ffffffffffffffffffffffffffffffffffffffff169050919050565b6000610da082611b89565b90508073ffffffffffffffffffffffffffffffffffffffff168373ffffffffffffffffffffffffffffffffffffffff161415610e11576040517f08c379a0000000000000000000000000000000000000000000000000000000008152600401610e0890614f1c565b60405180910390fd5b8073ffffffffffffffffffffffffffffffffffffffff16610e30612630565b73ffffffffffffffffffffffffffffffffffffffff161480610e5f5750610e5e81610e59612630565b612318565b5b610e9e576040517f08c379a0000000000000000000000000000000000000000000000000000000008152600401610e9590614e9c565b60405180910390fd5b610ea88383612638565b505050565b600d546001600c54610ebf91906152f2565b1115610eca57600080fd5b6001600c6000828254610edd91906152f2565b92505081905550610ef033600c5461254d565b6040518060e0016040528060028152602001600081526020016000151581526020016000151581526020016000815260200160008152602001600081525060116000600c548152602001908152602001600020600082015181600001556020820151816001015560408201518160020160006101000a81548160ff02191690831515021790555060608201518160020160016101000a81548160ff0219169083151502179055506080820151816003015560a0820151816004015560c082015181600501559050506001600b6000828254610fcb91906152f2565b92505081905550565b6000600980549050905090565b7f000000000000000000000000000000000000000000000000000000000000000073ffffffffffffffffffffffffffffffffffffffff163373ffffffffffffffffffffffffffffffffffffffff161461109357337f00000000000000000000000000000000000000000000000000000000000000006040517f1cf993f400000000000000000000000000000000000000000000000000000000815260040161108a929190614b9e565b60405180910390fd5b61109d82826126f1565b5050565b6110b26110ac612630565b82612961565b6110f1576040517f08c379a00000000000000000000000000000000000000000000000000000000081526004016110e890614f5c565b60405180910390fd5b6110fc8383836129f6565b505050565b60008261110d81611b89565b73ffffffffffffffffffffffffffffffffffffffff163373ffffffffffffffffffffffffffffffffffffffff161461114457600080fd5b61114d83612c88565b61115657600080fd5b6011600085815260200190815260200160002060020160019054906101000a900460ff161580156111a857506011600084815260200190815260200160002060020160019054906101000a900460ff16155b6111b157600080fd5b601460009054906101000a900473ffffffffffffffffffffffffffffffffffffffff1673ffffffffffffffffffffffffffffffffffffffff16635d3b1d3060165460148054906101000a900467ffffffffffffffff16601760049054906101000a900461ffff16601760009054906101000a900463ffffffff16601760069054906101000a900463ffffffff166040518663ffffffff1660e01b815260040161125e959493929190614d0c565b602060405180830381600087803b15801561127857600080fd5b505af115801561128c573d6000803e3d6000fd5b505050506040513d601f19601f820116820180604052508101906112b09190614531565b915060405180606001604052808581526020018481526020016000151581525060126000848152602001908152602001600020600082015181600001556020820151816001015560408201518160020160006101000a81548160ff02191690831515021790555090505060016011600086815260200190815260200160002060020160016101000a81548160ff02191690831515021790555060016011600085815260200190815260200160002060020160016101000a81548160ff0219169083151502179055505092915050565b8061138981611b89565b73ffffffffffffffffffffffffffffffffffffffff163373ffffffffffffffffffffffffffffffffffffffff16146113c057600080fd5b6011600083815260200190815260200160002060020160009054906101000a900460ff166113ed57600080fd5b6113f682611548565b61142161141a60116000858152602001908152602001600020600001546004612cf4565b6005612d0a565b601160008481526020019081526020016000206000018190555060006011600084815260200190815260200160002060020160006101000a81548160ff0219169083151502179055504260116000848152602001908152602001600020600301819055506001600e600082825461149891906153d3565b925050819055505050565b60006114ae83611cd0565b82106114ef576040517f08c379a00000000000000000000000000000000000000000000000000000000081526004016114e690614d9c565b60405180910390fd5b600760008473ffffffffffffffffffffffffffffffffffffffff1673ffffffffffffffffffffffffffffffffffffffff168152602001908152602001600020600083815260200190815260200160002054905092915050565b8061155281611b89565b73ffffffffffffffffffffffffffffffffffffffff163373ffffffffffffffffffffffffffffffffffffffff161461158957600080fd5b6011600083815260200190815260200160002060020160009054906101000a900460ff166115b657600080fd5b60006011600084815260200190815260200160002060030154426115da91906153d3565b905061161a60116000858152602001908152602001600020600101546115fe611dbc565b61160b8462015180612cf4565b6116159190615379565b612d20565b6011600085815260200190815260200160002060010181905550505050565b6000806017600a9054906101000a900473ffffffffffffffffffffffffffffffffffffffff1673ffffffffffffffffffffffffffffffffffffffff166340a7bb108a8a8a8a8a8a8a6040518863ffffffff1660e01b81526004016116a39796959493929190614f97565b604080518083038186803b1580156116ba57600080fd5b505afa1580156116ce573d6000803e3d6000fd5b505050506040513d601f19601f820116820180604052508101906116f291906145ea565b9150915097509795505050505050565b61171d83838360405180602001604052806000815250612194565b505050565b600061172c610fd4565b821061176d576040517f08c379a000000000000000000000000000000000000000000000000000000000815260040161176490614f3c565b60405180910390fd5b600982815481106117a7577f4e487b7100000000000000000000000000000000000000000000000000000000600052603260045260246000fd5b90600052602060002001549050919050565b6017600a9054906101000a900473ffffffffffffffffffffffffffffffffffffffff1681565b60126020528060005260406000206000915090508060000154908060010154908060020160009054906101000a900460ff16905083565b8161182081611b89565b73ffffffffffffffffffffffffffffffffffffffff163373ffffffffffffffffffffffffffffffffffffffff161461185757600080fd5b6011600084815260200190815260200160002060020160009054906101000a900460ff161561188557600080fd5b6011600084815260200190815260200160002060020160019054906101000a900460ff16156118b357600080fd5b6060600083146119445760006011600086815260200190815260200160002060040154116118e057600080fd5b600080600080600080886040516020016119009796959493929190614c13565b6040516020818303038152906040529050600160116000868152602001908152602001600020600401600082825461193891906153d3565b925050819055506119ef565b61194d84612430565b6001600b600082825461196091906153d3565b925050819055503384601160008781526020019081526020016000206000015460116000888152602001908152602001600020600101546011600089815260200190815260200160002060040154601160008a81526020019081526020016000206005015460006040516020016119dd9796959493929190614c82565b60405160208183030381529060405290505b600060019050600081600f54604051602001611a0c929190614b57565b604051602081830303815290604052905060006017600a9054906101000a900473ffffffffffffffffffffffffffffffffffffffff1673ffffffffffffffffffffffffffffffffffffffff166340a7bb108b30876000876040518663ffffffff1660e01b8152600401611a83959493929190614ffc565b604080518083038186803b158015611a9a57600080fd5b505afa158015611aae573d6000803e3d6000fd5b505050506040513d601f19601f82011682018060405250810190611ad291906145ea565b50905080341015611ae257600080fd5b6017600a9054906101000a900473ffffffffffffffffffffffffffffffffffffffff1673ffffffffffffffffffffffffffffffffffffffff1663c5803100348c8c8c893360008a6040518963ffffffff1660e01b8152600401611b4b97969594939291906150a2565b6000604051808303818588803b158015611b6457600080fd5b505af1158015611b78573d6000803e3d6000fd5b505050505050505050505050505050565b6000806003600084815260200190815260200160002060009054906101000a900473ffffffffffffffffffffffffffffffffffffffff169050600073ffffffffffffffffffffffffffffffffffffffff168173ffffffffffffffffffffffffffffffffffffffff161415611c32576040517f08c379a0000000000000000000000000000000000000000000000000000000008152600401611c2990614efc565b60405180910390fd5b80915050919050565b611c43613e68565b601160008381526020019081526020016000206040518060e001604052908160008201548152602001600182015481526020016002820160009054906101000a900460ff161515151581526020016002820160019054906101000a900460ff1615151515815260200160038201548152602001600482015481526020016005820154815250509050919050565b60008073ffffffffffffffffffffffffffffffffffffffff168273ffffffffffffffffffffffffffffffffffffffff161415611d41576040517f08c379a0000000000000000000000000000000000000000000000000000000008152600401611d3890614e7c565b60405180910390fd5b600460008373ffffffffffffffffffffffffffffffffffffffff1673ffffffffffffffffffffffffffffffffffffffff168152602001908152602001600020549050919050565b611d90612d36565b611d9a6000612db4565b565b60136020528060005260406000206000915054906101000a900460ff1681565b600080600e541415611dd15760029050611de7565b611de4611ddc610fd4565b600e54612cf4565b90505b90565b80611df481611b89565b73ffffffffffffffffffffffffffffffffffffffff163373ffffffffffffffffffffffffffffffffffffffff1614611e2b57600080fd5b600284611e389190615379565b60116000848152602001908152602001600020600101541015611e5a57600080fd5b60038310611e6757600080fd5b6000831415611e9e5783601160008481526020019081526020016000206000016000828254611e9691906152f2565b925050819055505b6001831415611ed55783601160008481526020019081526020016000206004016000828254611ecd91906152f2565b925050819055505b6002831415611f0c5783601160008481526020019081526020016000206005016000828254611f0491906152f2565b925050819055505b600284611f199190615379565b601160008481526020019081526020016000206001016000828254611f3e91906153d3565b9250508190555050505050565b60008060009054906101000a900473ffffffffffffffffffffffffffffffffffffffff16905090565b60116020528060005260406000206000915090508060000154908060010154908060020160009054906101000a900460ff16908060020160019054906101000a900460ff16908060030154908060040154908060050154905087565b606060028054611fdf9061554e565b80601f016020809104026020016040519081016040528092919081815260200182805461200b9061554e565b80156120585780601f1061202d57610100808354040283529160200191612058565b820191906000526020600020905b81548152906001019060200180831161203b57829003601f168201915b5050505050905090565b61207461206d612630565b8383612e78565b5050565b8061208281611b89565b73ffffffffffffffffffffffffffffffffffffffff163373ffffffffffffffffffffffffffffffffffffffff16146120b957600080fd5b6011600083815260200190815260200160002060020160009054906101000a900460ff16156120e757600080fd5b61211261210b60116000858152602001908152602001600020600001546005612cf4565b6004612d0a565b601160008481526020019081526020016000206000018190555060016011600084815260200190815260200160002060020160006101000a81548160ff0219169083151502179055504260116000848152602001908152602001600020600301819055506001600e600082825461218991906152f2565b925050819055505050565b6121a561219f612630565b83612961565b6121e4576040517f08c379a00000000000000000000000000000000000000000000000000000000081526004016121db90614f5c565b60405180910390fd5b6121f084848484612fe5565b50505050565b6060612200613041565b601054601160008581526020019081526020016000206000015460405160200161222c93929190614b08565b6040516020818303038152906040529050919050565b8161224c81611b89565b73ffffffffffffffffffffffffffffffffffffffff163373ffffffffffffffffffffffffffffffffffffffff161461228357600080fd5b8161228d81611b89565b73ffffffffffffffffffffffffffffffffffffffff163373ffffffffffffffffffffffffffffffffffffffff16146122c457600080fd5b601160008481526020019081526020016000206000015460116000868152602001908152602001600020600001541115612307576123028385613061565b612312565b6123118484613061565b5b50505050565b6000600660008473ffffffffffffffffffffffffffffffffffffffff1673ffffffffffffffffffffffffffffffffffffffff16815260200190815260200160002060008373ffffffffffffffffffffffffffffffffffffffff1673ffffffffffffffffffffffffffffffffffffffff16815260200190815260200160002060009054906101000a900460ff16905092915050565b6123b4612d36565b600073ffffffffffffffffffffffffffffffffffffffff168173ffffffffffffffffffffffffffffffffffffffff161415612424576040517f08c379a000000000000000000000000000000000000000000000000000000000815260040161241b90614ddc565b60405180910390fd5b61242d81612db4565b50565b600061243b82611b89565b905061244981600084613228565b612454600083612638565b6001600460008373ffffffffffffffffffffffffffffffffffffffff1673ffffffffffffffffffffffffffffffffffffffff16815260200190815260200160002060008282546124a491906153d3565b925050819055506003600083815260200190815260200160002060006101000a81549073ffffffffffffffffffffffffffffffffffffffff021916905581600073ffffffffffffffffffffffffffffffffffffffff168273ffffffffffffffffffffffffffffffffffffffff167fddf252ad1be2c89b69c2b068fc378daa952ba7f163c4a11628f55a4df523b3ef60405160405180910390a461254981600084613238565b5050565b61256782826040518060200160405280600081525061323d565b5050565b60007f780e9d63000000000000000000000000000000000000000000000000000000007bffffffffffffffffffffffffffffffffffffffffffffffffffffffff1916827bffffffffffffffffffffffffffffffffffffffffffffffffffffffff191614806125de57506125dd82613298565b5b9050919050565b6125ee81612c88565b61262d576040517f08c379a000000000000000000000000000000000000000000000000000000000815260040161262490614efc565b60405180910390fd5b50565b600033905090565b816005600083815260200190815260200160002060006101000a81548173ffffffffffffffffffffffffffffffffffffffff021916908373ffffffffffffffffffffffffffffffffffffffff160217905550808273ffffffffffffffffffffffffffffffffffffffff166126ab83611b89565b73ffffffffffffffffffffffffffffffffffffffff167f8c5be1e5ebec7d5bd14f71427d1e84f3dd0314c0f7b2291e5b200ac8c7c3b92560405160405180910390a45050565b604051806060016040528060126000858152602001908152602001600020600001548152602001601260008581526020019081526020016000206001015481526020016001151581525060126000848152602001908152602001600020600082015181600001556020820151816001015560408201518160020160006101000a81548160ff02191690831515021790555090505060006127c86127c1601160006012600088815260200190815260200160002060000154815260200190815260200160002060000154600a612cf4565b600b612d0a565b90506000601160006012600087815260200190815260200160002060010154815260200190815260200160002060000154905060006001828461280b91906152f2565b61281591906152f2565b8460008151811061284f577f4e487b7100000000000000000000000000000000000000000000000000000000600052603260045260246000fd5b6020026020010151169050818310156128e0578281116128a45761289f6012600087815260200190815260200160002060000154601260008881526020019081526020016000206001015461337a565b6128db565b6128da6012600087815260200190815260200160002060010154601260008881526020019081526020016000206000015461337a565b5b61295a565b8181116129225761291d6012600087815260200190815260200160002060010154601260008881526020019081526020016000206000015461337a565b612959565b6129586012600087815260200190815260200160002060000154601260008881526020019081526020016000206001015461337a565b5b5b5050505050565b60008061296d83611b89565b90508073ffffffffffffffffffffffffffffffffffffffff168473ffffffffffffffffffffffffffffffffffffffff1614806129af57506129ae8185612318565b5b806129ed57508373ffffffffffffffffffffffffffffffffffffffff166129d584610d4f565b73ffffffffffffffffffffffffffffffffffffffff16145b91505092915050565b8273ffffffffffffffffffffffffffffffffffffffff16612a1682611b89565b73ffffffffffffffffffffffffffffffffffffffff1614612a6c576040517f08c379a0000000000000000000000000000000000000000000000000000000008152600401612a6390614dfc565b60405180910390fd5b600073ffffffffffffffffffffffffffffffffffffffff168273ffffffffffffffffffffffffffffffffffffffff161415612adc576040517f08c379a0000000000000000000000000000000000000000000000000000000008152600401612ad390614e3c565b60405180910390fd5b612ae7838383613228565b6005600082815260200190815260200160002060006101000a81549073ffffffffffffffffffffffffffffffffffffffff02191690556001600460008573ffffffffffffffffffffffffffffffffffffffff1673ffffffffffffffffffffffffffffffffffffffff1681526020019081526020016000206000828254612b6d91906153d3565b925050819055506001600460008473ffffffffffffffffffffffffffffffffffffffff1673ffffffffffffffffffffffffffffffffffffffff1681526020019081526020016000206000828254612bc491906152f2565b92505081905550816003600083815260200190815260200160002060006101000a81548173ffffffffffffffffffffffffffffffffffffffff021916908373ffffffffffffffffffffffffffffffffffffffff160217905550808273ffffffffffffffffffffffffffffffffffffffff168473ffffffffffffffffffffffffffffffffffffffff167fddf252ad1be2c89b69c2b068fc378daa952ba7f163c4a11628f55a4df523b3ef60405160405180910390a4612c83838383613238565b505050565b60008073ffffffffffffffffffffffffffffffffffffffff166003600084815260200190815260200160002060009054906101000a900473ffffffffffffffffffffffffffffffffffffffff1673ffffffffffffffffffffffffffffffffffffffff1614159050919050565b60008183612d029190615348565b905092915050565b60008183612d189190615379565b905092915050565b60008183612d2e91906152f2565b905092915050565b612d3e612630565b73ffffffffffffffffffffffffffffffffffffffff16612d5c611f4b565b73ffffffffffffffffffffffffffffffffffffffff1614612db2576040517f08c379a0000000000000000000000000000000000000000000000000000000008152600401612da990614edc565b60405180910390fd5b565b60008060009054906101000a900473ffffffffffffffffffffffffffffffffffffffff169050816000806101000a81548173ffffffffffffffffffffffffffffffffffffffff021916908373ffffffffffffffffffffffffffffffffffffffff1602179055508173ffffffffffffffffffffffffffffffffffffffff168173ffffffffffffffffffffffffffffffffffffffff167f8be0079c531659141344cd1fd0a4f28419497f9722a3daafe3b4186f6b6457e060405160405180910390a35050565b8173ffffffffffffffffffffffffffffffffffffffff168373ffffffffffffffffffffffffffffffffffffffff161415612ee7576040517f08c379a0000000000000000000000000000000000000000000000000000000008152600401612ede90614e5c565b60405180910390fd5b80600660008573ffffffffffffffffffffffffffffffffffffffff1673ffffffffffffffffffffffffffffffffffffffff16815260200190815260200160002060008473ffffffffffffffffffffffffffffffffffffffff1673ffffffffffffffffffffffffffffffffffffffff16815260200190815260200160002060006101000a81548160ff0219169083151502179055508173ffffffffffffffffffffffffffffffffffffffff168373ffffffffffffffffffffffffffffffffffffffff167f17307eab39ab6107e8899845ad3d59bd9653f200f220920489ca2b5937696c3183604051612fd89190614cf1565b60405180910390a3505050565b612ff08484846129f6565b612ffc848484846135c3565b61303b576040517f08c379a000000000000000000000000000000000000000000000000000000000815260040161303290614dbc565b60405180910390fd5b50505050565b6060604051806060016040528060278152602001615b7e60279139905090565b6130ab60116000838152602001908152602001600020600001546130a661309f60116000878152602001908152602001600020600001546005612cf4565b6002612d0a565b612d20565b60116000838152602001908152602001600020600001819055506130fb60116000838152602001908152602001600020600101546011600085815260200190815260200160002060010154612d20565b601160008381526020019081526020016000206001018190555061314b60116000838152602001908152602001600020600401546011600085815260200190815260200160002060040154612d20565b601160008381526020019081526020016000206004018190555061319b60116000838152602001908152602001600020600501546011600085815260200190815260200160002060040154612d20565b60116000838152602001908152602001600020600501819055506011600083815260200190815260200160002060008082016000905560018201600090556002820160006101000a81549060ff02191690556002820160016101000a81549060ff0219169055600382016000905560048201600090556005820160009055505061322482612430565b5050565b61323383838361375a565b505050565b505050565b613247838361386e565b61325460008484846135c3565b613293576040517f08c379a000000000000000000000000000000000000000000000000000000000815260040161328a90614dbc565b60405180910390fd5b505050565b60007f80ac58cd000000000000000000000000000000000000000000000000000000007bffffffffffffffffffffffffffffffffffffffffffffffffffffffff1916827bffffffffffffffffffffffffffffffffffffffffffffffffffffffff1916148061336357507f5b5e139f000000000000000000000000000000000000000000000000000000007bffffffffffffffffffffffffffffffffffffffffffffffffffffffff1916827bffffffffffffffffffffffffffffffffffffffffffffffffffffffff1916145b80613373575061337282613a48565b5b9050919050565b6133ba60116000848152602001908152602001600020600001546133b560116000858152602001908152602001600020600001546002612cf4565b612d20565b601160008481526020019081526020016000206000018190555061340a60116000848152602001908152602001600020600101546011600084815260200190815260200160002060010154612d20565b601160008481526020019081526020016000206001018190555060006011600084815260200190815260200160002060020160016101000a81548160ff021916908315150217905550613493601160008381526020019081526020016000206000015461348e60116000858152602001908152602001600020600001546002612cf4565b613ab2565b60116000838152602001908152602001600020600001819055506000601160008381526020019081526020016000206001018190555060006011600083815260200190815260200160002060020160016101000a81548160ff02191690831515021790555060016011600083815260200190815260200160002060000154116135865761351f81612430565b6011600082815260200190815260200160002060008082016000905560018201600090556002820160006101000a81549060ff02191690556002820160016101000a81549060ff021916905560038201600090556004820160009055600582016000905550505b7fe3e5de625f06c35ac95bd3ba40466651dba519a568973305d33004b4415a58f882826040516135b792919061515e565b60405180910390a15050565b60006135e48473ffffffffffffffffffffffffffffffffffffffff16613ac8565b1561374d578373ffffffffffffffffffffffffffffffffffffffff1663150b7a0261360d612630565b8786866040518563ffffffff1660e01b815260040161362f9493929190614bc7565b602060405180830381600087803b15801561364957600080fd5b505af192505050801561367a57506040513d601f19601f82011682018060405250810190613677919061431c565b60015b6136fd573d80600081146136aa576040519150601f19603f3d011682016040523d82523d6000602084013e6136af565b606091505b506000815114156136f5576040517f08c379a00000000000000000000000000000000000000000000000000000000081526004016136ec90614dbc565b60405180910390fd5b805181602001fd5b63150b7a0260e01b7bffffffffffffffffffffffffffffffffffffffffffffffffffffffff1916817bffffffffffffffffffffffffffffffffffffffffffffffffffffffff191614915050613752565b600190505b949350505050565b613765838383613aeb565b600073ffffffffffffffffffffffffffffffffffffffff168373ffffffffffffffffffffffffffffffffffffffff1614156137a8576137a381613af0565b6137e7565b8173ffffffffffffffffffffffffffffffffffffffff168373ffffffffffffffffffffffffffffffffffffffff16146137e6576137e58382613b39565b5b5b600073ffffffffffffffffffffffffffffffffffffffff168273ffffffffffffffffffffffffffffffffffffffff16141561382a5761382581613ca6565b613869565b8273ffffffffffffffffffffffffffffffffffffffff168273ffffffffffffffffffffffffffffffffffffffff1614613868576138678282613de9565b5b5b505050565b600073ffffffffffffffffffffffffffffffffffffffff168273ffffffffffffffffffffffffffffffffffffffff1614156138de576040517f08c379a00000000000000000000000000000000000000000000000000000000081526004016138d590614ebc565b60405180910390fd5b6138e781612c88565b15613927576040517f08c379a000000000000000000000000000000000000000000000000000000000815260040161391e90614e1c565b60405180910390fd5b61393360008383613228565b6001600460008473ffffffffffffffffffffffffffffffffffffffff1673ffffffffffffffffffffffffffffffffffffffff168152602001908152602001600020600082825461398391906152f2565b92505081905550816003600083815260200190815260200160002060006101000a81548173ffffffffffffffffffffffffffffffffffffffff021916908373ffffffffffffffffffffffffffffffffffffffff160217905550808273ffffffffffffffffffffffffffffffffffffffff16600073ffffffffffffffffffffffffffffffffffffffff167fddf252ad1be2c89b69c2b068fc378daa952ba7f163c4a11628f55a4df523b3ef60405160405180910390a4613a4460008383613238565b5050565b60007f01ffc9a7000000000000000000000000000000000000000000000000000000007bffffffffffffffffffffffffffffffffffffffffffffffffffffffff1916827bffffffffffffffffffffffffffffffffffffffffffffffffffffffff1916149050919050565b60008183613ac091906153d3565b905092915050565b6000808273ffffffffffffffffffffffffffffffffffffffff163b119050919050565b505050565b600980549050600a600083815260200190815260200160002081905550600981908060018154018082558091505060019003906000526020600020016000909190919091505550565b60006001613b4684611cd0565b613b5091906153d3565b9050600060086000848152602001908152602001600020549050818114613c35576000600760008673ffffffffffffffffffffffffffffffffffffffff1673ffffffffffffffffffffffffffffffffffffffff168152602001908152602001600020600084815260200190815260200160002054905080600760008773ffffffffffffffffffffffffffffffffffffffff1673ffffffffffffffffffffffffffffffffffffffff168152602001908152602001600020600084815260200190815260200160002081905550816008600083815260200190815260200160002081905550505b6008600084815260200190815260200160002060009055600760008573ffffffffffffffffffffffffffffffffffffffff1673ffffffffffffffffffffffffffffffffffffffff16815260200190815260200160002060008381526020019081526020016000206000905550505050565b60006001600980549050613cba91906153d3565b90506000600a6000848152602001908152602001600020549050600060098381548110613d10577f4e487b7100000000000000000000000000000000000000000000000000000000600052603260045260246000fd5b906000526020600020015490508060098381548110613d58577f4e487b7100000000000000000000000000000000000000000000000000000000600052603260045260246000fd5b906000526020600020018190555081600a600083815260200190815260200160002081905550600a6000858152602001908152602001600020600090556009805480613dcd577f4e487b7100000000000000000000000000000000000000000000000000000000600052603160045260246000fd5b6001900381819060005260206000200160009055905550505050565b6000613df483611cd0565b905081600760008573ffffffffffffffffffffffffffffffffffffffff1673ffffffffffffffffffffffffffffffffffffffff168152602001908152602001600020600083815260200190815260200160002081905550806008600084815260200190815260200160002081905550505050565b6040518060e0016040528060008152602001600081526020016000151581526020016000151581526020016000815260200160008152602001600081525090565b6000613ebc613eb784615252565b61522d565b90508083825260208201905082856020860282011115613edb57600080fd5b60005b85811015613f0b5781613ef1888261406f565b845260208401935060208301925050600181019050613ede565b5050509392505050565b6000613f28613f238461527e565b61522d565b905082815260208101848484011115613f4057600080fd5b613f4b84828561550c565b509392505050565b600081359050613f6281615adc565b92915050565b600081519050613f7781615af3565b92915050565b600082601f830112613f8e57600080fd5b8135613f9e848260208601613ea9565b91505092915050565b600081359050613fb681615b0a565b92915050565b600081359050613fcb81615b21565b92915050565b600081519050613fe081615b21565b92915050565b60008083601f840112613ff857600080fd5b8235905067ffffffffffffffff81111561401157600080fd5b60208301915083600182028301111561402957600080fd5b9250929050565b600082601f83011261404157600080fd5b8135614051848260208601613f15565b91505092915050565b60008135905061406981615b38565b92915050565b60008135905061407e81615b4f565b92915050565b60008151905061409381615b4f565b92915050565b6000813590506140a881615b66565b92915050565b6000602082840312156140c057600080fd5b60006140ce84828501613f53565b91505092915050565b600080600080600080600060e0888a0312156140f257600080fd5b60006141008a828b01613f68565b97505060206141118a828b01614084565b96505060406141228a828b01614084565b95505060606141338a828b01614084565b94505060806141448a828b01614084565b93505060a06141558a828b01614084565b92505060c06141668a828b01614084565b91505092959891949750929550565b6000806040838503121561418857600080fd5b600061419685828601613f53565b92505060206141a785828601613f53565b9150509250929050565b6000806000606084860312156141c657600080fd5b60006141d486828701613f53565b93505060206141e586828701613f53565b92505060406141f68682870161406f565b9150509250925092565b6000806000806080858703121561421657600080fd5b600061422487828801613f53565b945050602061423587828801613f53565b93505060406142468782880161406f565b925050606085013567ffffffffffffffff81111561426357600080fd5b61426f87828801614030565b91505092959194509250565b6000806040838503121561428e57600080fd5b600061429c85828601613f53565b92505060206142ad85828601613fa7565b9150509250929050565b600080604083850312156142ca57600080fd5b60006142d885828601613f53565b92505060206142e98582860161406f565b9150509250929050565b60006020828403121561430557600080fd5b600061431384828501613fbc565b91505092915050565b60006020828403121561432e57600080fd5b600061433c84828501613fd1565b91505092915050565b600080600080600080600060a0888a03121561436057600080fd5b600061436e8a828b0161405a565b975050602061437f8a828b01613f53565b965050604088013567ffffffffffffffff81111561439c57600080fd5b6143a88a828b01613fe6565b955095505060606143bb8a828b01613fa7565b935050608088013567ffffffffffffffff8111156143d857600080fd5b6143e48a828b01613fe6565b925092505092959891949750929550565b60008060008060006080868803121561440d57600080fd5b600061441b8882890161405a565b955050602086013567ffffffffffffffff81111561443857600080fd5b61444488828901613fe6565b945094505060406144578882890161406f565b92505060606144688882890161406f565b9150509295509295909350565b6000806000806080858703121561448b57600080fd5b60006144998782880161405a565b945050602085013567ffffffffffffffff8111156144b657600080fd5b6144c287828801614030565b93505060406144d387828801614099565b925050606085013567ffffffffffffffff8111156144f057600080fd5b6144fc87828801614030565b91505092959194509250565b60006020828403121561451a57600080fd5b60006145288482850161406f565b91505092915050565b60006020828403121561454357600080fd5b600061455184828501614084565b91505092915050565b6000806040838503121561456d57600080fd5b600061457b8582860161406f565b925050602083013567ffffffffffffffff81111561459857600080fd5b6145a485828601613f7d565b9150509250929050565b600080604083850312156145c157600080fd5b60006145cf8582860161406f565b92505060206145e08582860161406f565b9150509250929050565b600080604083850312156145fd57600080fd5b600061460b85828601614084565b925050602061461c85828601614084565b9150509250929050565b60008060006060848603121561463b57600080fd5b60006146498682870161406f565b935050602061465a8682870161406f565b925050604061466b8682870161406f565b9150509250925092565b61467e81615419565b82525050565b61468d81615407565b82525050565b61469c8161542b565b82525050565b6146ab8161542b565b82525050565b6146ba81615437565b82525050565b60006146cc83856152c5565b93506146d983858461550c565b6146e283615689565b840190509392505050565b60006146f8826152af565b61470281856152c5565b935061471281856020860161551b565b61471b81615689565b840191505092915050565b61472f816154d6565b82525050565b61473e816154fa565b82525050565b600061474f826152ba565b61475981856152d6565b935061476981856020860161551b565b61477281615689565b840191505092915050565b6000614788826152ba565b61479281856152e7565b93506147a281856020860161551b565b80840191505092915050565b60006147bb602b836152d6565b91506147c6826156a7565b604082019050919050565b60006147de6032836152d6565b91506147e9826156f6565b604082019050919050565b60006148016026836152d6565b915061480c82615745565b604082019050919050565b60006148246025836152d6565b915061482f82615794565b604082019050919050565b6000614847601c836152d6565b9150614852826157e3565b602082019050919050565b600061486a6024836152d6565b91506148758261580c565b604082019050919050565b600061488d6019836152d6565b91506148988261585b565b602082019050919050565b60006148b06029836152d6565b91506148bb82615884565b604082019050919050565b60006148d3603e836152d6565b91506148de826158d3565b604082019050919050565b60006148f66020836152d6565b915061490182615922565b602082019050919050565b60006149196007836152e7565b91506149248261594b565b600782019050919050565b600061493c6020836152d6565b915061494782615974565b602082019050919050565b600061495f6018836152d6565b915061496a8261599d565b602082019050919050565b60006149826021836152d6565b915061498d826159c6565b604082019050919050565b60006149a56009836152e7565b91506149b082615a15565b600982019050919050565b60006149c8602c836152d6565b91506149d382615a3e565b604082019050919050565b60006149eb602e836152d6565b91506149f682615a8d565b604082019050919050565b60e082016000820151614a176000850182614ab5565b506020820151614a2a6020850182614ab5565b506040820151614a3d6040850182614693565b506060820151614a506060850182614693565b506080820151614a636080850182614ab5565b5060a0820151614a7660a0850182614ab5565b5060c0820151614a8960c0850182614ab5565b50505050565b614a988161546d565b82525050565b614aaf614aaa8261546d565b6155b1565b82525050565b614abe8161549b565b82525050565b614acd8161549b565b82525050565b614ae4614adf8261549b565b6155c3565b82525050565b614af3816154a5565b82525050565b614b02816154b5565b82525050565b6000614b14828661477d565b9150614b1f82614998565b9150614b2b8285614ad3565b602082019150614b3a8261490c565b9150614b468284614ad3565b602082019150819050949350505050565b6000614b638285614a9e565b600282019150614b738284614ad3565b6020820191508190509392505050565b6000602082019050614b986000830184614684565b92915050565b6000604082019050614bb36000830185614684565b614bc06020830184614684565b9392505050565b6000608082019050614bdc6000830187614684565b614be96020830186614684565b614bf66040830185614ac4565b8181036060830152614c0881846146ed565b905095945050505050565b600060e082019050614c28600083018a614684565b614c356020830189614735565b614c426040830188614735565b614c4f6060830187614735565b614c5c6080830186614735565b614c6960a0830185614735565b614c7660c0830184614ac4565b98975050505050505050565b600060e082019050614c97600083018a614684565b614ca46020830189614ac4565b614cb16040830188614ac4565b614cbe6060830187614ac4565b614ccb6080830186614ac4565b614cd860a0830185614ac4565b614ce560c0830184614735565b98975050505050505050565b6000602082019050614d0660008301846146a2565b92915050565b600060a082019050614d2160008301886146b1565b614d2e6020830187614af9565b614d3b6040830186614a8f565b614d486060830185614aea565b614d556080830184614aea565b9695505050505050565b6000602082019050614d746000830184614726565b92915050565b60006020820190508181036000830152614d948184614744565b905092915050565b60006020820190508181036000830152614db5816147ae565b9050919050565b60006020820190508181036000830152614dd5816147d1565b9050919050565b60006020820190508181036000830152614df5816147f4565b9050919050565b60006020820190508181036000830152614e1581614817565b9050919050565b60006020820190508181036000830152614e358161483a565b9050919050565b60006020820190508181036000830152614e558161485d565b9050919050565b60006020820190508181036000830152614e7581614880565b9050919050565b60006020820190508181036000830152614e95816148a3565b9050919050565b60006020820190508181036000830152614eb5816148c6565b9050919050565b60006020820190508181036000830152614ed5816148e9565b9050919050565b60006020820190508181036000830152614ef58161492f565b9050919050565b60006020820190508181036000830152614f1581614952565b9050919050565b60006020820190508181036000830152614f3581614975565b9050919050565b60006020820190508181036000830152614f55816149bb565b9050919050565b60006020820190508181036000830152614f75816149de565b9050919050565b600060e082019050614f916000830184614a01565b92915050565b600060a082019050614fac600083018a614a8f565b614fb96020830189614684565b8181036040830152614fcc8187896146c0565b9050614fdb60608301866146a2565b8181036080830152614fee8184866146c0565b905098975050505050505050565b600060a0820190506150116000830188614a8f565b61501e6020830187614684565b818103604083015261503081866146ed565b905061503f60608301856146a2565b818103608083015261505181846146ed565b90509695505050505050565b60006080820190506150726000830187614a8f565b61507f6020830186614684565b61508c6040830185614ac4565b6150996060830184614ac4565b95945050505050565b600060c0820190506150b7600083018a614a8f565b81810360208301526150ca81888a6146c0565b905081810360408301526150de81876146ed565b90506150ed6060830186614675565b6150fa6080830185614684565b81810360a083015261510c81846146ed565b905098975050505050505050565b600060208201905061512f6000830184614ac4565b92915050565b600060408201905061514a6000830185614ac4565b61515760208301846146a2565b9392505050565b60006040820190506151736000830185614ac4565b6151806020830184614ac4565b9392505050565b600060608201905061519c6000830186614ac4565b6151a96020830185614ac4565b6151b660408301846146a2565b949350505050565b600060e0820190506151d3600083018a614ac4565b6151e06020830189614ac4565b6151ed60408301886146a2565b6151fa60608301876146a2565b6152076080830186614ac4565b61521460a0830185614ac4565b61522160c0830184614ac4565b98975050505050505050565b6000615237615248565b90506152438282615580565b919050565b6000604051905090565b600067ffffffffffffffff82111561526d5761526c61565a565b5b602082029050602081019050919050565b600067ffffffffffffffff8211156152995761529861565a565b5b6152a282615689565b9050602081019050919050565b600081519050919050565b600081519050919050565b600082825260208201905092915050565b600082825260208201905092915050565b600081905092915050565b60006152fd8261549b565b91506153088361549b565b9250827fffffffffffffffffffffffffffffffffffffffffffffffffffffffffffffffff0382111561533d5761533c6155cd565b5b828201905092915050565b60006153538261549b565b915061535e8361549b565b92508261536e5761536d6155fc565b5b828204905092915050565b60006153848261549b565b915061538f8361549b565b9250817fffffffffffffffffffffffffffffffffffffffffffffffffffffffffffffffff04831182151516156153c8576153c76155cd565b5b828202905092915050565b60006153de8261549b565b91506153e98361549b565b9250828210156153fc576153fb6155cd565b5b828203905092915050565b60006154128261547b565b9050919050565b60006154248261547b565b9050919050565b60008115159050919050565b6000819050919050565b60007fffffffff0000000000000000000000000000000000000000000000000000000082169050919050565b600061ffff82169050919050565b600073ffffffffffffffffffffffffffffffffffffffff82169050919050565b6000819050919050565b600063ffffffff82169050919050565b600067ffffffffffffffff82169050919050565b600060ff82169050919050565b60006154e1826154e8565b9050919050565b60006154f38261547b565b9050919050565b6000615505826154c9565b9050919050565b82818337600083830152505050565b60005b8381101561553957808201518184015260208101905061551e565b83811115615548576000848401525b50505050565b6000600282049050600182168061556657607f821691505b6020821081141561557a5761557961562b565b5b50919050565b61558982615689565b810181811067ffffffffffffffff821117156155a8576155a761565a565b5b80604052505050565b60006155bc8261569a565b9050919050565b6000819050919050565b7f4e487b7100000000000000000000000000000000000000000000000000000000600052601160045260246000fd5b7f4e487b7100000000000000000000000000000000000000000000000000000000600052601260045260246000fd5b7f4e487b7100000000000000000000000000000000000000000000000000000000600052602260045260246000fd5b7f4e487b7100000000000000000000000000000000000000000000000000000000600052604160045260246000fd5b6000601f19601f8301169050919050565b60008160f01b9050919050565b7f455243373231456e756d657261626c653a206f776e657220696e646578206f7560008201527f74206f6620626f756e6473000000000000000000000000000000000000000000602082015250565b7f4552433732313a207472616e7366657220746f206e6f6e20455243373231526560008201527f63656976657220696d706c656d656e7465720000000000000000000000000000602082015250565b7f4f776e61626c653a206e6577206f776e657220697320746865207a65726f206160008201527f6464726573730000000000000000000000000000000000000000000000000000602082015250565b7f4552433732313a207472616e736665722066726f6d20696e636f72726563742060008201527f6f776e6572000000000000000000000000000000000000000000000000000000602082015250565b7f4552433732313a20746f6b656e20616c7265616479206d696e74656400000000600082015250565b7f4552433732313a207472616e7366657220746f20746865207a65726f2061646460008201527f7265737300000000000000000000000000000000000000000000000000000000602082015250565b7f4552433732313a20617070726f766520746f2063616c6c657200000000000000600082015250565b7f4552433732313a2061646472657373207a65726f206973206e6f74206120766160008201527f6c6964206f776e65720000000000000000000000000000000000000000000000602082015250565b7f4552433732313a20617070726f76652063616c6c6572206973206e6f7420746f60008201527f6b656e206f776e6572206e6f7220617070726f76656420666f7220616c6c0000602082015250565b7f4552433732313a206d696e7420746f20746865207a65726f2061646472657373600082015250565b7f26706f7765723d00000000000000000000000000000000000000000000000000600082015250565b7f4f776e61626c653a2063616c6c6572206973206e6f7420746865206f776e6572600082015250565b7f4552433732313a20696e76616c696420746f6b656e2049440000000000000000600082015250565b7f4552433732313a20617070726f76616c20746f2063757272656e74206f776e6560008201527f7200000000000000000000000000000000000000000000000000000000000000602082015250565b7f3f636861696e49643d0000000000000000000000000000000000000000000000600082015250565b7f455243373231456e756d657261626c653a20676c6f62616c20696e646578206f60008201527f7574206f6620626f756e64730000000000000000000000000000000000000000602082015250565b7f4552433732313a2063616c6c6572206973206e6f7420746f6b656e206f776e6560008201527f72206e6f7220617070726f766564000000000000000000000000000000000000602082015250565b615ae581615407565b8114615af057600080fd5b50565b615afc81615419565b8114615b0757600080fd5b50565b615b138161542b565b8114615b1e57600080fd5b50565b615b2a81615441565b8114615b3557600080fd5b50565b615b418161546d565b8114615b4c57600080fd5b50565b615b588161549b565b8114615b6357600080fd5b50565b615b6f816154b5565b8114615b7a57600080fd5b5056fe68747470733a2f2f6e66742d666c6565742d7365727665722e6865726f6b756170702e636f6d2fa2646970667358221220561d086ca9748f1da8ab39eecad68dd98fb62dc0416b3744a70966918a1e725e64736f6c63430008040033",
  "linkReferences": {},
  "deployedLinkReferences": {}
}