{
  "_format": "hh-sol-artifact-1",
  "contractName": "OmniChainNFT",
  "sourceName": "contracts/OmniChainNFT.sol",
  "abi": [
    {
      "inputs": [
        {
          "internalType": "address",
          "name": "_endpoint",
          "type": "address"
        },
        {
          "internalType": "uint256",
          "name": "_chainId",
          "type": "uint256"
        },
        {
          "internalType": "uint256",
          "name": "startId",
          "type": "uint256"
        },
        {
          "internalType": "uint256",
          "name": "_max",
          "type": "uint256"
        },
        {
          "internalType": "uint64",
          "name": "subscriptionId",
          "type": "uint64"
        }
      ],
      "stateMutability": "nonpayable",
      "type": "constructor"
    },
    {
      "inputs": [
        {
          "internalType": "address",
          "name": "have",
          "type": "address"
        },
        {
          "internalType": "address",
          "name": "want",
          "type": "address"
        }
      ],
      "name": "OnlyCoordinatorCanFulfill",
      "type": "error"
    },
    {
      "anonymous": false,
      "inputs": [
        {
          "indexed": true,
          "internalType": "address",
          "name": "owner",
          "type": "address"
        },
        {
          "indexed": true,
          "internalType": "address",
          "name": "approved",
          "type": "address"
        },
        {
          "indexed": true,
          "internalType": "uint256",
          "name": "tokenId",
          "type": "uint256"
        }
      ],
      "name": "Approval",
      "type": "event"
    },
    {
      "anonymous": false,
      "inputs": [
        {
          "indexed": true,
          "internalType": "address",
          "name": "owner",
          "type": "address"
        },
        {
          "indexed": true,
          "internalType": "address",
          "name": "operator",
          "type": "address"
        },
        {
          "indexed": false,
          "internalType": "bool",
          "name": "approved",
          "type": "bool"
        }
      ],
      "name": "ApprovalForAll",
      "type": "event"
    },
    {
      "anonymous": false,
      "inputs": [
        {
          "indexed": false,
          "internalType": "uint256",
          "name": "winner",
          "type": "uint256"
        },
        {
          "indexed": false,
          "internalType": "uint256",
          "name": "loser",
          "type": "uint256"
        }
      ],
      "name": "BattleComplete",
      "type": "event"
    },
    {
      "anonymous": false,
      "inputs": [
        {
          "indexed": true,
          "internalType": "address",
          "name": "previousOwner",
          "type": "address"
        },
        {
          "indexed": true,
          "internalType": "address",
          "name": "newOwner",
          "type": "address"
        }
      ],
      "name": "OwnershipTransferred",
      "type": "event"
    },
    {
      "anonymous": false,
      "inputs": [
        {
          "indexed": false,
          "internalType": "uint16",
          "name": "_srcChainId",
          "type": "uint16"
        },
        {
          "indexed": false,
          "internalType": "address",
          "name": "_from",
          "type": "address"
        },
        {
          "indexed": false,
          "internalType": "uint256",
          "name": "_tokenId",
          "type": "uint256"
        },
        {
          "indexed": false,
          "internalType": "uint256",
          "name": "counter",
          "type": "uint256"
        }
      ],
      "name": "ReceiveNFT",
      "type": "event"
    },
    {
      "anonymous": false,
      "inputs": [
        {
          "indexed": true,
          "internalType": "address",
          "name": "from",
          "type": "address"
        },
        {
          "indexed": true,
          "internalType": "address",
          "name": "to",
          "type": "address"
        },
        {
          "indexed": true,
          "internalType": "uint256",
          "name": "tokenId",
          "type": "uint256"
        }
      ],
      "name": "Transfer",
      "type": "event"
    },
    {
      "inputs": [
        {
          "internalType": "address",
          "name": "to",
          "type": "address"
        },
        {
          "internalType": "uint256",
          "name": "tokenId",
          "type": "uint256"
        }
      ],
      "name": "approve",
      "outputs": [],
      "stateMutability": "nonpayable",
      "type": "function"
    },
    {
      "inputs": [
        {
          "internalType": "address",
          "name": "owner",
          "type": "address"
        }
      ],
      "name": "balanceOf",
      "outputs": [
        {
          "internalType": "uint256",
          "name": "",
          "type": "uint256"
        }
      ],
      "stateMutability": "view",
      "type": "function"
    },
    {
      "inputs": [
        {
          "internalType": "uint256",
          "name": "attackerTokenId",
          "type": "uint256"
        },
        {
          "internalType": "uint256",
          "name": "defenderTokenId",
          "type": "uint256"
        }
      ],
      "name": "battle",
      "outputs": [
        {
          "internalType": "uint256",
          "name": "requestId",
          "type": "uint256"
        }
      ],
      "stateMutability": "nonpayable",
      "type": "function"
    },
    {
      "inputs": [
        {
          "internalType": "uint256",
          "name": "",
          "type": "uint256"
        }
      ],
      "name": "battles",
      "outputs": [
        {
          "internalType": "uint256",
          "name": "attackerTokenId",
          "type": "uint256"
        },
        {
          "internalType": "uint256",
          "name": "defenderTokenId",
          "type": "uint256"
        },
        {
          "internalType": "bool",
          "name": "battleFinished",
          "type": "bool"
        }
      ],
      "stateMutability": "view",
      "type": "function"
    },
    {
      "inputs": [
        {
          "internalType": "uint256",
          "name": "tokenId",
          "type": "uint256"
        }
      ],
      "name": "claim",
      "outputs": [],
      "stateMutability": "nonpayable",
      "type": "function"
    },
    {
      "inputs": [
        {
          "internalType": "uint16",
          "name": "_dstChainId",
          "type": "uint16"
        },
        {
          "internalType": "bytes",
          "name": "_destination",
          "type": "bytes"
        },
        {
          "internalType": "uint256",
          "name": "tokenId",
          "type": "uint256"
        },
        {
          "internalType": "uint256",
          "name": "missleTarget",
          "type": "uint256"
        }
      ],
      "name": "crossChain",
      "outputs": [],
      "stateMutability": "payable",
      "type": "function"
    },
    {
      "inputs": [],
      "name": "endpoint",
      "outputs": [
        {
          "internalType": "contract ILayerZeroEndpoint",
          "name": "",
          "type": "address"
        }
      ],
      "stateMutability": "view",
      "type": "function"
    },
    {
      "inputs": [
        {
          "internalType": "uint16",
          "name": "_dstChainId",
          "type": "uint16"
        },
        {
          "internalType": "address",
          "name": "_userApplication",
          "type": "address"
        },
        {
          "internalType": "bytes",
          "name": "_payload",
          "type": "bytes"
        },
        {
          "internalType": "bool",
          "name": "_payInZRO",
          "type": "bool"
        },
        {
          "internalType": "bytes",
          "name": "_adapterParams",
          "type": "bytes"
        }
      ],
      "name": "estimateFees",
      "outputs": [
        {
          "internalType": "uint256",
          "name": "nativeFee",
          "type": "uint256"
        },
        {
          "internalType": "uint256",
          "name": "zroFee",
          "type": "uint256"
        }
      ],
      "stateMutability": "view",
      "type": "function"
    },
    {
      "inputs": [
        {
          "internalType": "uint256",
          "name": "tokenId",
          "type": "uint256"
        }
      ],
      "name": "getApproved",
      "outputs": [
        {
          "internalType": "address",
          "name": "",
          "type": "address"
        }
      ],
      "stateMutability": "view",
      "type": "function"
    },
    {
      "inputs": [
        {
          "internalType": "uint256",
          "name": "_id",
          "type": "uint256"
        }
      ],
      "name": "getSpaceshipByTokenId",
      "outputs": [
        {
          "components": [
            {
              "internalType": "uint256",
              "name": "power",
              "type": "uint256"
            },
            {
              "internalType": "uint256",
              "name": "points",
              "type": "uint256"
            },
            {
              "internalType": "bool",
              "name": "staked",
              "type": "bool"
            },
            {
              "internalType": "bool",
              "name": "inBattle",
              "type": "bool"
            },
            {
              "internalType": "uint256",
              "name": "stakeStartTime",
              "type": "uint256"
            },
            {
              "internalType": "uint256",
              "name": "tokenMissiles",
              "type": "uint256"
            },
            {
              "internalType": "uint256",
              "name": "tokenShields",
              "type": "uint256"
            }
          ],
          "internalType": "struct OmniChainNFT.Spaceship",
          "name": "spaceship",
          "type": "tuple"
        }
      ],
      "stateMutability": "view",
      "type": "function"
    },
    {
      "inputs": [
        {
          "internalType": "address",
          "name": "owner",
          "type": "address"
        },
        {
          "internalType": "address",
          "name": "operator",
          "type": "address"
        }
      ],
      "name": "isApprovedForAll",
      "outputs": [
        {
          "internalType": "bool",
          "name": "",
          "type": "bool"
        }
      ],
      "stateMutability": "view",
      "type": "function"
    },
    {
      "inputs": [
        {
          "internalType": "uint16",
          "name": "_srcChainId",
          "type": "uint16"
        },
        {
          "internalType": "bytes",
          "name": "_from",
          "type": "bytes"
        },
        {
          "internalType": "uint64",
          "name": "",
          "type": "uint64"
        },
        {
          "internalType": "bytes",
          "name": "_payload",
          "type": "bytes"
        }
      ],
      "name": "lzReceive",
      "outputs": [],
      "stateMutability": "nonpayable",
      "type": "function"
    },
    {
      "inputs": [
        {
          "internalType": "uint256",
          "name": "tokenId1",
          "type": "uint256"
        },
        {
          "internalType": "uint256",
          "name": "tokenId2",
          "type": "uint256"
        }
      ],
      "name": "merge",
      "outputs": [],
      "stateMutability": "nonpayable",
      "type": "function"
    },
    {
      "inputs": [],
      "name": "mint",
      "outputs": [],
      "stateMutability": "payable",
      "type": "function"
    },
    {
      "inputs": [],
      "name": "name",
      "outputs": [
        {
          "internalType": "string",
          "name": "",
          "type": "string"
        }
      ],
      "stateMutability": "view",
      "type": "function"
    },
    {
      "inputs": [],
      "name": "owner",
      "outputs": [
        {
          "internalType": "address",
          "name": "",
          "type": "address"
        }
      ],
      "stateMutability": "view",
      "type": "function"
    },
    {
      "inputs": [
        {
          "internalType": "uint256",
          "name": "tokenId",
          "type": "uint256"
        }
      ],
      "name": "ownerOf",
      "outputs": [
        {
          "internalType": "address",
          "name": "",
          "type": "address"
        }
      ],
      "stateMutability": "view",
      "type": "function"
    },
    {
      "inputs": [
        {
          "internalType": "uint256",
          "name": "requestId",
          "type": "uint256"
        },
        {
          "internalType": "uint256[]",
          "name": "randomWords",
          "type": "uint256[]"
        }
      ],
      "name": "rawFulfillRandomWords",
      "outputs": [],
      "stateMutability": "nonpayable",
      "type": "function"
    },
    {
      "inputs": [],
      "name": "renounceOwnership",
      "outputs": [],
      "stateMutability": "nonpayable",
      "type": "function"
    },
    {
      "inputs": [
        {
          "internalType": "address",
          "name": "from",
          "type": "address"
        },
        {
          "internalType": "address",
          "name": "to",
          "type": "address"
        },
        {
          "internalType": "uint256",
          "name": "tokenId",
          "type": "uint256"
        }
      ],
      "name": "safeTransferFrom",
      "outputs": [],
      "stateMutability": "nonpayable",
      "type": "function"
    },
    {
      "inputs": [
        {
          "internalType": "address",
          "name": "from",
          "type": "address"
        },
        {
          "internalType": "address",
          "name": "to",
          "type": "address"
        },
        {
          "internalType": "uint256",
          "name": "tokenId",
          "type": "uint256"
        },
        {
          "internalType": "bytes",
          "name": "data",
          "type": "bytes"
        }
      ],
      "name": "safeTransferFrom",
      "outputs": [],
      "stateMutability": "nonpayable",
      "type": "function"
    },
    {
      "inputs": [
        {
          "internalType": "address",
          "name": "operator",
          "type": "address"
        },
        {
          "internalType": "bool",
          "name": "approved",
          "type": "bool"
        }
      ],
      "name": "setApprovalForAll",
      "outputs": [],
      "stateMutability": "nonpayable",
      "type": "function"
    },
    {
      "inputs": [
        {
          "internalType": "uint256",
          "name": "",
          "type": "uint256"
        }
      ],
      "name": "spaceships",
      "outputs": [
        {
          "internalType": "uint256",
          "name": "power",
          "type": "uint256"
        },
        {
          "internalType": "uint256",
          "name": "points",
          "type": "uint256"
        },
        {
          "internalType": "bool",
          "name": "staked",
          "type": "bool"
        },
        {
          "internalType": "bool",
          "name": "inBattle",
          "type": "bool"
        },
        {
          "internalType": "uint256",
          "name": "stakeStartTime",
          "type": "uint256"
        },
        {
          "internalType": "uint256",
          "name": "tokenMissiles",
          "type": "uint256"
        },
        {
          "internalType": "uint256",
          "name": "tokenShields",
          "type": "uint256"
        }
      ],
      "stateMutability": "view",
      "type": "function"
    },
    {
      "inputs": [
        {
          "internalType": "uint256",
          "name": "tokenId",
          "type": "uint256"
        }
      ],
      "name": "stake",
      "outputs": [],
      "stateMutability": "nonpayable",
      "type": "function"
    },
    {
      "inputs": [
        {
          "internalType": "bytes4",
          "name": "interfaceId",
          "type": "bytes4"
        }
      ],
      "name": "supportsInterface",
      "outputs": [
        {
          "internalType": "bool",
          "name": "",
          "type": "bool"
        }
      ],
      "stateMutability": "view",
      "type": "function"
    },
    {
      "inputs": [],
      "name": "symbol",
      "outputs": [
        {
          "internalType": "string",
          "name": "",
          "type": "string"
        }
      ],
      "stateMutability": "view",
      "type": "function"
    },
    {
      "inputs": [
        {
          "internalType": "uint256",
          "name": "index",
          "type": "uint256"
        }
      ],
      "name": "tokenByIndex",
      "outputs": [
        {
          "internalType": "uint256",
          "name": "",
          "type": "uint256"
        }
      ],
      "stateMutability": "view",
      "type": "function"
    },
    {
      "inputs": [
        {
          "internalType": "uint256",
          "name": "",
          "type": "uint256"
        }
      ],
      "name": "tokenHasTravelled",
      "outputs": [
        {
          "internalType": "bool",
          "name": "",
          "type": "bool"
        }
      ],
      "stateMutability": "view",
      "type": "function"
    },
    {
      "inputs": [
        {
          "internalType": "address",
          "name": "owner",
          "type": "address"
        },
        {
          "internalType": "uint256",
          "name": "index",
          "type": "uint256"
        }
      ],
      "name": "tokenOfOwnerByIndex",
      "outputs": [
        {
          "internalType": "uint256",
          "name": "",
          "type": "uint256"
        }
      ],
      "stateMutability": "view",
      "type": "function"
    },
    {
      "inputs": [
        {
          "internalType": "uint256",
          "name": "tokenId",
          "type": "uint256"
        }
      ],
      "name": "tokenURI",
      "outputs": [
        {
          "internalType": "string",
          "name": "",
          "type": "string"
        }
      ],
      "stateMutability": "view",
      "type": "function"
    },
    {
      "inputs": [],
      "name": "totalSupply",
      "outputs": [
        {
          "internalType": "uint256",
          "name": "",
          "type": "uint256"
        }
      ],
      "stateMutability": "view",
      "type": "function"
    },
    {
      "inputs": [
        {
          "internalType": "address",
          "name": "from",
          "type": "address"
        },
        {
          "internalType": "address",
          "name": "to",
          "type": "address"
        },
        {
          "internalType": "uint256",
          "name": "tokenId",
          "type": "uint256"
        }
      ],
      "name": "transferFrom",
      "outputs": [],
      "stateMutability": "nonpayable",
      "type": "function"
    },
    {
      "inputs": [
        {
          "internalType": "address",
          "name": "newOwner",
          "type": "address"
        }
      ],
      "name": "transferOwnership",
      "outputs": [],
      "stateMutability": "nonpayable",
      "type": "function"
    },
    {
      "inputs": [
        {
          "internalType": "uint256",
          "name": "tokenId",
          "type": "uint256"
        }
      ],
      "name": "unstake",
      "outputs": [],
      "stateMutability": "nonpayable",
      "type": "function"
    }
  ],
  "bytecode": "0x60a06040526000600b556000600c556064600d556000600e5562055730600f55736168499c0cffcacd319c818142124b7a15e857ab601560006101000a81548173ffffffffffffffffffffffffffffffffffffffff021916908373ffffffffffffffffffffffffffffffffffffffff1602179055507fd89b2bf150e3b9e13446986e571fb9cab24b13cea0a43ea20a6049a85cc807cc60001b60165562030d40601760006101000a81548163ffffffff021916908363ffffffff1602179055506003601760046101000a81548161ffff021916908361ffff1602179055506001601760066101000a81548163ffffffff021916908363ffffffff1602179055503480156200010c57600080fd5b5060405162005eb438038062005eb48339818101604052810190620001329190620004fa565b601560009054906101000a900473ffffffffffffffffffffffffffffffffffffffff166040518060400160405280600c81526020017f4f6d6e69436861696e4e465400000000000000000000000000000000000000008152506040518060400160405280600981526020017f5370616365736869700000000000000000000000000000000000000000000000815250620001e1620001d56200033960201b60201c565b6200034160201b60201c565b8160019080519060200190620001f992919062000405565b5080600290805190602001906200021292919062000405565b5050508073ffffffffffffffffffffffffffffffffffffffff1660808173ffffffffffffffffffffffffffffffffffffffff1660601b8152505050846017600a6101000a81548173ffffffffffffffffffffffffffffffffffffffff021916908373ffffffffffffffffffffffffffffffffffffffff16021790555082600c819055508360108190555081600d81905550601560009054906101000a900473ffffffffffffffffffffffffffffffffffffffff16601460006101000a81548173ffffffffffffffffffffffffffffffffffffffff021916908373ffffffffffffffffffffffffffffffffffffffff160217905550806014806101000a81548167ffffffffffffffff021916908367ffffffffffffffff160217905550505050505062000681565b600033905090565b60008060009054906101000a900473ffffffffffffffffffffffffffffffffffffffff169050816000806101000a81548173ffffffffffffffffffffffffffffffffffffffff021916908373ffffffffffffffffffffffffffffffffffffffff1602179055508173ffffffffffffffffffffffffffffffffffffffff168173ffffffffffffffffffffffffffffffffffffffff167f8be0079c531659141344cd1fd0a4f28419497f9722a3daafe3b4186f6b6457e060405160405180910390a35050565b8280546200041390620005ce565b90600052602060002090601f01602090048101928262000437576000855562000483565b82601f106200045257805160ff191683800117855562000483565b8280016001018555821562000483579182015b828111156200048257825182559160200191906001019062000465565b5b50905062000492919062000496565b5090565b5b80821115620004b157600081600090555060010162000497565b5090565b600081519050620004c68162000633565b92915050565b600081519050620004dd816200064d565b92915050565b600081519050620004f48162000667565b92915050565b600080600080600060a086880312156200051357600080fd5b60006200052388828901620004b5565b95505060206200053688828901620004cc565b94505060406200054988828901620004cc565b93505060606200055c88828901620004cc565b92505060806200056f88828901620004e3565b9150509295509295909350565b6000620005898262000590565b9050919050565b600073ffffffffffffffffffffffffffffffffffffffff82169050919050565b6000819050919050565b600067ffffffffffffffff82169050919050565b60006002820490506001821680620005e757607f821691505b60208210811415620005fe57620005fd62000604565b5b50919050565b7f4e487b7100000000000000000000000000000000000000000000000000000000600052602260045260246000fd5b6200063e816200057c565b81146200064a57600080fd5b50565b6200065881620005b0565b81146200066457600080fd5b50565b6200067281620005ba565b81146200067e57600080fd5b50565b60805160601c61580d620006a760003960008181610ed90152610f2d015261580d6000f3fe6080604052600436106101f85760003560e01c8063606d2e961161010d57806395ca8acb116100a0578063b88d4fde1161006f578063b88d4fde14610767578063c87b56dd14610790578063d1c2babb146107cd578063e985e9c5146107f6578063f2fde38b14610833576101f8565b806395ca8acb146106a757806395d89b41146106ea578063a22cb46514610715578063a694fc3a1461073e576101f8565b806370a08231116100dc57806370a08231146105eb578063715018a6146106285780638954677c1461063f5780638da5cb5b1461067c576101f8565b8063606d2e961461051657806361ca4686146105555780636352211e1461057157806367a66970146105ae576101f8565b806323b872dd11610190578063379607f51161015f578063379607f51461041e57806340a7bb101461044757806342842e0e146104855780634f6ccce7146104ae5780635e280f11146104eb576101f8565b806323b872dd146103525780632a0c52211461037b5780632e17de78146103b85780632f745c59146103e1576101f8565b8063095ea7b3116101cc578063095ea7b3146102cb5780631249c58b146102f457806318160ddd146102fe5780631fe543e314610329576101f8565b80621d3567146101fd57806301ffc9a71461022657806306fdde0314610263578063081812fc1461028e575b600080fd5b34801561020957600080fd5b50610224600480360381019061021f91906141bd565b61085c565b005b34801561023257600080fd5b5061024d6004803603810190610248919061403b565b610ba1565b60405161025a919061496c565b60405180910390f35b34801561026f57600080fd5b50610278610bb3565b60405161028591906149f5565b60405180910390f35b34801561029a57600080fd5b506102b560048036038101906102b09190614250565b610c45565b6040516102c2919061486d565b60405180910390f35b3480156102d757600080fd5b506102f260048036038101906102ed9190613fff565b610c8b565b005b6102fc610da3565b005b34801561030a57600080fd5b50610313610eca565b6040516103209190614d95565b60405180910390f35b34801561033557600080fd5b50610350600480360381019061034b91906142a2565b610ed7565b005b34801561035e57600080fd5b5061037960048036038101906103749190613ef9565b610f97565b005b34801561038757600080fd5b506103a2600480360381019061039d91906142f6565b610ff7565b6040516103af9190614d95565b60405180910390f35b3480156103c457600080fd5b506103df60048036038101906103da9190614250565b611273565b005b3480156103ed57600080fd5b5061040860048036038101906104039190613fff565b61138c565b6040516104159190614d95565b60405180910390f35b34801561042a57600080fd5b5061044560048036038101906104409190614250565b611431565b005b34801561045357600080fd5b5061046e6004803603810190610469919061408d565b61151a565b60405161047c929190614db0565b60405180910390f35b34801561049157600080fd5b506104ac60048036038101906104a79190613ef9565b6115e3565b005b3480156104ba57600080fd5b506104d560048036038101906104d09190614250565b611603565b6040516104e29190614d95565b60405180910390f35b3480156104f757600080fd5b5061050061169a565b60405161050d91906149da565b60405180910390f35b34801561052257600080fd5b5061053d60048036038101906105389190614250565b6116c0565b60405161054c93929190614dd9565b60405180910390f35b61056f600480360381019061056a919061413d565b6116f7565b005b34801561057d57600080fd5b5061059860048036038101906105939190614250565b611a67565b6040516105a5919061486d565b60405180910390f35b3480156105ba57600080fd5b506105d560048036038101906105d09190614250565b611b19565b6040516105e29190614bf7565b60405180910390f35b3480156105f757600080fd5b50610612600480360381019061060d9190613df6565b611bae565b60405161061f9190614d95565b60405180910390f35b34801561063457600080fd5b5061063d611c66565b005b34801561064b57600080fd5b5061066660048036038101906106619190614250565b611c7a565b604051610673919061496c565b60405180910390f35b34801561068857600080fd5b50610691611c9a565b60405161069e919061486d565b60405180910390f35b3480156106b357600080fd5b506106ce60048036038101906106c99190614250565b611cc3565b6040516106e19796959493929190614e10565b60405180910390f35b3480156106f657600080fd5b506106ff611d1f565b60405161070c91906149f5565b60405180910390f35b34801561072157600080fd5b5061073c60048036038101906107379190613fc3565b611db1565b005b34801561074a57600080fd5b5061076560048036038101906107609190614250565b611dc7565b005b34801561077357600080fd5b5061078e60048036038101906107899190613f48565b611ee1565b005b34801561079c57600080fd5b506107b760048036038101906107b29190614250565b611f43565b6040516107c491906149f5565b60405180910390f35b3480156107d957600080fd5b506107f460048036038101906107ef91906142f6565b611f8f565b005b34801561080257600080fd5b5061081d60048036038101906108189190613ebd565b612060565b60405161082a919061496c565b60405180910390f35b34801561083f57600080fd5b5061085a60048036038101906108559190613df6565b6120f4565b005b6017600a9054906101000a900473ffffffffffffffffffffffffffffffffffffffff1673ffffffffffffffffffffffffffffffffffffffff163373ffffffffffffffffffffffffffffffffffffffff16146108b657600080fd5b6000601484015190506000806000806000806000888060200190518101906108de9190613e1f565b96509650965096509650965096506108f68787612178565b6001600b60008282546109099190614f44565b9250508190555060008114610a92576001836109259190615025565b925060006011600088815260200190815260200160002060050154111561098857600160116000888152602001908152602001600020600501546109699190615025565b6011600088815260200190815260200160002060050181905550610a91565b600860116000888152602001908152602001600020600001546109ab9190615025565b6011600088815260200190815260200160002060000181905550600160116000888152602001908152602001600020600501546109e89190615025565b60116000888152602001908152602001600020600501819055506001601160008881526020019081526020016000206000015411610a9057610a2986612196565b6011600087815260200190815260200160002060008082016000905560018201600090556002820160006101000a81549060ff02191690556002820160016101000a81549060ff021916905560038201600090556004820160009055600582016000905550505b5b5b6040518060e00160405280868152602001858152602001600015158152602001600015158152602001600081526020018481526020018381525060116000888152602001908152602001600020600082015181600001556020820151816001015560408201518160020160006101000a81548160ff02191690831515021790555060608201518160020160016101000a81548160ff0219169083151502179055506080820151816003015560a0820151816004015560c082015181600501559050507fec16668a9529c4fc256054f3e18620ef50c89aec357376cce821207ff1e656f08c8888600b54604051610b8b9493929190614cd8565b60405180910390a1505050505050505050505050565b6000610bac826122b3565b9050919050565b606060018054610bc290615181565b80601f0160208091040260200160405190810160405280929190818152602001828054610bee90615181565b8015610c3b5780601f10610c1057610100808354040283529160200191610c3b565b820191906000526020600020905b815481529060010190602001808311610c1e57829003601f168201915b5050505050905090565b6000610c508261232d565b6005600083815260200190815260200160002060009054906101000a900473ffffffffffffffffffffffffffffffffffffffff169050919050565b6000610c9682611a67565b90508073ffffffffffffffffffffffffffffffffffffffff168373ffffffffffffffffffffffffffffffffffffffff161415610d07576040517f08c379a0000000000000000000000000000000000000000000000000000000008152600401610cfe90614b97565b60405180910390fd5b8073ffffffffffffffffffffffffffffffffffffffff16610d26612378565b73ffffffffffffffffffffffffffffffffffffffff161480610d555750610d5481610d4f612378565b612060565b5b610d94576040517f08c379a0000000000000000000000000000000000000000000000000000000008152600401610d8b90614b17565b60405180910390fd5b610d9e8383612380565b505050565b600d546001600c54610db59190614f44565b1115610dc057600080fd5b6001600c6000828254610dd39190614f44565b92505081905550610de633600c54612178565b6040518060e0016040528060028152602001600081526020016000151581526020016000151581526020016000815260200160008152602001600081525060116000600c548152602001908152602001600020600082015181600001556020820151816001015560408201518160020160006101000a81548160ff02191690831515021790555060608201518160020160016101000a81548160ff0219169083151502179055506080820151816003015560a0820151816004015560c082015181600501559050506001600b6000828254610ec19190614f44565b92505081905550565b6000600980549050905090565b7f000000000000000000000000000000000000000000000000000000000000000073ffffffffffffffffffffffffffffffffffffffff163373ffffffffffffffffffffffffffffffffffffffff1614610f8957337f00000000000000000000000000000000000000000000000000000000000000006040517f1cf993f4000000000000000000000000000000000000000000000000000000008152600401610f80929190614888565b60405180910390fd5b610f938282612439565b5050565b610fa8610fa2612378565b826126a9565b610fe7576040517f08c379a0000000000000000000000000000000000000000000000000000000008152600401610fde90614bd7565b60405180910390fd5b610ff283838361273e565b505050565b600061100283611a67565b73ffffffffffffffffffffffffffffffffffffffff163373ffffffffffffffffffffffffffffffffffffffff161461103957600080fd5b611042826129d0565b61104b57600080fd5b6011600084815260200190815260200160002060020160019054906101000a900460ff1615801561109d57506011600083815260200190815260200160002060020160019054906101000a900460ff16155b6110a657600080fd5b601460009054906101000a900473ffffffffffffffffffffffffffffffffffffffff1673ffffffffffffffffffffffffffffffffffffffff16635d3b1d3060165460148054906101000a900467ffffffffffffffff16601760049054906101000a900461ffff16601760009054906101000a900463ffffffff16601760069054906101000a900463ffffffff166040518663ffffffff1660e01b8152600401611153959493929190614987565b602060405180830381600087803b15801561116d57600080fd5b505af1158015611181573d6000803e3d6000fd5b505050506040513d601f19601f820116820180604052508101906111a59190614279565b905060405180606001604052808481526020018381526020016000151581525060126000838152602001908152602001600020600082015181600001556020820151816001015560408201518160020160006101000a81548160ff02191690831515021790555090505060016011600085815260200190815260200160002060020160016101000a81548160ff02191690831515021790555060016011600084815260200190815260200160002060020160016101000a81548160ff02191690831515021790555092915050565b61127c81611a67565b73ffffffffffffffffffffffffffffffffffffffff163373ffffffffffffffffffffffffffffffffffffffff16146112b357600080fd5b6011600082815260200190815260200160002060020160009054906101000a900460ff166112e057600080fd5b61130b61130460116000848152602001908152602001600020600001546004612a3c565b6005612a52565b601160008381526020019081526020016000206000018190555060006011600083815260200190815260200160002060020160006101000a81548160ff0219169083151502179055504260116000838152602001908152602001600020600301819055506001600e60008282546113829190615025565b9250508190555050565b600061139783611bae565b82106113d8576040517f08c379a00000000000000000000000000000000000000000000000000000000081526004016113cf90614a17565b60405180910390fd5b600760008473ffffffffffffffffffffffffffffffffffffffff1673ffffffffffffffffffffffffffffffffffffffff168152602001908152602001600020600083815260200190815260200160002054905092915050565b61143a81611a67565b73ffffffffffffffffffffffffffffffffffffffff163373ffffffffffffffffffffffffffffffffffffffff161461147157600080fd5b6011600082815260200190815260200160002060020160009054906101000a900460ff1661149e57600080fd5b60006011600083815260200190815260200160002060030154426114c29190615025565b90506114fc601160008481526020019081526020016000206001015460026114ed8462015180612a3c565b6114f79190614fcb565b612a68565b60116000848152602001908152602001600020600101819055505050565b6000806017600a9054906101000a900473ffffffffffffffffffffffffffffffffffffffff1673ffffffffffffffffffffffffffffffffffffffff166340a7bb108a8a8a8a8a8a8a6040518863ffffffff1660e01b81526004016115849796959493929190614c12565b604080518083038186803b15801561159b57600080fd5b505afa1580156115af573d6000803e3d6000fd5b505050506040513d601f19601f820116820180604052508101906115d39190614332565b9150915097509795505050505050565b6115fe83838360405180602001604052806000815250611ee1565b505050565b600061160d610eca565b821061164e576040517f08c379a000000000000000000000000000000000000000000000000000000000815260040161164590614bb7565b60405180910390fd5b60098281548110611688577f4e487b7100000000000000000000000000000000000000000000000000000000600052603260045260246000fd5b90600052602060002001549050919050565b6017600a9054906101000a900473ffffffffffffffffffffffffffffffffffffffff1681565b60126020528060005260406000206000915090508060000154908060010154908060020160009054906101000a900460ff16905083565b61170082611a67565b73ffffffffffffffffffffffffffffffffffffffff163373ffffffffffffffffffffffffffffffffffffffff161461173757600080fd5b6011600083815260200190815260200160002060020160009054906101000a900460ff161561176557600080fd5b6011600083815260200190815260200160002060020160019054906101000a900460ff161561179357600080fd5b600081146117bf5760006011600084815260200190815260200160002060040154116117be57600080fd5b5b60006013600084815260200190815260200160002060009054906101000a900460ff1661181757600a905060016013600085815260200190815260200160002060006101000a81548160ff0219169083151502179055505b61182083612196565b6001600b60008282546118339190615025565b925050819055506000338460116000878152602001908152602001600020600001548460116000898152602001908152602001600020600101546118779190614f44565b6011600089815260200190815260200160002060040154601160008a815260200190815260200160002060050154886040516020016118bc97969594939291906148fd565b6040516020818303038152906040529050600060019050600081600f546040516020016118ea929190614841565b604051602081830303815290604052905060006017600a9054906101000a900473ffffffffffffffffffffffffffffffffffffffff1673ffffffffffffffffffffffffffffffffffffffff166340a7bb108b30876000876040518663ffffffff1660e01b8152600401611961959493929190614c77565b604080518083038186803b15801561197857600080fd5b505afa15801561198c573d6000803e3d6000fd5b505050506040513d601f19601f820116820180604052508101906119b09190614332565b509050803410156119c057600080fd5b6017600a9054906101000a900473ffffffffffffffffffffffffffffffffffffffff1673ffffffffffffffffffffffffffffffffffffffff1663c5803100348c8c8c893360008a6040518963ffffffff1660e01b8152600401611a299796959493929190614d1d565b6000604051808303818588803b158015611a4257600080fd5b505af1158015611a56573d6000803e3d6000fd5b505050505050505050505050505050565b6000806003600084815260200190815260200160002060009054906101000a900473ffffffffffffffffffffffffffffffffffffffff169050600073ffffffffffffffffffffffffffffffffffffffff168173ffffffffffffffffffffffffffffffffffffffff161415611b10576040517f08c379a0000000000000000000000000000000000000000000000000000000008152600401611b0790614b77565b60405180910390fd5b80915050919050565b611b21613bb0565b601160008381526020019081526020016000206040518060e001604052908160008201548152602001600182015481526020016002820160009054906101000a900460ff161515151581526020016002820160019054906101000a900460ff1615151515815260200160038201548152602001600482015481526020016005820154815250509050919050565b60008073ffffffffffffffffffffffffffffffffffffffff168273ffffffffffffffffffffffffffffffffffffffff161415611c1f576040517f08c379a0000000000000000000000000000000000000000000000000000000008152600401611c1690614af7565b60405180910390fd5b600460008373ffffffffffffffffffffffffffffffffffffffff1673ffffffffffffffffffffffffffffffffffffffff168152602001908152602001600020549050919050565b611c6e612a7e565b611c786000612afc565b565b60136020528060005260406000206000915054906101000a900460ff1681565b60008060009054906101000a900473ffffffffffffffffffffffffffffffffffffffff16905090565b60116020528060005260406000206000915090508060000154908060010154908060020160009054906101000a900460ff16908060020160019054906101000a900460ff16908060030154908060040154908060050154905087565b606060028054611d2e90615181565b80601f0160208091040260200160405190810160405280929190818152602001828054611d5a90615181565b8015611da75780601f10611d7c57610100808354040283529160200191611da7565b820191906000526020600020905b815481529060010190602001808311611d8a57829003601f168201915b5050505050905090565b611dc3611dbc612378565b8383612bc0565b5050565b611dd081611a67565b73ffffffffffffffffffffffffffffffffffffffff163373ffffffffffffffffffffffffffffffffffffffff1614611e0757600080fd5b6011600082815260200190815260200160002060020160009054906101000a900460ff1615611e3557600080fd5b611e60611e5960116000848152602001908152602001600020600001546005612a3c565b6004612a52565b601160008381526020019081526020016000206000018190555060016011600083815260200190815260200160002060020160006101000a81548160ff0219169083151502179055504260116000838152602001908152602001600020600301819055506001600e6000828254611ed79190614f44565b9250508190555050565b611ef2611eec612378565b836126a9565b611f31576040517f08c379a0000000000000000000000000000000000000000000000000000000008152600401611f2890614bd7565b60405180910390fd5b611f3d84848484612d2d565b50505050565b6060611f4d612d89565b6010546011600085815260200190815260200160002060000154604051602001611f79939291906147f2565b6040516020818303038152906040529050919050565b611f9882611a67565b73ffffffffffffffffffffffffffffffffffffffff163373ffffffffffffffffffffffffffffffffffffffff161480156120055750611fd681611a67565b73ffffffffffffffffffffffffffffffffffffffff163373ffffffffffffffffffffffffffffffffffffffff16145b61200e57600080fd5b6011600082815260200190815260200160002060000154601160008481526020019081526020016000206000015411156120515761204c8183612da9565b61205c565b61205b8282612da9565b5b5050565b6000600660008473ffffffffffffffffffffffffffffffffffffffff1673ffffffffffffffffffffffffffffffffffffffff16815260200190815260200160002060008373ffffffffffffffffffffffffffffffffffffffff1673ffffffffffffffffffffffffffffffffffffffff16815260200190815260200160002060009054906101000a900460ff16905092915050565b6120fc612a7e565b600073ffffffffffffffffffffffffffffffffffffffff168173ffffffffffffffffffffffffffffffffffffffff16141561216c576040517f08c379a000000000000000000000000000000000000000000000000000000000815260040161216390614a57565b60405180910390fd5b61217581612afc565b50565b612192828260405180602001604052806000815250612f70565b5050565b60006121a182611a67565b90506121af81600084612fcb565b6121ba600083612380565b6001600460008373ffffffffffffffffffffffffffffffffffffffff1673ffffffffffffffffffffffffffffffffffffffff168152602001908152602001600020600082825461220a9190615025565b925050819055506003600083815260200190815260200160002060006101000a81549073ffffffffffffffffffffffffffffffffffffffff021916905581600073ffffffffffffffffffffffffffffffffffffffff168273ffffffffffffffffffffffffffffffffffffffff167fddf252ad1be2c89b69c2b068fc378daa952ba7f163c4a11628f55a4df523b3ef60405160405180910390a46122af81600084612fdb565b5050565b60007f780e9d63000000000000000000000000000000000000000000000000000000007bffffffffffffffffffffffffffffffffffffffffffffffffffffffff1916827bffffffffffffffffffffffffffffffffffffffffffffffffffffffff19161480612326575061232582612fe0565b5b9050919050565b612336816129d0565b612375576040517f08c379a000000000000000000000000000000000000000000000000000000000815260040161236c90614b77565b60405180910390fd5b50565b600033905090565b816005600083815260200190815260200160002060006101000a81548173ffffffffffffffffffffffffffffffffffffffff021916908373ffffffffffffffffffffffffffffffffffffffff160217905550808273ffffffffffffffffffffffffffffffffffffffff166123f383611a67565b73ffffffffffffffffffffffffffffffffffffffff167f8c5be1e5ebec7d5bd14f71427d1e84f3dd0314c0f7b2291e5b200ac8c7c3b92560405160405180910390a45050565b604051806060016040528060126000858152602001908152602001600020600001548152602001601260008581526020019081526020016000206001015481526020016001151581525060126000848152602001908152602001600020600082015181600001556020820151816001015560408201518160020160006101000a81548160ff0219169083151502179055509050506000612510612509601160006012600088815260200190815260200160002060000154815260200190815260200160002060000154600a612a3c565b600b612a52565b9050600060116000601260008781526020019081526020016000206001015481526020019081526020016000206000015490506000600182846125539190614f44565b61255d9190614f44565b84600081518110612597577f4e487b7100000000000000000000000000000000000000000000000000000000600052603260045260246000fd5b602002602001015116905081831015612628578281116125ec576125e7601260008781526020019081526020016000206000015460126000888152602001908152602001600020600101546130c2565b612623565b612622601260008781526020019081526020016000206001015460126000888152602001908152602001600020600001546130c2565b5b6126a2565b81811161266a57612665601260008781526020019081526020016000206001015460126000888152602001908152602001600020600001546130c2565b6126a1565b6126a0601260008781526020019081526020016000206000015460126000888152602001908152602001600020600101546130c2565b5b5b5050505050565b6000806126b583611a67565b90508073ffffffffffffffffffffffffffffffffffffffff168473ffffffffffffffffffffffffffffffffffffffff1614806126f757506126f68185612060565b5b8061273557508373ffffffffffffffffffffffffffffffffffffffff1661271d84610c45565b73ffffffffffffffffffffffffffffffffffffffff16145b91505092915050565b8273ffffffffffffffffffffffffffffffffffffffff1661275e82611a67565b73ffffffffffffffffffffffffffffffffffffffff16146127b4576040517f08c379a00000000000000000000000000000000000000000000000000000000081526004016127ab90614a77565b60405180910390fd5b600073ffffffffffffffffffffffffffffffffffffffff168273ffffffffffffffffffffffffffffffffffffffff161415612824576040517f08c379a000000000000000000000000000000000000000000000000000000000815260040161281b90614ab7565b60405180910390fd5b61282f838383612fcb565b6005600082815260200190815260200160002060006101000a81549073ffffffffffffffffffffffffffffffffffffffff02191690556001600460008573ffffffffffffffffffffffffffffffffffffffff1673ffffffffffffffffffffffffffffffffffffffff16815260200190815260200160002060008282546128b59190615025565b925050819055506001600460008473ffffffffffffffffffffffffffffffffffffffff1673ffffffffffffffffffffffffffffffffffffffff168152602001908152602001600020600082825461290c9190614f44565b92505081905550816003600083815260200190815260200160002060006101000a81548173ffffffffffffffffffffffffffffffffffffffff021916908373ffffffffffffffffffffffffffffffffffffffff160217905550808273ffffffffffffffffffffffffffffffffffffffff168473ffffffffffffffffffffffffffffffffffffffff167fddf252ad1be2c89b69c2b068fc378daa952ba7f163c4a11628f55a4df523b3ef60405160405180910390a46129cb838383612fdb565b505050565b60008073ffffffffffffffffffffffffffffffffffffffff166003600084815260200190815260200160002060009054906101000a900473ffffffffffffffffffffffffffffffffffffffff1673ffffffffffffffffffffffffffffffffffffffff1614159050919050565b60008183612a4a9190614f9a565b905092915050565b60008183612a609190614fcb565b905092915050565b60008183612a769190614f44565b905092915050565b612a86612378565b73ffffffffffffffffffffffffffffffffffffffff16612aa4611c9a565b73ffffffffffffffffffffffffffffffffffffffff1614612afa576040517f08c379a0000000000000000000000000000000000000000000000000000000008152600401612af190614b57565b60405180910390fd5b565b60008060009054906101000a900473ffffffffffffffffffffffffffffffffffffffff169050816000806101000a81548173ffffffffffffffffffffffffffffffffffffffff021916908373ffffffffffffffffffffffffffffffffffffffff1602179055508173ffffffffffffffffffffffffffffffffffffffff168173ffffffffffffffffffffffffffffffffffffffff167f8be0079c531659141344cd1fd0a4f28419497f9722a3daafe3b4186f6b6457e060405160405180910390a35050565b8173ffffffffffffffffffffffffffffffffffffffff168373ffffffffffffffffffffffffffffffffffffffff161415612c2f576040517f08c379a0000000000000000000000000000000000000000000000000000000008152600401612c2690614ad7565b60405180910390fd5b80600660008573ffffffffffffffffffffffffffffffffffffffff1673ffffffffffffffffffffffffffffffffffffffff16815260200190815260200160002060008473ffffffffffffffffffffffffffffffffffffffff1673ffffffffffffffffffffffffffffffffffffffff16815260200190815260200160002060006101000a81548160ff0219169083151502179055508173ffffffffffffffffffffffffffffffffffffffff168373ffffffffffffffffffffffffffffffffffffffff167f17307eab39ab6107e8899845ad3d59bd9653f200f220920489ca2b5937696c3183604051612d20919061496c565b60405180910390a3505050565b612d3884848461273e565b612d448484848461330b565b612d83576040517f08c379a0000000000000000000000000000000000000000000000000000000008152600401612d7a90614a37565b60405180910390fd5b50505050565b60606040518060600160405280602781526020016157b160279139905090565b612df36011600083815260200190815260200160002060000154612dee612de760116000878152602001908152602001600020600001546005612a3c565b6002612a52565b612a68565b6011600083815260200190815260200160002060000181905550612e4360116000838152602001908152602001600020600101546011600085815260200190815260200160002060010154612a68565b6011600083815260200190815260200160002060010181905550612e9360116000838152602001908152602001600020600401546011600085815260200190815260200160002060040154612a68565b6011600083815260200190815260200160002060040181905550612ee360116000838152602001908152602001600020600501546011600085815260200190815260200160002060040154612a68565b60116000838152602001908152602001600020600501819055506011600083815260200190815260200160002060008082016000905560018201600090556002820160006101000a81549060ff02191690556002820160016101000a81549060ff02191690556003820160009055600482016000905560058201600090555050612f6c82612196565b5050565b612f7a83836134a2565b612f87600084848461330b565b612fc6576040517f08c379a0000000000000000000000000000000000000000000000000000000008152600401612fbd90614a37565b60405180910390fd5b505050565b612fd683838361367c565b505050565b505050565b60007f80ac58cd000000000000000000000000000000000000000000000000000000007bffffffffffffffffffffffffffffffffffffffffffffffffffffffff1916827bffffffffffffffffffffffffffffffffffffffffffffffffffffffff191614806130ab57507f5b5e139f000000000000000000000000000000000000000000000000000000007bffffffffffffffffffffffffffffffffffffffffffffffffffffffff1916827bffffffffffffffffffffffffffffffffffffffffffffffffffffffff1916145b806130bb57506130ba82613790565b5b9050919050565b61310260116000848152602001908152602001600020600001546130fd60116000858152602001908152602001600020600001546002612a3c565b612a68565b601160008481526020019081526020016000206000018190555061315260116000848152602001908152602001600020600101546011600084815260200190815260200160002060010154612a68565b601160008481526020019081526020016000206001018190555060006011600084815260200190815260200160002060020160016101000a81548160ff0219169083151502179055506131db60116000838152602001908152602001600020600001546131d660116000858152602001908152602001600020600001546002612a3c565b6137fa565b60116000838152602001908152602001600020600001819055506000601160008381526020019081526020016000206001018190555060006011600083815260200190815260200160002060020160016101000a81548160ff02191690831515021790555060016011600083815260200190815260200160002060000154116132ce5761326781612196565b6011600082815260200190815260200160002060008082016000905560018201600090556002820160006101000a81549060ff02191690556002820160016101000a81549060ff021916905560038201600090556004820160009055600582016000905550505b7fe3e5de625f06c35ac95bd3ba40466651dba519a568973305d33004b4415a58f882826040516132ff929190614db0565b60405180910390a15050565b600061332c8473ffffffffffffffffffffffffffffffffffffffff16613810565b15613495578373ffffffffffffffffffffffffffffffffffffffff1663150b7a02613355612378565b8786866040518563ffffffff1660e01b815260040161337794939291906148b1565b602060405180830381600087803b15801561339157600080fd5b505af19250505080156133c257506040513d601f19601f820116820180604052508101906133bf9190614064565b60015b613445573d80600081146133f2576040519150601f19603f3d011682016040523d82523d6000602084013e6133f7565b606091505b5060008151141561343d576040517f08c379a000000000000000000000000000000000000000000000000000000000815260040161343490614a37565b60405180910390fd5b805181602001fd5b63150b7a0260e01b7bffffffffffffffffffffffffffffffffffffffffffffffffffffffff1916817bffffffffffffffffffffffffffffffffffffffffffffffffffffffff19161491505061349a565b600190505b949350505050565b600073ffffffffffffffffffffffffffffffffffffffff168273ffffffffffffffffffffffffffffffffffffffff161415613512576040517f08c379a000000000000000000000000000000000000000000000000000000000815260040161350990614b37565b60405180910390fd5b61351b816129d0565b1561355b576040517f08c379a000000000000000000000000000000000000000000000000000000000815260040161355290614a97565b60405180910390fd5b61356760008383612fcb565b6001600460008473ffffffffffffffffffffffffffffffffffffffff1673ffffffffffffffffffffffffffffffffffffffff16815260200190815260200160002060008282546135b79190614f44565b92505081905550816003600083815260200190815260200160002060006101000a81548173ffffffffffffffffffffffffffffffffffffffff021916908373ffffffffffffffffffffffffffffffffffffffff160217905550808273ffffffffffffffffffffffffffffffffffffffff16600073ffffffffffffffffffffffffffffffffffffffff167fddf252ad1be2c89b69c2b068fc378daa952ba7f163c4a11628f55a4df523b3ef60405160405180910390a461367860008383612fdb565b5050565b613687838383613833565b600073ffffffffffffffffffffffffffffffffffffffff168373ffffffffffffffffffffffffffffffffffffffff1614156136ca576136c581613838565b613709565b8173ffffffffffffffffffffffffffffffffffffffff168373ffffffffffffffffffffffffffffffffffffffff1614613708576137078382613881565b5b5b600073ffffffffffffffffffffffffffffffffffffffff168273ffffffffffffffffffffffffffffffffffffffff16141561374c57613747816139ee565b61378b565b8273ffffffffffffffffffffffffffffffffffffffff168273ffffffffffffffffffffffffffffffffffffffff161461378a576137898282613b31565b5b5b505050565b60007f01ffc9a7000000000000000000000000000000000000000000000000000000007bffffffffffffffffffffffffffffffffffffffffffffffffffffffff1916827bffffffffffffffffffffffffffffffffffffffffffffffffffffffff1916149050919050565b600081836138089190615025565b905092915050565b6000808273ffffffffffffffffffffffffffffffffffffffff163b119050919050565b505050565b600980549050600a600083815260200190815260200160002081905550600981908060018154018082558091505060019003906000526020600020016000909190919091505550565b6000600161388e84611bae565b6138989190615025565b905060006008600084815260200190815260200160002054905081811461397d576000600760008673ffffffffffffffffffffffffffffffffffffffff1673ffffffffffffffffffffffffffffffffffffffff168152602001908152602001600020600084815260200190815260200160002054905080600760008773ffffffffffffffffffffffffffffffffffffffff1673ffffffffffffffffffffffffffffffffffffffff168152602001908152602001600020600084815260200190815260200160002081905550816008600083815260200190815260200160002081905550505b6008600084815260200190815260200160002060009055600760008573ffffffffffffffffffffffffffffffffffffffff1673ffffffffffffffffffffffffffffffffffffffff16815260200190815260200160002060008381526020019081526020016000206000905550505050565b60006001600980549050613a029190615025565b90506000600a6000848152602001908152602001600020549050600060098381548110613a58577f4e487b7100000000000000000000000000000000000000000000000000000000600052603260045260246000fd5b906000526020600020015490508060098381548110613aa0577f4e487b7100000000000000000000000000000000000000000000000000000000600052603260045260246000fd5b906000526020600020018190555081600a600083815260200190815260200160002081905550600a6000858152602001908152602001600020600090556009805480613b15577f4e487b7100000000000000000000000000000000000000000000000000000000600052603160045260246000fd5b6001900381819060005260206000200160009055905550505050565b6000613b3c83611bae565b905081600760008573ffffffffffffffffffffffffffffffffffffffff1673ffffffffffffffffffffffffffffffffffffffff168152602001908152602001600020600083815260200190815260200160002081905550806008600084815260200190815260200160002081905550505050565b6040518060e0016040528060008152602001600081526020016000151581526020016000151581526020016000815260200160008152602001600081525090565b6000613c04613bff84614ea4565b614e7f565b90508083825260208201905082856020860282011115613c2357600080fd5b60005b85811015613c535781613c398882613db7565b845260208401935060208301925050600181019050613c26565b5050509392505050565b6000613c70613c6b84614ed0565b614e7f565b905082815260208101848484011115613c8857600080fd5b613c9384828561513f565b509392505050565b600081359050613caa8161570f565b92915050565b600081519050613cbf81615726565b92915050565b600082601f830112613cd657600080fd5b8135613ce6848260208601613bf1565b91505092915050565b600081359050613cfe8161573d565b92915050565b600081359050613d1381615754565b92915050565b600081519050613d2881615754565b92915050565b60008083601f840112613d4057600080fd5b8235905067ffffffffffffffff811115613d5957600080fd5b602083019150836001820283011115613d7157600080fd5b9250929050565b600082601f830112613d8957600080fd5b8135613d99848260208601613c5d565b91505092915050565b600081359050613db18161576b565b92915050565b600081359050613dc681615782565b92915050565b600081519050613ddb81615782565b92915050565b600081359050613df081615799565b92915050565b600060208284031215613e0857600080fd5b6000613e1684828501613c9b565b91505092915050565b600080600080600080600060e0888a031215613e3a57600080fd5b6000613e488a828b01613cb0565b9750506020613e598a828b01613dcc565b9650506040613e6a8a828b01613dcc565b9550506060613e7b8a828b01613dcc565b9450506080613e8c8a828b01613dcc565b93505060a0613e9d8a828b01613dcc565b92505060c0613eae8a828b01613dcc565b91505092959891949750929550565b60008060408385031215613ed057600080fd5b6000613ede85828601613c9b565b9250506020613eef85828601613c9b565b9150509250929050565b600080600060608486031215613f0e57600080fd5b6000613f1c86828701613c9b565b9350506020613f2d86828701613c9b565b9250506040613f3e86828701613db7565b9150509250925092565b60008060008060808587031215613f5e57600080fd5b6000613f6c87828801613c9b565b9450506020613f7d87828801613c9b565b9350506040613f8e87828801613db7565b925050606085013567ffffffffffffffff811115613fab57600080fd5b613fb787828801613d78565b91505092959194509250565b60008060408385031215613fd657600080fd5b6000613fe485828601613c9b565b9250506020613ff585828601613cef565b9150509250929050565b6000806040838503121561401257600080fd5b600061402085828601613c9b565b925050602061403185828601613db7565b9150509250929050565b60006020828403121561404d57600080fd5b600061405b84828501613d04565b91505092915050565b60006020828403121561407657600080fd5b600061408484828501613d19565b91505092915050565b600080600080600080600060a0888a0312156140a857600080fd5b60006140b68a828b01613da2565b97505060206140c78a828b01613c9b565b965050604088013567ffffffffffffffff8111156140e457600080fd5b6140f08a828b01613d2e565b955095505060606141038a828b01613cef565b935050608088013567ffffffffffffffff81111561412057600080fd5b61412c8a828b01613d2e565b925092505092959891949750929550565b60008060008060006080868803121561415557600080fd5b600061416388828901613da2565b955050602086013567ffffffffffffffff81111561418057600080fd5b61418c88828901613d2e565b9450945050604061419f88828901613db7565b92505060606141b088828901613db7565b9150509295509295909350565b600080600080608085870312156141d357600080fd5b60006141e187828801613da2565b945050602085013567ffffffffffffffff8111156141fe57600080fd5b61420a87828801613d78565b935050604061421b87828801613de1565b925050606085013567ffffffffffffffff81111561423857600080fd5b61424487828801613d78565b91505092959194509250565b60006020828403121561426257600080fd5b600061427084828501613db7565b91505092915050565b60006020828403121561428b57600080fd5b600061429984828501613dcc565b91505092915050565b600080604083850312156142b557600080fd5b60006142c385828601613db7565b925050602083013567ffffffffffffffff8111156142e057600080fd5b6142ec85828601613cc5565b9150509250929050565b6000806040838503121561430957600080fd5b600061431785828601613db7565b925050602061432885828601613db7565b9150509250929050565b6000806040838503121561434557600080fd5b600061435385828601613dcc565b925050602061436485828601613dcc565b9150509250929050565b6143778161506b565b82525050565b61438681615059565b82525050565b6143958161507d565b82525050565b6143a48161507d565b82525050565b6143b381615089565b82525050565b60006143c58385614f17565b93506143d283858461513f565b6143db836152bc565b840190509392505050565b60006143f182614f01565b6143fb8185614f17565b935061440b81856020860161514e565b614414816152bc565b840191505092915050565b6144288161511b565b82525050565b600061443982614f0c565b6144438185614f28565b935061445381856020860161514e565b61445c816152bc565b840191505092915050565b600061447282614f0c565b61447c8185614f39565b935061448c81856020860161514e565b80840191505092915050565b60006144a5602b83614f28565b91506144b0826152da565b604082019050919050565b60006144c8603283614f28565b91506144d382615329565b604082019050919050565b60006144eb602683614f28565b91506144f682615378565b604082019050919050565b600061450e602583614f28565b9150614519826153c7565b604082019050919050565b6000614531601c83614f28565b915061453c82615416565b602082019050919050565b6000614554602483614f28565b915061455f8261543f565b604082019050919050565b6000614577601983614f28565b91506145828261548e565b602082019050919050565b600061459a602983614f28565b91506145a5826154b7565b604082019050919050565b60006145bd603e83614f28565b91506145c882615506565b604082019050919050565b60006145e0602083614f28565b91506145eb82615555565b602082019050919050565b6000614603600783614f39565b915061460e8261557e565b600782019050919050565b6000614626602083614f28565b9150614631826155a7565b602082019050919050565b6000614649601883614f28565b9150614654826155d0565b602082019050919050565b600061466c602183614f28565b9150614677826155f9565b604082019050919050565b600061468f600983614f39565b915061469a82615648565b600982019050919050565b60006146b2602c83614f28565b91506146bd82615671565b604082019050919050565b60006146d5602e83614f28565b91506146e0826156c0565b604082019050919050565b60e082016000820151614701600085018261479f565b506020820151614714602085018261479f565b506040820151614727604085018261438c565b50606082015161473a606085018261438c565b50608082015161474d608085018261479f565b5060a082015161476060a085018261479f565b5060c082015161477360c085018261479f565b50505050565b614782816150bf565b82525050565b614799614794826150bf565b6151e4565b82525050565b6147a8816150ed565b82525050565b6147b7816150ed565b82525050565b6147ce6147c9826150ed565b6151f6565b82525050565b6147dd816150f7565b82525050565b6147ec81615107565b82525050565b60006147fe8286614467565b915061480982614682565b915061481582856147bd565b602082019150614824826145f6565b915061483082846147bd565b602082019150819050949350505050565b600061484d8285614788565b60028201915061485d82846147bd565b6020820191508190509392505050565b6000602082019050614882600083018461437d565b92915050565b600060408201905061489d600083018561437d565b6148aa602083018461437d565b9392505050565b60006080820190506148c6600083018761437d565b6148d3602083018661437d565b6148e060408301856147ae565b81810360608301526148f281846143e6565b905095945050505050565b600060e082019050614912600083018a61437d565b61491f60208301896147ae565b61492c60408301886147ae565b61493960608301876147ae565b61494660808301866147ae565b61495360a08301856147ae565b61496060c08301846147ae565b98975050505050505050565b6000602082019050614981600083018461439b565b92915050565b600060a08201905061499c60008301886143aa565b6149a960208301876147e3565b6149b66040830186614779565b6149c360608301856147d4565b6149d060808301846147d4565b9695505050505050565b60006020820190506149ef600083018461441f565b92915050565b60006020820190508181036000830152614a0f818461442e565b905092915050565b60006020820190508181036000830152614a3081614498565b9050919050565b60006020820190508181036000830152614a50816144bb565b9050919050565b60006020820190508181036000830152614a70816144de565b9050919050565b60006020820190508181036000830152614a9081614501565b9050919050565b60006020820190508181036000830152614ab081614524565b9050919050565b60006020820190508181036000830152614ad081614547565b9050919050565b60006020820190508181036000830152614af08161456a565b9050919050565b60006020820190508181036000830152614b108161458d565b9050919050565b60006020820190508181036000830152614b30816145b0565b9050919050565b60006020820190508181036000830152614b50816145d3565b9050919050565b60006020820190508181036000830152614b7081614619565b9050919050565b60006020820190508181036000830152614b908161463c565b9050919050565b60006020820190508181036000830152614bb08161465f565b9050919050565b60006020820190508181036000830152614bd0816146a5565b9050919050565b60006020820190508181036000830152614bf0816146c8565b9050919050565b600060e082019050614c0c60008301846146eb565b92915050565b600060a082019050614c27600083018a614779565b614c34602083018961437d565b8181036040830152614c478187896143b9565b9050614c56606083018661439b565b8181036080830152614c698184866143b9565b905098975050505050505050565b600060a082019050614c8c6000830188614779565b614c99602083018761437d565b8181036040830152614cab81866143e6565b9050614cba606083018561439b565b8181036080830152614ccc81846143e6565b90509695505050505050565b6000608082019050614ced6000830187614779565b614cfa602083018661437d565b614d0760408301856147ae565b614d1460608301846147ae565b95945050505050565b600060c082019050614d32600083018a614779565b8181036020830152614d4581888a6143b9565b90508181036040830152614d5981876143e6565b9050614d68606083018661436e565b614d75608083018561437d565b81810360a0830152614d8781846143e6565b905098975050505050505050565b6000602082019050614daa60008301846147ae565b92915050565b6000604082019050614dc560008301856147ae565b614dd260208301846147ae565b9392505050565b6000606082019050614dee60008301866147ae565b614dfb60208301856147ae565b614e08604083018461439b565b949350505050565b600060e082019050614e25600083018a6147ae565b614e3260208301896147ae565b614e3f604083018861439b565b614e4c606083018761439b565b614e5960808301866147ae565b614e6660a08301856147ae565b614e7360c08301846147ae565b98975050505050505050565b6000614e89614e9a565b9050614e9582826151b3565b919050565b6000604051905090565b600067ffffffffffffffff821115614ebf57614ebe61528d565b5b602082029050602081019050919050565b600067ffffffffffffffff821115614eeb57614eea61528d565b5b614ef4826152bc565b9050602081019050919050565b600081519050919050565b600081519050919050565b600082825260208201905092915050565b600082825260208201905092915050565b600081905092915050565b6000614f4f826150ed565b9150614f5a836150ed565b9250827fffffffffffffffffffffffffffffffffffffffffffffffffffffffffffffffff03821115614f8f57614f8e615200565b5b828201905092915050565b6000614fa5826150ed565b9150614fb0836150ed565b925082614fc057614fbf61522f565b5b828204905092915050565b6000614fd6826150ed565b9150614fe1836150ed565b9250817fffffffffffffffffffffffffffffffffffffffffffffffffffffffffffffffff048311821515161561501a57615019615200565b5b828202905092915050565b6000615030826150ed565b915061503b836150ed565b92508282101561504e5761504d615200565b5b828203905092915050565b6000615064826150cd565b9050919050565b6000615076826150cd565b9050919050565b60008115159050919050565b6000819050919050565b60007fffffffff0000000000000000000000000000000000000000000000000000000082169050919050565b600061ffff82169050919050565b600073ffffffffffffffffffffffffffffffffffffffff82169050919050565b6000819050919050565b600063ffffffff82169050919050565b600067ffffffffffffffff82169050919050565b60006151268261512d565b9050919050565b6000615138826150cd565b9050919050565b82818337600083830152505050565b60005b8381101561516c578082015181840152602081019050615151565b8381111561517b576000848401525b50505050565b6000600282049050600182168061519957607f821691505b602082108114156151ad576151ac61525e565b5b50919050565b6151bc826152bc565b810181811067ffffffffffffffff821117156151db576151da61528d565b5b80604052505050565b60006151ef826152cd565b9050919050565b6000819050919050565b7f4e487b7100000000000000000000000000000000000000000000000000000000600052601160045260246000fd5b7f4e487b7100000000000000000000000000000000000000000000000000000000600052601260045260246000fd5b7f4e487b7100000000000000000000000000000000000000000000000000000000600052602260045260246000fd5b7f4e487b7100000000000000000000000000000000000000000000000000000000600052604160045260246000fd5b6000601f19601f8301169050919050565b60008160f01b9050919050565b7f455243373231456e756d657261626c653a206f776e657220696e646578206f7560008201527f74206f6620626f756e6473000000000000000000000000000000000000000000602082015250565b7f4552433732313a207472616e7366657220746f206e6f6e20455243373231526560008201527f63656976657220696d706c656d656e7465720000000000000000000000000000602082015250565b7f4f776e61626c653a206e6577206f776e657220697320746865207a65726f206160008201527f6464726573730000000000000000000000000000000000000000000000000000602082015250565b7f4552433732313a207472616e736665722066726f6d20696e636f72726563742060008201527f6f776e6572000000000000000000000000000000000000000000000000000000602082015250565b7f4552433732313a20746f6b656e20616c7265616479206d696e74656400000000600082015250565b7f4552433732313a207472616e7366657220746f20746865207a65726f2061646460008201527f7265737300000000000000000000000000000000000000000000000000000000602082015250565b7f4552433732313a20617070726f766520746f2063616c6c657200000000000000600082015250565b7f4552433732313a2061646472657373207a65726f206973206e6f74206120766160008201527f6c6964206f776e65720000000000000000000000000000000000000000000000602082015250565b7f4552433732313a20617070726f76652063616c6c6572206973206e6f7420746f60008201527f6b656e206f776e6572206e6f7220617070726f76656420666f7220616c6c0000602082015250565b7f4552433732313a206d696e7420746f20746865207a65726f2061646472657373600082015250565b7f26706f7765723d00000000000000000000000000000000000000000000000000600082015250565b7f4f776e61626c653a2063616c6c6572206973206e6f7420746865206f776e6572600082015250565b7f4552433732313a20696e76616c696420746f6b656e2049440000000000000000600082015250565b7f4552433732313a20617070726f76616c20746f2063757272656e74206f776e6560008201527f7200000000000000000000000000000000000000000000000000000000000000602082015250565b7f3f636861696e49643d0000000000000000000000000000000000000000000000600082015250565b7f455243373231456e756d657261626c653a20676c6f62616c20696e646578206f60008201527f7574206f6620626f756e64730000000000000000000000000000000000000000602082015250565b7f4552433732313a2063616c6c6572206973206e6f7420746f6b656e206f776e6560008201527f72206e6f7220617070726f766564000000000000000000000000000000000000602082015250565b61571881615059565b811461572357600080fd5b50565b61572f8161506b565b811461573a57600080fd5b50565b6157468161507d565b811461575157600080fd5b50565b61575d81615093565b811461576857600080fd5b50565b615774816150bf565b811461577f57600080fd5b50565b61578b816150ed565b811461579657600080fd5b50565b6157a281615107565b81146157ad57600080fd5b5056fe68747470733a2f2f6e66742d666c6565742d7365727665722e6865726f6b756170702e636f6d2fa264697066735822122030d251f8bc3102dd59df7013b37ae32b9c503afb6cd4f95c4ad892bf369f20f764736f6c63430008040033",
  "linkReferences": {},
  "deployedLinkReferences": {}
}